{
	"13_Errors.sol": {
		"Error": {
			"abi": [
				{
					"inputs": [
						{
							"internalType": "uint256",
							"name": "_i",
							"type": "uint256"
						}
					],
					"name": "foo",
					"outputs": [],
					"stateMutability": "nonpayable",
					"type": "function"
				},
				{
					"inputs": [],
					"name": "num",
					"outputs": [
						{
							"internalType": "uint256",
							"name": "",
							"type": "uint256"
						}
					],
					"stateMutability": "view",
					"type": "function"
				},
				{
					"inputs": [],
					"name": "testAssert",
					"outputs": [],
					"stateMutability": "view",
					"type": "function"
				},
				{
					"inputs": [
						{
							"internalType": "uint256",
							"name": "_i",
							"type": "uint256"
						}
					],
					"name": "testCust",
					"outputs": [],
					"stateMutability": "nonpayable",
					"type": "function"
				},
				{
					"inputs": [
						{
							"internalType": "uint256",
							"name": "_i",
							"type": "uint256"
						}
					],
					"name": "testRequire",
					"outputs": [],
					"stateMutability": "pure",
					"type": "function"
				},
				{
					"inputs": [
						{
							"internalType": "uint256",
							"name": "_i",
							"type": "uint256"
						}
					],
					"name": "testRevert",
					"outputs": [],
					"stateMutability": "pure",
					"type": "function"
				}
			],
			"devdoc": {
				"kind": "dev",
				"methods": {},
				"version": 1
			},
			"evm": {
				"assembly": "    /* \"13_Errors.sol\":136:748  contract Error {... */\n  mstore(0x40, 0x80)\n    /* \"13_Errors.sol\":490:493  123 */\n  0x7b\n    /* \"13_Errors.sol\":472:493  uint public num = 123 */\n  0x00\n  sstore\n    /* \"13_Errors.sol\":136:748  contract Error {... */\n  callvalue\n  dup1\n  iszero\n  tag_1\n  jumpi\n  0x00\n  dup1\n  revert\ntag_1:\n  pop\n  dataSize(sub_0)\n  dup1\n  dataOffset(sub_0)\n  0x00\n  codecopy\n  0x00\n  return\nstop\n\nsub_0: assembly {\n        /* \"13_Errors.sol\":136:748  contract Error {... */\n      mstore(0x40, 0x80)\n      callvalue\n      dup1\n      iszero\n      tag_1\n      jumpi\n      0x00\n      dup1\n      revert\n    tag_1:\n      pop\n      jumpi(tag_2, lt(calldatasize, 0x04))\n      shr(0xe0, calldataload(0x00))\n      dup1\n      0x20987767\n      eq\n      tag_3\n      jumpi\n      dup1\n      0x2b813bc0\n      eq\n      tag_4\n      jumpi\n      dup1\n      0x2fbebd38\n      eq\n      tag_5\n      jumpi\n      dup1\n      0x4e70b1dc\n      eq\n      tag_6\n      jumpi\n      dup1\n      0x5c6121a1\n      eq\n      tag_7\n      jumpi\n      dup1\n      0xb8bd717f\n      eq\n      tag_8\n      jumpi\n    tag_2:\n      0x00\n      dup1\n      revert\n        /* \"13_Errors.sol\":250:466  function testRevert(uint _i) public pure {... */\n    tag_3:\n      tag_9\n      0x04\n      dup1\n      calldatasize\n      sub\n      dup2\n      add\n      swap1\n      tag_10\n      swap2\n      swap1\n      tag_11\n      jump\t// in\n    tag_10:\n      tag_12\n      jump\t// in\n    tag_9:\n      stop\n        /* \"13_Errors.sol\":500:569  function testAssert() public view {... */\n    tag_4:\n      tag_13\n      tag_14\n      jump\t// in\n    tag_13:\n      stop\n        /* \"13_Errors.sol\":575:655  function foo(uint _i) public {... */\n    tag_5:\n      tag_15\n      0x04\n      dup1\n      calldatasize\n      sub\n      dup2\n      add\n      swap1\n      tag_16\n      swap2\n      swap1\n      tag_11\n      jump\t// in\n    tag_16:\n      tag_17\n      jump\t// in\n    tag_15:\n      stop\n        /* \"13_Errors.sol\":472:493  uint public num = 123 */\n    tag_6:\n      tag_18\n      tag_19\n      jump\t// in\n    tag_18:\n      mload(0x40)\n      tag_20\n      swap2\n      swap1\n      tag_21\n      jump\t// in\n    tag_20:\n      mload(0x40)\n      dup1\n      swap2\n      sub\n      swap1\n      return\n        /* \"13_Errors.sol\":661:746  function testCust(uint _i) public {... */\n    tag_7:\n      tag_22\n      0x04\n      dup1\n      calldatasize\n      sub\n      dup2\n      add\n      swap1\n      tag_23\n      swap2\n      swap1\n      tag_11\n      jump\t// in\n    tag_23:\n      tag_24\n      jump\t// in\n    tag_22:\n      stop\n        /* \"13_Errors.sol\":157:244  function testRequire(uint _i) public pure {... */\n    tag_8:\n      tag_25\n      0x04\n      dup1\n      calldatasize\n      sub\n      dup2\n      add\n      swap1\n      tag_26\n      swap2\n      swap1\n      tag_11\n      jump\t// in\n    tag_26:\n      tag_27\n      jump\t// in\n    tag_25:\n      stop\n        /* \"13_Errors.sol\":250:466  function testRevert(uint _i) public pure {... */\n    tag_12:\n        /* \"13_Errors.sol\":310:311  1 */\n      0x01\n        /* \"13_Errors.sol\":305:307  _i */\n      dup2\n        /* \"13_Errors.sol\":305:311  _i > 1 */\n      gt\n        /* \"13_Errors.sol\":301:451  if (_i > 1) {... */\n      iszero\n      tag_29\n      jumpi\n        /* \"13_Errors.sol\":336:337  2 */\n      0x02\n        /* \"13_Errors.sol\":331:333  _i */\n      dup2\n        /* \"13_Errors.sol\":331:337  _i > 2 */\n      gt\n        /* \"13_Errors.sol\":327:441  if (_i > 2) {... */\n      iszero\n      tag_30\n      jumpi\n        /* \"13_Errors.sol\":366:368  10 */\n      0x0a\n        /* \"13_Errors.sol\":361:363  _i */\n      dup2\n        /* \"13_Errors.sol\":361:368  _i > 10 */\n      gt\n        /* \"13_Errors.sol\":357:427  if (_i > 10) {... */\n      iszero\n      tag_31\n      jumpi\n        /* \"13_Errors.sol\":392:408  revert(\"i > 10\") */\n      mload(0x40)\n      0x08c379a000000000000000000000000000000000000000000000000000000000\n      dup2\n      mstore\n      0x04\n      add\n      tag_32\n      swap1\n      tag_33\n      jump\t// in\n    tag_32:\n      mload(0x40)\n      dup1\n      swap2\n      sub\n      swap1\n      revert\n        /* \"13_Errors.sol\":357:427  if (_i > 10) {... */\n    tag_31:\n        /* \"13_Errors.sol\":327:441  if (_i > 2) {... */\n    tag_30:\n        /* \"13_Errors.sol\":301:451  if (_i > 1) {... */\n    tag_29:\n        /* \"13_Errors.sol\":250:466  function testRevert(uint _i) public pure {... */\n      pop\n      jump\t// out\n        /* \"13_Errors.sol\":500:569  function testAssert() public view {... */\n    tag_14:\n        /* \"13_Errors.sol\":558:561  123 */\n      0x7b\n        /* \"13_Errors.sol\":551:554  num */\n      sload(0x00)\n        /* \"13_Errors.sol\":551:561  num == 123 */\n      eq\n        /* \"13_Errors.sol\":544:562  assert(num == 123) */\n      tag_35\n      jumpi\n      tag_36\n      tag_37\n      jump\t// in\n    tag_36:\n    tag_35:\n        /* \"13_Errors.sol\":500:569  function testAssert() public view {... */\n      jump\t// out\n        /* \"13_Errors.sol\":575:655  function foo(uint _i) public {... */\n    tag_17:\n        /* \"13_Errors.sol\":621:622  1 */\n      0x01\n        /* \"13_Errors.sol\":614:617  num */\n      0x00\n      dup1\n        /* \"13_Errors.sol\":614:622  num += 1 */\n      dup3\n      dup3\n      sload\n      tag_39\n      swap2\n      swap1\n      tag_40\n      jump\t// in\n    tag_39:\n      swap3\n      pop\n      pop\n      dup2\n      swap1\n      sstore\n      pop\n        /* \"13_Errors.sol\":645:647  10 */\n      0x0a\n        /* \"13_Errors.sol\":640:642  _i */\n      dup2\n        /* \"13_Errors.sol\":640:647  _i < 10 */\n      lt\n        /* \"13_Errors.sol\":632:648  require(_i < 10) */\n      tag_41\n      jumpi\n      0x00\n      dup1\n      revert\n    tag_41:\n        /* \"13_Errors.sol\":575:655  function foo(uint _i) public {... */\n      pop\n      jump\t// out\n        /* \"13_Errors.sol\":472:493  uint public num = 123 */\n    tag_19:\n      sload(0x00)\n      dup2\n      jump\t// out\n        /* \"13_Errors.sol\":661:746  function testCust(uint _i) public {... */\n    tag_24:\n        /* \"13_Errors.sol\":712:713  1 */\n      0x01\n        /* \"13_Errors.sol\":705:708  num */\n      0x00\n      dup1\n        /* \"13_Errors.sol\":705:713  num += 1 */\n      dup3\n      dup3\n      sload\n      tag_43\n      swap2\n      swap1\n      tag_40\n      jump\t// in\n    tag_43:\n      swap3\n      pop\n      pop\n      dup2\n      swap1\n      sstore\n      pop\n        /* \"13_Errors.sol\":736:738  10 */\n      0x0a\n        /* \"13_Errors.sol\":731:733  _i */\n      dup2\n        /* \"13_Errors.sol\":731:738  _i < 10 */\n      lt\n        /* \"13_Errors.sol\":723:739  require(_i < 10) */\n      tag_44\n      jumpi\n      0x00\n      dup1\n      revert\n    tag_44:\n        /* \"13_Errors.sol\":661:746  function testCust(uint _i) public {... */\n      pop\n      jump\t// out\n        /* \"13_Errors.sol\":157:244  function testRequire(uint _i) public pure {... */\n    tag_27:\n        /* \"13_Errors.sol\":223:225  10 */\n      0x0a\n        /* \"13_Errors.sol\":217:219  _i */\n      dup2\n        /* \"13_Errors.sol\":217:225  _i <= 10 */\n      gt\n      iszero\n        /* \"13_Errors.sol\":209:236  require(_i <= 10, \"i > 10\") */\n      tag_46\n      jumpi\n      mload(0x40)\n      0x08c379a000000000000000000000000000000000000000000000000000000000\n      dup2\n      mstore\n      0x04\n      add\n      tag_47\n      swap1\n      tag_33\n      jump\t// in\n    tag_47:\n      mload(0x40)\n      dup1\n      swap2\n      sub\n      swap1\n      revert\n    tag_46:\n        /* \"13_Errors.sol\":157:244  function testRequire(uint _i) public pure {... */\n      pop\n      jump\t// out\n        /* \"#utility.yul\":7:146   */\n    tag_49:\n        /* \"#utility.yul\":53:58   */\n      0x00\n        /* \"#utility.yul\":91:97   */\n      dup2\n        /* \"#utility.yul\":78:98   */\n      calldataload\n        /* \"#utility.yul\":69:98   */\n      swap1\n      pop\n        /* \"#utility.yul\":107:140   */\n      tag_51\n        /* \"#utility.yul\":134:139   */\n      dup2\n        /* \"#utility.yul\":107:140   */\n      tag_52\n      jump\t// in\n    tag_51:\n        /* \"#utility.yul\":7:146   */\n      swap3\n      swap2\n      pop\n      pop\n      jump\t// out\n        /* \"#utility.yul\":152:481   */\n    tag_11:\n        /* \"#utility.yul\":211:217   */\n      0x00\n        /* \"#utility.yul\":260:262   */\n      0x20\n        /* \"#utility.yul\":248:257   */\n      dup3\n        /* \"#utility.yul\":239:246   */\n      dup5\n        /* \"#utility.yul\":235:258   */\n      sub\n        /* \"#utility.yul\":231:263   */\n      slt\n        /* \"#utility.yul\":228:347   */\n      iszero\n      tag_54\n      jumpi\n        /* \"#utility.yul\":266:345   */\n      tag_55\n      tag_56\n      jump\t// in\n    tag_55:\n        /* \"#utility.yul\":228:347   */\n    tag_54:\n        /* \"#utility.yul\":386:387   */\n      0x00\n        /* \"#utility.yul\":411:464   */\n      tag_57\n        /* \"#utility.yul\":456:463   */\n      dup5\n        /* \"#utility.yul\":447:453   */\n      dup3\n        /* \"#utility.yul\":436:445   */\n      dup6\n        /* \"#utility.yul\":432:454   */\n      add\n        /* \"#utility.yul\":411:464   */\n      tag_49\n      jump\t// in\n    tag_57:\n        /* \"#utility.yul\":401:464   */\n      swap2\n      pop\n        /* \"#utility.yul\":357:474   */\n      pop\n        /* \"#utility.yul\":152:481   */\n      swap3\n      swap2\n      pop\n      pop\n      jump\t// out\n        /* \"#utility.yul\":487:852   */\n    tag_58:\n        /* \"#utility.yul\":629:632   */\n      0x00\n        /* \"#utility.yul\":650:716   */\n      tag_60\n        /* \"#utility.yul\":714:715   */\n      0x06\n        /* \"#utility.yul\":709:712   */\n      dup4\n        /* \"#utility.yul\":650:716   */\n      tag_61\n      jump\t// in\n    tag_60:\n        /* \"#utility.yul\":643:716   */\n      swap2\n      pop\n        /* \"#utility.yul\":725:818   */\n      tag_62\n        /* \"#utility.yul\":814:817   */\n      dup3\n        /* \"#utility.yul\":725:818   */\n      tag_63\n      jump\t// in\n    tag_62:\n        /* \"#utility.yul\":843:845   */\n      0x20\n        /* \"#utility.yul\":838:841   */\n      dup3\n        /* \"#utility.yul\":834:846   */\n      add\n        /* \"#utility.yul\":827:846   */\n      swap1\n      pop\n        /* \"#utility.yul\":487:852   */\n      swap2\n      swap1\n      pop\n      jump\t// out\n        /* \"#utility.yul\":858:976   */\n    tag_64:\n        /* \"#utility.yul\":945:969   */\n      tag_66\n        /* \"#utility.yul\":963:968   */\n      dup2\n        /* \"#utility.yul\":945:969   */\n      tag_67\n      jump\t// in\n    tag_66:\n        /* \"#utility.yul\":940:943   */\n      dup3\n        /* \"#utility.yul\":933:970   */\n      mstore\n        /* \"#utility.yul\":858:976   */\n      pop\n      pop\n      jump\t// out\n        /* \"#utility.yul\":982:1401   */\n    tag_33:\n        /* \"#utility.yul\":1148:1152   */\n      0x00\n        /* \"#utility.yul\":1186:1188   */\n      0x20\n        /* \"#utility.yul\":1175:1184   */\n      dup3\n        /* \"#utility.yul\":1171:1189   */\n      add\n        /* \"#utility.yul\":1163:1189   */\n      swap1\n      pop\n        /* \"#utility.yul\":1235:1244   */\n      dup2\n        /* \"#utility.yul\":1229:1233   */\n      dup2\n        /* \"#utility.yul\":1225:1245   */\n      sub\n        /* \"#utility.yul\":1221:1222   */\n      0x00\n        /* \"#utility.yul\":1210:1219   */\n      dup4\n        /* \"#utility.yul\":1206:1223   */\n      add\n        /* \"#utility.yul\":1199:1246   */\n      mstore\n        /* \"#utility.yul\":1263:1394   */\n      tag_69\n        /* \"#utility.yul\":1389:1393   */\n      dup2\n        /* \"#utility.yul\":1263:1394   */\n      tag_58\n      jump\t// in\n    tag_69:\n        /* \"#utility.yul\":1255:1394   */\n      swap1\n      pop\n        /* \"#utility.yul\":982:1401   */\n      swap2\n      swap1\n      pop\n      jump\t// out\n        /* \"#utility.yul\":1407:1629   */\n    tag_21:\n        /* \"#utility.yul\":1500:1504   */\n      0x00\n        /* \"#utility.yul\":1538:1540   */\n      0x20\n        /* \"#utility.yul\":1527:1536   */\n      dup3\n        /* \"#utility.yul\":1523:1541   */\n      add\n        /* \"#utility.yul\":1515:1541   */\n      swap1\n      pop\n        /* \"#utility.yul\":1551:1622   */\n      tag_71\n        /* \"#utility.yul\":1619:1620   */\n      0x00\n        /* \"#utility.yul\":1608:1617   */\n      dup4\n        /* \"#utility.yul\":1604:1621   */\n      add\n        /* \"#utility.yul\":1595:1601   */\n      dup5\n        /* \"#utility.yul\":1551:1622   */\n      tag_64\n      jump\t// in\n    tag_71:\n        /* \"#utility.yul\":1407:1629   */\n      swap3\n      swap2\n      pop\n      pop\n      jump\t// out\n        /* \"#utility.yul\":1716:1885   */\n    tag_61:\n        /* \"#utility.yul\":1800:1811   */\n      0x00\n        /* \"#utility.yul\":1834:1840   */\n      dup3\n        /* \"#utility.yul\":1829:1832   */\n      dup3\n        /* \"#utility.yul\":1822:1841   */\n      mstore\n        /* \"#utility.yul\":1874:1878   */\n      0x20\n        /* \"#utility.yul\":1869:1872   */\n      dup3\n        /* \"#utility.yul\":1865:1879   */\n      add\n        /* \"#utility.yul\":1850:1879   */\n      swap1\n      pop\n        /* \"#utility.yul\":1716:1885   */\n      swap3\n      swap2\n      pop\n      pop\n      jump\t// out\n        /* \"#utility.yul\":1891:2196   */\n    tag_40:\n        /* \"#utility.yul\":1931:1934   */\n      0x00\n        /* \"#utility.yul\":1950:1970   */\n      tag_76\n        /* \"#utility.yul\":1968:1969   */\n      dup3\n        /* \"#utility.yul\":1950:1970   */\n      tag_67\n      jump\t// in\n    tag_76:\n        /* \"#utility.yul\":1945:1970   */\n      swap2\n      pop\n        /* \"#utility.yul\":1984:2004   */\n      tag_77\n        /* \"#utility.yul\":2002:2003   */\n      dup4\n        /* \"#utility.yul\":1984:2004   */\n      tag_67\n      jump\t// in\n    tag_77:\n        /* \"#utility.yul\":1979:2004   */\n      swap3\n      pop\n        /* \"#utility.yul\":2138:2139   */\n      dup3\n        /* \"#utility.yul\":2070:2136   */\n      0xffffffffffffffffffffffffffffffffffffffffffffffffffffffffffffffff\n        /* \"#utility.yul\":2066:2140   */\n      sub\n        /* \"#utility.yul\":2063:2064   */\n      dup3\n        /* \"#utility.yul\":2060:2141   */\n      gt\n        /* \"#utility.yul\":2057:2164   */\n      iszero\n      tag_78\n      jumpi\n        /* \"#utility.yul\":2144:2162   */\n      tag_79\n      tag_80\n      jump\t// in\n    tag_79:\n        /* \"#utility.yul\":2057:2164   */\n    tag_78:\n        /* \"#utility.yul\":2188:2189   */\n      dup3\n        /* \"#utility.yul\":2185:2186   */\n      dup3\n        /* \"#utility.yul\":2181:2190   */\n      add\n        /* \"#utility.yul\":2174:2190   */\n      swap1\n      pop\n        /* \"#utility.yul\":1891:2196   */\n      swap3\n      swap2\n      pop\n      pop\n      jump\t// out\n        /* \"#utility.yul\":2202:2279   */\n    tag_67:\n        /* \"#utility.yul\":2239:2246   */\n      0x00\n        /* \"#utility.yul\":2268:2273   */\n      dup2\n        /* \"#utility.yul\":2257:2273   */\n      swap1\n      pop\n        /* \"#utility.yul\":2202:2279   */\n      swap2\n      swap1\n      pop\n      jump\t// out\n        /* \"#utility.yul\":2285:2465   */\n    tag_37:\n        /* \"#utility.yul\":2333:2410   */\n      0x4e487b7100000000000000000000000000000000000000000000000000000000\n        /* \"#utility.yul\":2330:2331   */\n      0x00\n        /* \"#utility.yul\":2323:2411   */\n      mstore\n        /* \"#utility.yul\":2430:2434   */\n      0x01\n        /* \"#utility.yul\":2427:2428   */\n      0x04\n        /* \"#utility.yul\":2420:2435   */\n      mstore\n        /* \"#utility.yul\":2454:2458   */\n      0x24\n        /* \"#utility.yul\":2451:2452   */\n      0x00\n        /* \"#utility.yul\":2444:2459   */\n      revert\n        /* \"#utility.yul\":2471:2651   */\n    tag_80:\n        /* \"#utility.yul\":2519:2596   */\n      0x4e487b7100000000000000000000000000000000000000000000000000000000\n        /* \"#utility.yul\":2516:2517   */\n      0x00\n        /* \"#utility.yul\":2509:2597   */\n      mstore\n        /* \"#utility.yul\":2616:2620   */\n      0x11\n        /* \"#utility.yul\":2613:2614   */\n      0x04\n        /* \"#utility.yul\":2606:2621   */\n      mstore\n        /* \"#utility.yul\":2640:2644   */\n      0x24\n        /* \"#utility.yul\":2637:2638   */\n      0x00\n        /* \"#utility.yul\":2630:2645   */\n      revert\n        /* \"#utility.yul\":2780:2897   */\n    tag_56:\n        /* \"#utility.yul\":2889:2890   */\n      0x00\n        /* \"#utility.yul\":2886:2887   */\n      dup1\n        /* \"#utility.yul\":2879:2891   */\n      revert\n        /* \"#utility.yul\":2903:3059   */\n    tag_63:\n        /* \"#utility.yul\":3043:3051   */\n      0x69203e2031300000000000000000000000000000000000000000000000000000\n        /* \"#utility.yul\":3039:3040   */\n      0x00\n        /* \"#utility.yul\":3031:3037   */\n      dup3\n        /* \"#utility.yul\":3027:3041   */\n      add\n        /* \"#utility.yul\":3020:3052   */\n      mstore\n        /* \"#utility.yul\":2903:3059   */\n      pop\n      jump\t// out\n        /* \"#utility.yul\":3065:3187   */\n    tag_52:\n        /* \"#utility.yul\":3138:3162   */\n      tag_89\n        /* \"#utility.yul\":3156:3161   */\n      dup2\n        /* \"#utility.yul\":3138:3162   */\n      tag_67\n      jump\t// in\n    tag_89:\n        /* \"#utility.yul\":3131:3136   */\n      dup2\n        /* \"#utility.yul\":3128:3163   */\n      eq\n        /* \"#utility.yul\":3118:3181   */\n      tag_90\n      jumpi\n        /* \"#utility.yul\":3177:3178   */\n      0x00\n        /* \"#utility.yul\":3174:3175   */\n      dup1\n        /* \"#utility.yul\":3167:3179   */\n      revert\n        /* \"#utility.yul\":3118:3181   */\n    tag_90:\n        /* \"#utility.yul\":3065:3187   */\n      pop\n      jump\t// out\n\n    auxdata: 0xa2646970667358221220b32b7a7b4d95417a267f32d5a447d2492da5059a84a1460f405bc813179f312664736f6c63430008070033\n}\n",
				"bytecode": {
					"linkReferences": {},
					"object": "6080604052607b60005534801561001557600080fd5b50610407806100256000396000f3fe608060405234801561001057600080fd5b50600436106100625760003560e01c806320987767146100675780632b813bc0146100835780632fbebd381461008d5780634e70b1dc146100a95780635c6121a1146100c7578063b8bd717f146100e3575b600080fd5b610081600480360381019061007c9190610223565b6100ff565b005b61008b61015a565b005b6100a760048036038101906100a29190610223565b61016f565b005b6100b1610198565b6040516100be91906102a2565b60405180910390f35b6100e160048036038101906100dc9190610223565b61019e565b005b6100fd60048036038101906100f89190610223565b6101c7565b005b600181111561015757600281111561015657600a811115610155576040517f08c379a000000000000000000000000000000000000000000000000000000000815260040161014c90610282565b60405180910390fd5b5b5b50565b607b6000541461016d5761016c61032e565b5b565b600160008082825461018191906102ce565b92505081905550600a811061019557600080fd5b50565b60005481565b60016000808282546101b091906102ce565b92505081905550600a81106101c457600080fd5b50565b600a81111561020b576040517f08c379a000000000000000000000000000000000000000000000000000000000815260040161020290610282565b60405180910390fd5b50565b60008135905061021d816103ba565b92915050565b6000602082840312156102395761023861038c565b5b60006102478482850161020e565b91505092915050565b600061025d6006836102bd565b915061026882610391565b602082019050919050565b61027c81610324565b82525050565b6000602082019050818103600083015261029b81610250565b9050919050565b60006020820190506102b76000830184610273565b92915050565b600082825260208201905092915050565b60006102d982610324565b91506102e483610324565b9250827fffffffffffffffffffffffffffffffffffffffffffffffffffffffffffffffff038211156103195761031861035d565b5b828201905092915050565b6000819050919050565b7f4e487b7100000000000000000000000000000000000000000000000000000000600052600160045260246000fd5b7f4e487b7100000000000000000000000000000000000000000000000000000000600052601160045260246000fd5b600080fd5b7f69203e2031300000000000000000000000000000000000000000000000000000600082015250565b6103c381610324565b81146103ce57600080fd5b5056fea2646970667358221220b32b7a7b4d95417a267f32d5a447d2492da5059a84a1460f405bc813179f312664736f6c63430008070033",
					"opcodes": "PUSH1 0x80 PUSH1 0x40 MSTORE PUSH1 0x7B PUSH1 0x0 SSTORE CALLVALUE DUP1 ISZERO PUSH2 0x15 JUMPI PUSH1 0x0 DUP1 REVERT JUMPDEST POP PUSH2 0x407 DUP1 PUSH2 0x25 PUSH1 0x0 CODECOPY PUSH1 0x0 RETURN INVALID PUSH1 0x80 PUSH1 0x40 MSTORE CALLVALUE DUP1 ISZERO PUSH2 0x10 JUMPI PUSH1 0x0 DUP1 REVERT JUMPDEST POP PUSH1 0x4 CALLDATASIZE LT PUSH2 0x62 JUMPI PUSH1 0x0 CALLDATALOAD PUSH1 0xE0 SHR DUP1 PUSH4 0x20987767 EQ PUSH2 0x67 JUMPI DUP1 PUSH4 0x2B813BC0 EQ PUSH2 0x83 JUMPI DUP1 PUSH4 0x2FBEBD38 EQ PUSH2 0x8D JUMPI DUP1 PUSH4 0x4E70B1DC EQ PUSH2 0xA9 JUMPI DUP1 PUSH4 0x5C6121A1 EQ PUSH2 0xC7 JUMPI DUP1 PUSH4 0xB8BD717F EQ PUSH2 0xE3 JUMPI JUMPDEST PUSH1 0x0 DUP1 REVERT JUMPDEST PUSH2 0x81 PUSH1 0x4 DUP1 CALLDATASIZE SUB DUP2 ADD SWAP1 PUSH2 0x7C SWAP2 SWAP1 PUSH2 0x223 JUMP JUMPDEST PUSH2 0xFF JUMP JUMPDEST STOP JUMPDEST PUSH2 0x8B PUSH2 0x15A JUMP JUMPDEST STOP JUMPDEST PUSH2 0xA7 PUSH1 0x4 DUP1 CALLDATASIZE SUB DUP2 ADD SWAP1 PUSH2 0xA2 SWAP2 SWAP1 PUSH2 0x223 JUMP JUMPDEST PUSH2 0x16F JUMP JUMPDEST STOP JUMPDEST PUSH2 0xB1 PUSH2 0x198 JUMP JUMPDEST PUSH1 0x40 MLOAD PUSH2 0xBE SWAP2 SWAP1 PUSH2 0x2A2 JUMP JUMPDEST PUSH1 0x40 MLOAD DUP1 SWAP2 SUB SWAP1 RETURN JUMPDEST PUSH2 0xE1 PUSH1 0x4 DUP1 CALLDATASIZE SUB DUP2 ADD SWAP1 PUSH2 0xDC SWAP2 SWAP1 PUSH2 0x223 JUMP JUMPDEST PUSH2 0x19E JUMP JUMPDEST STOP JUMPDEST PUSH2 0xFD PUSH1 0x4 DUP1 CALLDATASIZE SUB DUP2 ADD SWAP1 PUSH2 0xF8 SWAP2 SWAP1 PUSH2 0x223 JUMP JUMPDEST PUSH2 0x1C7 JUMP JUMPDEST STOP JUMPDEST PUSH1 0x1 DUP2 GT ISZERO PUSH2 0x157 JUMPI PUSH1 0x2 DUP2 GT ISZERO PUSH2 0x156 JUMPI PUSH1 0xA DUP2 GT ISZERO PUSH2 0x155 JUMPI PUSH1 0x40 MLOAD PUSH32 0x8C379A000000000000000000000000000000000000000000000000000000000 DUP2 MSTORE PUSH1 0x4 ADD PUSH2 0x14C SWAP1 PUSH2 0x282 JUMP JUMPDEST PUSH1 0x40 MLOAD DUP1 SWAP2 SUB SWAP1 REVERT JUMPDEST JUMPDEST JUMPDEST POP JUMP JUMPDEST PUSH1 0x7B PUSH1 0x0 SLOAD EQ PUSH2 0x16D JUMPI PUSH2 0x16C PUSH2 0x32E JUMP JUMPDEST JUMPDEST JUMP JUMPDEST PUSH1 0x1 PUSH1 0x0 DUP1 DUP3 DUP3 SLOAD PUSH2 0x181 SWAP2 SWAP1 PUSH2 0x2CE JUMP JUMPDEST SWAP3 POP POP DUP2 SWAP1 SSTORE POP PUSH1 0xA DUP2 LT PUSH2 0x195 JUMPI PUSH1 0x0 DUP1 REVERT JUMPDEST POP JUMP JUMPDEST PUSH1 0x0 SLOAD DUP2 JUMP JUMPDEST PUSH1 0x1 PUSH1 0x0 DUP1 DUP3 DUP3 SLOAD PUSH2 0x1B0 SWAP2 SWAP1 PUSH2 0x2CE JUMP JUMPDEST SWAP3 POP POP DUP2 SWAP1 SSTORE POP PUSH1 0xA DUP2 LT PUSH2 0x1C4 JUMPI PUSH1 0x0 DUP1 REVERT JUMPDEST POP JUMP JUMPDEST PUSH1 0xA DUP2 GT ISZERO PUSH2 0x20B JUMPI PUSH1 0x40 MLOAD PUSH32 0x8C379A000000000000000000000000000000000000000000000000000000000 DUP2 MSTORE PUSH1 0x4 ADD PUSH2 0x202 SWAP1 PUSH2 0x282 JUMP JUMPDEST PUSH1 0x40 MLOAD DUP1 SWAP2 SUB SWAP1 REVERT JUMPDEST POP JUMP JUMPDEST PUSH1 0x0 DUP2 CALLDATALOAD SWAP1 POP PUSH2 0x21D DUP2 PUSH2 0x3BA JUMP JUMPDEST SWAP3 SWAP2 POP POP JUMP JUMPDEST PUSH1 0x0 PUSH1 0x20 DUP3 DUP5 SUB SLT ISZERO PUSH2 0x239 JUMPI PUSH2 0x238 PUSH2 0x38C JUMP JUMPDEST JUMPDEST PUSH1 0x0 PUSH2 0x247 DUP5 DUP3 DUP6 ADD PUSH2 0x20E JUMP JUMPDEST SWAP2 POP POP SWAP3 SWAP2 POP POP JUMP JUMPDEST PUSH1 0x0 PUSH2 0x25D PUSH1 0x6 DUP4 PUSH2 0x2BD JUMP JUMPDEST SWAP2 POP PUSH2 0x268 DUP3 PUSH2 0x391 JUMP JUMPDEST PUSH1 0x20 DUP3 ADD SWAP1 POP SWAP2 SWAP1 POP JUMP JUMPDEST PUSH2 0x27C DUP2 PUSH2 0x324 JUMP JUMPDEST DUP3 MSTORE POP POP JUMP JUMPDEST PUSH1 0x0 PUSH1 0x20 DUP3 ADD SWAP1 POP DUP2 DUP2 SUB PUSH1 0x0 DUP4 ADD MSTORE PUSH2 0x29B DUP2 PUSH2 0x250 JUMP JUMPDEST SWAP1 POP SWAP2 SWAP1 POP JUMP JUMPDEST PUSH1 0x0 PUSH1 0x20 DUP3 ADD SWAP1 POP PUSH2 0x2B7 PUSH1 0x0 DUP4 ADD DUP5 PUSH2 0x273 JUMP JUMPDEST SWAP3 SWAP2 POP POP JUMP JUMPDEST PUSH1 0x0 DUP3 DUP3 MSTORE PUSH1 0x20 DUP3 ADD SWAP1 POP SWAP3 SWAP2 POP POP JUMP JUMPDEST PUSH1 0x0 PUSH2 0x2D9 DUP3 PUSH2 0x324 JUMP JUMPDEST SWAP2 POP PUSH2 0x2E4 DUP4 PUSH2 0x324 JUMP JUMPDEST SWAP3 POP DUP3 PUSH32 0xFFFFFFFFFFFFFFFFFFFFFFFFFFFFFFFFFFFFFFFFFFFFFFFFFFFFFFFFFFFFFFFF SUB DUP3 GT ISZERO PUSH2 0x319 JUMPI PUSH2 0x318 PUSH2 0x35D JUMP JUMPDEST JUMPDEST DUP3 DUP3 ADD SWAP1 POP SWAP3 SWAP2 POP POP JUMP JUMPDEST PUSH1 0x0 DUP2 SWAP1 POP SWAP2 SWAP1 POP JUMP JUMPDEST PUSH32 0x4E487B7100000000000000000000000000000000000000000000000000000000 PUSH1 0x0 MSTORE PUSH1 0x1 PUSH1 0x4 MSTORE PUSH1 0x24 PUSH1 0x0 REVERT JUMPDEST PUSH32 0x4E487B7100000000000000000000000000000000000000000000000000000000 PUSH1 0x0 MSTORE PUSH1 0x11 PUSH1 0x4 MSTORE PUSH1 0x24 PUSH1 0x0 REVERT JUMPDEST PUSH1 0x0 DUP1 REVERT JUMPDEST PUSH32 0x69203E2031300000000000000000000000000000000000000000000000000000 PUSH1 0x0 DUP3 ADD MSTORE POP JUMP JUMPDEST PUSH2 0x3C3 DUP2 PUSH2 0x324 JUMP JUMPDEST DUP2 EQ PUSH2 0x3CE JUMPI PUSH1 0x0 DUP1 REVERT JUMPDEST POP JUMP INVALID LOG2 PUSH5 0x6970667358 0x22 SLT KECCAK256 0xB3 0x2B PUSH27 0x7B4D95417A267F32D5A447D2492DA5059A84A1460F405BC813179F BALANCE 0x26 PUSH5 0x736F6C6343 STOP ADDMOD SMOD STOP CALLER "
				},
				"gasEstimates": {
					"creation": {
						"codeDepositCost": "206200",
						"executionCost": "22357",
						"totalCost": "228557"
					},
					"external": {
						"foo(uint256)": "infinite",
						"num()": "2473",
						"testAssert()": "2296",
						"testCust(uint256)": "infinite",
						"testRequire(uint256)": "807",
						"testRevert(uint256)": "747"
					}
				},
				"methodIdentifiers": {
					"foo(uint256)": "2fbebd38",
					"num()": "4e70b1dc",
					"testAssert()": "2b813bc0",
					"testCust(uint256)": "5c6121a1",
					"testRequire(uint256)": "b8bd717f",
					"testRevert(uint256)": "20987767"
				}
			},
			"storageLayout": {
				"storage": [
					{
						"astId": 42,
						"contract": "13_Errors.sol:Error",
						"label": "num",
						"offset": 0,
						"slot": "0",
						"type": "t_uint256"
					}
				],
				"types": {
					"t_uint256": {
						"encoding": "inplace",
						"label": "uint256",
						"numberOfBytes": "32"
					}
				}
			},
			"userdoc": {
				"kind": "user",
				"methods": {},
				"version": 1
			}
		}
	}
}