{
	"42_Call.sol": {
		"TestCall": {
			"abi": [
				{
					"anonymous": false,
					"inputs": [
						{
							"indexed": false,
							"internalType": "string",
							"name": "message",
							"type": "string"
						}
					],
					"name": "Log",
					"type": "event"
				},
				{
					"stateMutability": "payable",
					"type": "fallback"
				},
				{
					"inputs": [],
					"name": "message",
					"outputs": [
						{
							"internalType": "string",
							"name": "",
							"type": "string"
						}
					],
					"stateMutability": "view",
					"type": "function"
				},
				{
					"inputs": [],
					"name": "x",
					"outputs": [
						{
							"internalType": "uint256",
							"name": "",
							"type": "uint256"
						}
					],
					"stateMutability": "view",
					"type": "function"
				}
			],
			"devdoc": {
				"kind": "dev",
				"methods": {},
				"version": 1
			},
			"evm": {
				"assembly": "    /* \"42_Call.sol\":66:247  contract TestCall {... */\n  mstore(0x40, 0x80)\n  callvalue\n  dup1\n  iszero\n  tag_1\n  jumpi\n  0x00\n  dup1\n  revert\ntag_1:\n  pop\n  dataSize(sub_0)\n  dup1\n  dataOffset(sub_0)\n  0x00\n  codecopy\n  0x00\n  return\nstop\n\nsub_0: assembly {\n        /* \"42_Call.sol\":66:247  contract TestCall {... */\n      mstore(0x40, 0x80)\n      jumpi(tag_1, lt(calldatasize, 0x04))\n      shr(0xe0, calldataload(0x00))\n      dup1\n      0x0c55699c\n      eq\n      tag_3\n      jumpi\n      dup1\n      0xe21f37ce\n      eq\n      tag_4\n      jumpi\n      jump(tag_2)\n    tag_1:\n    tag_2:\n        /* \"42_Call.sol\":212:238  Log(\"fallback was called\") */\n      0xcf34ef537ac33ee1ac626ca1587a0a7e8e51561e5514f8cb36afa1c5102b3bab\n      mload(0x40)\n      tag_7\n      swap1\n      tag_8\n      jump\t// in\n    tag_7:\n      mload(0x40)\n      dup1\n      swap2\n      sub\n      swap1\n      log1\n        /* \"42_Call.sol\":66:247  contract TestCall {... */\n      stop\n        /* \"42_Call.sol\":117:130  uint public x */\n    tag_3:\n      callvalue\n      dup1\n      iszero\n      tag_9\n      jumpi\n      0x00\n      dup1\n      revert\n    tag_9:\n      pop\n      tag_10\n      tag_11\n      jump\t// in\n    tag_10:\n      mload(0x40)\n      tag_12\n      swap2\n      swap1\n      tag_13\n      jump\t// in\n    tag_12:\n      mload(0x40)\n      dup1\n      swap2\n      sub\n      swap1\n      return\n        /* \"42_Call.sol\":90:111  string public message */\n    tag_4:\n      callvalue\n      dup1\n      iszero\n      tag_14\n      jumpi\n      0x00\n      dup1\n      revert\n    tag_14:\n      pop\n      tag_15\n      tag_16\n      jump\t// in\n    tag_15:\n      mload(0x40)\n      tag_17\n      swap2\n      swap1\n      tag_18\n      jump\t// in\n    tag_17:\n      mload(0x40)\n      dup1\n      swap2\n      sub\n      swap1\n      return\n        /* \"42_Call.sol\":117:130  uint public x */\n    tag_11:\n      sload(0x01)\n      dup2\n      jump\t// out\n        /* \"42_Call.sol\":90:111  string public message */\n    tag_16:\n      0x00\n      dup1\n      sload\n      tag_19\n      swap1\n      tag_20\n      jump\t// in\n    tag_19:\n      dup1\n      0x1f\n      add\n      0x20\n      dup1\n      swap2\n      div\n      mul\n      0x20\n      add\n      mload(0x40)\n      swap1\n      dup2\n      add\n      0x40\n      mstore\n      dup1\n      swap3\n      swap2\n      swap1\n      dup2\n      dup2\n      mstore\n      0x20\n      add\n      dup3\n      dup1\n      sload\n      tag_21\n      swap1\n      tag_20\n      jump\t// in\n    tag_21:\n      dup1\n      iszero\n      tag_22\n      jumpi\n      dup1\n      0x1f\n      lt\n      tag_23\n      jumpi\n      0x0100\n      dup1\n      dup4\n      sload\n      div\n      mul\n      dup4\n      mstore\n      swap2\n      0x20\n      add\n      swap2\n      jump(tag_22)\n    tag_23:\n      dup3\n      add\n      swap2\n      swap1\n      0x00\n      mstore\n      keccak256(0x00, 0x20)\n      swap1\n    tag_24:\n      dup2\n      sload\n      dup2\n      mstore\n      swap1\n      0x01\n      add\n      swap1\n      0x20\n      add\n      dup1\n      dup4\n      gt\n      tag_24\n      jumpi\n      dup3\n      swap1\n      sub\n      0x1f\n      and\n      dup3\n      add\n      swap2\n    tag_22:\n      pop\n      pop\n      pop\n      pop\n      pop\n      dup2\n      jump\t// out\n        /* \"#utility.yul\":7:371   */\n    tag_26:\n        /* \"#utility.yul\":95:98   */\n      0x00\n        /* \"#utility.yul\":123:162   */\n      tag_28\n        /* \"#utility.yul\":156:161   */\n      dup3\n        /* \"#utility.yul\":123:162   */\n      tag_29\n      jump\t// in\n    tag_28:\n        /* \"#utility.yul\":178:249   */\n      tag_30\n        /* \"#utility.yul\":242:248   */\n      dup2\n        /* \"#utility.yul\":237:240   */\n      dup6\n        /* \"#utility.yul\":178:249   */\n      tag_31\n      jump\t// in\n    tag_30:\n        /* \"#utility.yul\":171:249   */\n      swap4\n      pop\n        /* \"#utility.yul\":258:310   */\n      tag_32\n        /* \"#utility.yul\":303:309   */\n      dup2\n        /* \"#utility.yul\":298:301   */\n      dup6\n        /* \"#utility.yul\":291:295   */\n      0x20\n        /* \"#utility.yul\":284:289   */\n      dup7\n        /* \"#utility.yul\":280:296   */\n      add\n        /* \"#utility.yul\":258:310   */\n      tag_33\n      jump\t// in\n    tag_32:\n        /* \"#utility.yul\":335:364   */\n      tag_34\n        /* \"#utility.yul\":357:363   */\n      dup2\n        /* \"#utility.yul\":335:364   */\n      tag_35\n      jump\t// in\n    tag_34:\n        /* \"#utility.yul\":330:333   */\n      dup5\n        /* \"#utility.yul\":326:365   */\n      add\n        /* \"#utility.yul\":319:365   */\n      swap2\n      pop\n        /* \"#utility.yul\":99:371   */\n      pop\n        /* \"#utility.yul\":7:371   */\n      swap3\n      swap2\n      pop\n      pop\n      jump\t// out\n        /* \"#utility.yul\":377:743   */\n    tag_36:\n        /* \"#utility.yul\":519:522   */\n      0x00\n        /* \"#utility.yul\":540:607   */\n      tag_38\n        /* \"#utility.yul\":604:606   */\n      0x13\n        /* \"#utility.yul\":599:602   */\n      dup4\n        /* \"#utility.yul\":540:607   */\n      tag_31\n      jump\t// in\n    tag_38:\n        /* \"#utility.yul\":533:607   */\n      swap2\n      pop\n        /* \"#utility.yul\":616:709   */\n      tag_39\n        /* \"#utility.yul\":705:708   */\n      dup3\n        /* \"#utility.yul\":616:709   */\n      tag_40\n      jump\t// in\n    tag_39:\n        /* \"#utility.yul\":734:736   */\n      0x20\n        /* \"#utility.yul\":729:732   */\n      dup3\n        /* \"#utility.yul\":725:737   */\n      add\n        /* \"#utility.yul\":718:737   */\n      swap1\n      pop\n        /* \"#utility.yul\":377:743   */\n      swap2\n      swap1\n      pop\n      jump\t// out\n        /* \"#utility.yul\":749:867   */\n    tag_41:\n        /* \"#utility.yul\":836:860   */\n      tag_43\n        /* \"#utility.yul\":854:859   */\n      dup2\n        /* \"#utility.yul\":836:860   */\n      tag_44\n      jump\t// in\n    tag_43:\n        /* \"#utility.yul\":831:834   */\n      dup3\n        /* \"#utility.yul\":824:861   */\n      mstore\n        /* \"#utility.yul\":749:867   */\n      pop\n      pop\n      jump\t// out\n        /* \"#utility.yul\":873:1186   */\n    tag_18:\n        /* \"#utility.yul\":986:990   */\n      0x00\n        /* \"#utility.yul\":1024:1026   */\n      0x20\n        /* \"#utility.yul\":1013:1022   */\n      dup3\n        /* \"#utility.yul\":1009:1027   */\n      add\n        /* \"#utility.yul\":1001:1027   */\n      swap1\n      pop\n        /* \"#utility.yul\":1073:1082   */\n      dup2\n        /* \"#utility.yul\":1067:1071   */\n      dup2\n        /* \"#utility.yul\":1063:1083   */\n      sub\n        /* \"#utility.yul\":1059:1060   */\n      0x00\n        /* \"#utility.yul\":1048:1057   */\n      dup4\n        /* \"#utility.yul\":1044:1061   */\n      add\n        /* \"#utility.yul\":1037:1084   */\n      mstore\n        /* \"#utility.yul\":1101:1179   */\n      tag_46\n        /* \"#utility.yul\":1174:1178   */\n      dup2\n        /* \"#utility.yul\":1165:1171   */\n      dup5\n        /* \"#utility.yul\":1101:1179   */\n      tag_26\n      jump\t// in\n    tag_46:\n        /* \"#utility.yul\":1093:1179   */\n      swap1\n      pop\n        /* \"#utility.yul\":873:1186   */\n      swap3\n      swap2\n      pop\n      pop\n      jump\t// out\n        /* \"#utility.yul\":1192:1611   */\n    tag_8:\n        /* \"#utility.yul\":1358:1362   */\n      0x00\n        /* \"#utility.yul\":1396:1398   */\n      0x20\n        /* \"#utility.yul\":1385:1394   */\n      dup3\n        /* \"#utility.yul\":1381:1399   */\n      add\n        /* \"#utility.yul\":1373:1399   */\n      swap1\n      pop\n        /* \"#utility.yul\":1445:1454   */\n      dup2\n        /* \"#utility.yul\":1439:1443   */\n      dup2\n        /* \"#utility.yul\":1435:1455   */\n      sub\n        /* \"#utility.yul\":1431:1432   */\n      0x00\n        /* \"#utility.yul\":1420:1429   */\n      dup4\n        /* \"#utility.yul\":1416:1433   */\n      add\n        /* \"#utility.yul\":1409:1456   */\n      mstore\n        /* \"#utility.yul\":1473:1604   */\n      tag_48\n        /* \"#utility.yul\":1599:1603   */\n      dup2\n        /* \"#utility.yul\":1473:1604   */\n      tag_36\n      jump\t// in\n    tag_48:\n        /* \"#utility.yul\":1465:1604   */\n      swap1\n      pop\n        /* \"#utility.yul\":1192:1611   */\n      swap2\n      swap1\n      pop\n      jump\t// out\n        /* \"#utility.yul\":1617:1839   */\n    tag_13:\n        /* \"#utility.yul\":1710:1714   */\n      0x00\n        /* \"#utility.yul\":1748:1750   */\n      0x20\n        /* \"#utility.yul\":1737:1746   */\n      dup3\n        /* \"#utility.yul\":1733:1751   */\n      add\n        /* \"#utility.yul\":1725:1751   */\n      swap1\n      pop\n        /* \"#utility.yul\":1761:1832   */\n      tag_50\n        /* \"#utility.yul\":1829:1830   */\n      0x00\n        /* \"#utility.yul\":1818:1827   */\n      dup4\n        /* \"#utility.yul\":1814:1831   */\n      add\n        /* \"#utility.yul\":1805:1811   */\n      dup5\n        /* \"#utility.yul\":1761:1832   */\n      tag_41\n      jump\t// in\n    tag_50:\n        /* \"#utility.yul\":1617:1839   */\n      swap3\n      swap2\n      pop\n      pop\n      jump\t// out\n        /* \"#utility.yul\":1845:1944   */\n    tag_29:\n        /* \"#utility.yul\":1897:1903   */\n      0x00\n        /* \"#utility.yul\":1931:1936   */\n      dup2\n        /* \"#utility.yul\":1925:1937   */\n      mload\n        /* \"#utility.yul\":1915:1937   */\n      swap1\n      pop\n        /* \"#utility.yul\":1845:1944   */\n      swap2\n      swap1\n      pop\n      jump\t// out\n        /* \"#utility.yul\":1950:2119   */\n    tag_31:\n        /* \"#utility.yul\":2034:2045   */\n      0x00\n        /* \"#utility.yul\":2068:2074   */\n      dup3\n        /* \"#utility.yul\":2063:2066   */\n      dup3\n        /* \"#utility.yul\":2056:2075   */\n      mstore\n        /* \"#utility.yul\":2108:2112   */\n      0x20\n        /* \"#utility.yul\":2103:2106   */\n      dup3\n        /* \"#utility.yul\":2099:2113   */\n      add\n        /* \"#utility.yul\":2084:2113   */\n      swap1\n      pop\n        /* \"#utility.yul\":1950:2119   */\n      swap3\n      swap2\n      pop\n      pop\n      jump\t// out\n        /* \"#utility.yul\":2125:2202   */\n    tag_44:\n        /* \"#utility.yul\":2162:2169   */\n      0x00\n        /* \"#utility.yul\":2191:2196   */\n      dup2\n        /* \"#utility.yul\":2180:2196   */\n      swap1\n      pop\n        /* \"#utility.yul\":2125:2202   */\n      swap2\n      swap1\n      pop\n      jump\t// out\n        /* \"#utility.yul\":2208:2515   */\n    tag_33:\n        /* \"#utility.yul\":2276:2277   */\n      0x00\n        /* \"#utility.yul\":2286:2399   */\n    tag_55:\n        /* \"#utility.yul\":2300:2306   */\n      dup4\n        /* \"#utility.yul\":2297:2298   */\n      dup2\n        /* \"#utility.yul\":2294:2307   */\n      lt\n        /* \"#utility.yul\":2286:2399   */\n      iszero\n      tag_57\n      jumpi\n        /* \"#utility.yul\":2385:2386   */\n      dup1\n        /* \"#utility.yul\":2380:2383   */\n      dup3\n        /* \"#utility.yul\":2376:2387   */\n      add\n        /* \"#utility.yul\":2370:2388   */\n      mload\n        /* \"#utility.yul\":2366:2367   */\n      dup2\n        /* \"#utility.yul\":2361:2364   */\n      dup5\n        /* \"#utility.yul\":2357:2368   */\n      add\n        /* \"#utility.yul\":2350:2389   */\n      mstore\n        /* \"#utility.yul\":2322:2324   */\n      0x20\n        /* \"#utility.yul\":2319:2320   */\n      dup2\n        /* \"#utility.yul\":2315:2325   */\n      add\n        /* \"#utility.yul\":2310:2325   */\n      swap1\n      pop\n        /* \"#utility.yul\":2286:2399   */\n      jump(tag_55)\n    tag_57:\n        /* \"#utility.yul\":2417:2423   */\n      dup4\n        /* \"#utility.yul\":2414:2415   */\n      dup2\n        /* \"#utility.yul\":2411:2424   */\n      gt\n        /* \"#utility.yul\":2408:2509   */\n      iszero\n      tag_58\n      jumpi\n        /* \"#utility.yul\":2497:2498   */\n      0x00\n        /* \"#utility.yul\":2488:2494   */\n      dup5\n        /* \"#utility.yul\":2483:2486   */\n      dup5\n        /* \"#utility.yul\":2479:2495   */\n      add\n        /* \"#utility.yul\":2472:2499   */\n      mstore\n        /* \"#utility.yul\":2408:2509   */\n    tag_58:\n        /* \"#utility.yul\":2257:2515   */\n      pop\n        /* \"#utility.yul\":2208:2515   */\n      pop\n      pop\n      pop\n      jump\t// out\n        /* \"#utility.yul\":2521:2841   */\n    tag_20:\n        /* \"#utility.yul\":2565:2571   */\n      0x00\n        /* \"#utility.yul\":2602:2603   */\n      0x02\n        /* \"#utility.yul\":2596:2600   */\n      dup3\n        /* \"#utility.yul\":2592:2604   */\n      div\n        /* \"#utility.yul\":2582:2604   */\n      swap1\n      pop\n        /* \"#utility.yul\":2649:2650   */\n      0x01\n        /* \"#utility.yul\":2643:2647   */\n      dup3\n        /* \"#utility.yul\":2639:2651   */\n      and\n        /* \"#utility.yul\":2670:2688   */\n      dup1\n        /* \"#utility.yul\":2660:2741   */\n      tag_60\n      jumpi\n        /* \"#utility.yul\":2726:2730   */\n      0x7f\n        /* \"#utility.yul\":2718:2724   */\n      dup3\n        /* \"#utility.yul\":2714:2731   */\n      and\n        /* \"#utility.yul\":2704:2731   */\n      swap2\n      pop\n        /* \"#utility.yul\":2660:2741   */\n    tag_60:\n        /* \"#utility.yul\":2788:2790   */\n      0x20\n        /* \"#utility.yul\":2780:2786   */\n      dup3\n        /* \"#utility.yul\":2777:2791   */\n      lt\n        /* \"#utility.yul\":2757:2775   */\n      dup2\n        /* \"#utility.yul\":2754:2792   */\n      eq\n        /* \"#utility.yul\":2751:2835   */\n      iszero\n      tag_61\n      jumpi\n        /* \"#utility.yul\":2807:2825   */\n      tag_62\n      tag_63\n      jump\t// in\n    tag_62:\n        /* \"#utility.yul\":2751:2835   */\n    tag_61:\n        /* \"#utility.yul\":2572:2841   */\n      pop\n        /* \"#utility.yul\":2521:2841   */\n      swap2\n      swap1\n      pop\n      jump\t// out\n        /* \"#utility.yul\":2847:3027   */\n    tag_63:\n        /* \"#utility.yul\":2895:2972   */\n      0x4e487b7100000000000000000000000000000000000000000000000000000000\n        /* \"#utility.yul\":2892:2893   */\n      0x00\n        /* \"#utility.yul\":2885:2973   */\n      mstore\n        /* \"#utility.yul\":2992:2996   */\n      0x22\n        /* \"#utility.yul\":2989:2990   */\n      0x04\n        /* \"#utility.yul\":2982:2997   */\n      mstore\n        /* \"#utility.yul\":3016:3020   */\n      0x24\n        /* \"#utility.yul\":3013:3014   */\n      0x00\n        /* \"#utility.yul\":3006:3021   */\n      revert\n        /* \"#utility.yul\":3033:3135   */\n    tag_35:\n        /* \"#utility.yul\":3074:3080   */\n      0x00\n        /* \"#utility.yul\":3125:3127   */\n      0x1f\n        /* \"#utility.yul\":3121:3128   */\n      not\n        /* \"#utility.yul\":3116:3118   */\n      0x1f\n        /* \"#utility.yul\":3109:3114   */\n      dup4\n        /* \"#utility.yul\":3105:3119   */\n      add\n        /* \"#utility.yul\":3101:3129   */\n      and\n        /* \"#utility.yul\":3091:3129   */\n      swap1\n      pop\n        /* \"#utility.yul\":3033:3135   */\n      swap2\n      swap1\n      pop\n      jump\t// out\n        /* \"#utility.yul\":3141:3310   */\n    tag_40:\n        /* \"#utility.yul\":3281:3302   */\n      0x66616c6c6261636b207761732063616c6c656400000000000000000000000000\n        /* \"#utility.yul\":3277:3278   */\n      0x00\n        /* \"#utility.yul\":3269:3275   */\n      dup3\n        /* \"#utility.yul\":3265:3279   */\n      add\n        /* \"#utility.yul\":3258:3303   */\n      mstore\n        /* \"#utility.yul\":3141:3310   */\n      pop\n      jump\t// out\n\n    auxdata: 0xa2646970667358221220a5f8808868655c77ab2e3b6affe6bae2b40282fe3eab83ccecb6b72bd958978164736f6c63430008070033\n}\n",
				"bytecode": {
					"linkReferences": {},
					"object": "608060405234801561001057600080fd5b50610341806100206000396000f3fe60806040526004361061002d5760003560e01c80630c55699c14610065578063e21f37ce146100905761002e565b5b7fcf34ef537ac33ee1ac626ca1587a0a7e8e51561e5514f8cb36afa1c5102b3bab60405161005b906101dc565b60405180910390a1005b34801561007157600080fd5b5061007a6100bb565b60405161008791906101fc565b60405180910390f35b34801561009c57600080fd5b506100a56100c1565b6040516100b291906101ba565b60405180910390f35b60015481565b600080546100ce90610270565b80601f01602080910402602001604051908101604052809291908181526020018280546100fa90610270565b80156101475780601f1061011c57610100808354040283529160200191610147565b820191906000526020600020905b81548152906001019060200180831161012a57829003601f168201915b505050505081565b600061015a82610217565b6101648185610222565b935061017481856020860161023d565b61017d816102d1565b840191505092915050565b6000610195601383610222565b91506101a0826102e2565b602082019050919050565b6101b481610233565b82525050565b600060208201905081810360008301526101d4818461014f565b905092915050565b600060208201905081810360008301526101f581610188565b9050919050565b600060208201905061021160008301846101ab565b92915050565b600081519050919050565b600082825260208201905092915050565b6000819050919050565b60005b8381101561025b578082015181840152602081019050610240565b8381111561026a576000848401525b50505050565b6000600282049050600182168061028857607f821691505b6020821081141561029c5761029b6102a2565b5b50919050565b7f4e487b7100000000000000000000000000000000000000000000000000000000600052602260045260246000fd5b6000601f19601f8301169050919050565b7f66616c6c6261636b207761732063616c6c65640000000000000000000000000060008201525056fea2646970667358221220a5f8808868655c77ab2e3b6affe6bae2b40282fe3eab83ccecb6b72bd958978164736f6c63430008070033",
					"opcodes": "PUSH1 0x80 PUSH1 0x40 MSTORE CALLVALUE DUP1 ISZERO PUSH2 0x10 JUMPI PUSH1 0x0 DUP1 REVERT JUMPDEST POP PUSH2 0x341 DUP1 PUSH2 0x20 PUSH1 0x0 CODECOPY PUSH1 0x0 RETURN INVALID PUSH1 0x80 PUSH1 0x40 MSTORE PUSH1 0x4 CALLDATASIZE LT PUSH2 0x2D JUMPI PUSH1 0x0 CALLDATALOAD PUSH1 0xE0 SHR DUP1 PUSH4 0xC55699C EQ PUSH2 0x65 JUMPI DUP1 PUSH4 0xE21F37CE EQ PUSH2 0x90 JUMPI PUSH2 0x2E JUMP JUMPDEST JUMPDEST PUSH32 0xCF34EF537AC33EE1AC626CA1587A0A7E8E51561E5514F8CB36AFA1C5102B3BAB PUSH1 0x40 MLOAD PUSH2 0x5B SWAP1 PUSH2 0x1DC JUMP JUMPDEST PUSH1 0x40 MLOAD DUP1 SWAP2 SUB SWAP1 LOG1 STOP JUMPDEST CALLVALUE DUP1 ISZERO PUSH2 0x71 JUMPI PUSH1 0x0 DUP1 REVERT JUMPDEST POP PUSH2 0x7A PUSH2 0xBB JUMP JUMPDEST PUSH1 0x40 MLOAD PUSH2 0x87 SWAP2 SWAP1 PUSH2 0x1FC JUMP JUMPDEST PUSH1 0x40 MLOAD DUP1 SWAP2 SUB SWAP1 RETURN JUMPDEST CALLVALUE DUP1 ISZERO PUSH2 0x9C JUMPI PUSH1 0x0 DUP1 REVERT JUMPDEST POP PUSH2 0xA5 PUSH2 0xC1 JUMP JUMPDEST PUSH1 0x40 MLOAD PUSH2 0xB2 SWAP2 SWAP1 PUSH2 0x1BA JUMP JUMPDEST PUSH1 0x40 MLOAD DUP1 SWAP2 SUB SWAP1 RETURN JUMPDEST PUSH1 0x1 SLOAD DUP2 JUMP JUMPDEST PUSH1 0x0 DUP1 SLOAD PUSH2 0xCE SWAP1 PUSH2 0x270 JUMP JUMPDEST DUP1 PUSH1 0x1F ADD PUSH1 0x20 DUP1 SWAP2 DIV MUL PUSH1 0x20 ADD PUSH1 0x40 MLOAD SWAP1 DUP2 ADD PUSH1 0x40 MSTORE DUP1 SWAP3 SWAP2 SWAP1 DUP2 DUP2 MSTORE PUSH1 0x20 ADD DUP3 DUP1 SLOAD PUSH2 0xFA SWAP1 PUSH2 0x270 JUMP JUMPDEST DUP1 ISZERO PUSH2 0x147 JUMPI DUP1 PUSH1 0x1F LT PUSH2 0x11C JUMPI PUSH2 0x100 DUP1 DUP4 SLOAD DIV MUL DUP4 MSTORE SWAP2 PUSH1 0x20 ADD SWAP2 PUSH2 0x147 JUMP JUMPDEST DUP3 ADD SWAP2 SWAP1 PUSH1 0x0 MSTORE PUSH1 0x20 PUSH1 0x0 KECCAK256 SWAP1 JUMPDEST DUP2 SLOAD DUP2 MSTORE SWAP1 PUSH1 0x1 ADD SWAP1 PUSH1 0x20 ADD DUP1 DUP4 GT PUSH2 0x12A JUMPI DUP3 SWAP1 SUB PUSH1 0x1F AND DUP3 ADD SWAP2 JUMPDEST POP POP POP POP POP DUP2 JUMP JUMPDEST PUSH1 0x0 PUSH2 0x15A DUP3 PUSH2 0x217 JUMP JUMPDEST PUSH2 0x164 DUP2 DUP6 PUSH2 0x222 JUMP JUMPDEST SWAP4 POP PUSH2 0x174 DUP2 DUP6 PUSH1 0x20 DUP7 ADD PUSH2 0x23D JUMP JUMPDEST PUSH2 0x17D DUP2 PUSH2 0x2D1 JUMP JUMPDEST DUP5 ADD SWAP2 POP POP SWAP3 SWAP2 POP POP JUMP JUMPDEST PUSH1 0x0 PUSH2 0x195 PUSH1 0x13 DUP4 PUSH2 0x222 JUMP JUMPDEST SWAP2 POP PUSH2 0x1A0 DUP3 PUSH2 0x2E2 JUMP JUMPDEST PUSH1 0x20 DUP3 ADD SWAP1 POP SWAP2 SWAP1 POP JUMP JUMPDEST PUSH2 0x1B4 DUP2 PUSH2 0x233 JUMP JUMPDEST DUP3 MSTORE POP POP JUMP JUMPDEST PUSH1 0x0 PUSH1 0x20 DUP3 ADD SWAP1 POP DUP2 DUP2 SUB PUSH1 0x0 DUP4 ADD MSTORE PUSH2 0x1D4 DUP2 DUP5 PUSH2 0x14F JUMP JUMPDEST SWAP1 POP SWAP3 SWAP2 POP POP JUMP JUMPDEST PUSH1 0x0 PUSH1 0x20 DUP3 ADD SWAP1 POP DUP2 DUP2 SUB PUSH1 0x0 DUP4 ADD MSTORE PUSH2 0x1F5 DUP2 PUSH2 0x188 JUMP JUMPDEST SWAP1 POP SWAP2 SWAP1 POP JUMP JUMPDEST PUSH1 0x0 PUSH1 0x20 DUP3 ADD SWAP1 POP PUSH2 0x211 PUSH1 0x0 DUP4 ADD DUP5 PUSH2 0x1AB JUMP JUMPDEST SWAP3 SWAP2 POP POP JUMP JUMPDEST PUSH1 0x0 DUP2 MLOAD SWAP1 POP SWAP2 SWAP1 POP JUMP JUMPDEST PUSH1 0x0 DUP3 DUP3 MSTORE PUSH1 0x20 DUP3 ADD SWAP1 POP SWAP3 SWAP2 POP POP JUMP JUMPDEST PUSH1 0x0 DUP2 SWAP1 POP SWAP2 SWAP1 POP JUMP JUMPDEST PUSH1 0x0 JUMPDEST DUP4 DUP2 LT ISZERO PUSH2 0x25B JUMPI DUP1 DUP3 ADD MLOAD DUP2 DUP5 ADD MSTORE PUSH1 0x20 DUP2 ADD SWAP1 POP PUSH2 0x240 JUMP JUMPDEST DUP4 DUP2 GT ISZERO PUSH2 0x26A JUMPI PUSH1 0x0 DUP5 DUP5 ADD MSTORE JUMPDEST POP POP POP POP JUMP JUMPDEST PUSH1 0x0 PUSH1 0x2 DUP3 DIV SWAP1 POP PUSH1 0x1 DUP3 AND DUP1 PUSH2 0x288 JUMPI PUSH1 0x7F DUP3 AND SWAP2 POP JUMPDEST PUSH1 0x20 DUP3 LT DUP2 EQ ISZERO PUSH2 0x29C JUMPI PUSH2 0x29B PUSH2 0x2A2 JUMP JUMPDEST JUMPDEST POP SWAP2 SWAP1 POP JUMP JUMPDEST PUSH32 0x4E487B7100000000000000000000000000000000000000000000000000000000 PUSH1 0x0 MSTORE PUSH1 0x22 PUSH1 0x4 MSTORE PUSH1 0x24 PUSH1 0x0 REVERT JUMPDEST PUSH1 0x0 PUSH1 0x1F NOT PUSH1 0x1F DUP4 ADD AND SWAP1 POP SWAP2 SWAP1 POP JUMP JUMPDEST PUSH32 0x66616C6C6261636B207761732063616C6C656400000000000000000000000000 PUSH1 0x0 DUP3 ADD MSTORE POP JUMP INVALID LOG2 PUSH5 0x6970667358 0x22 SLT KECCAK256 0xA5 0xF8 DUP1 DUP9 PUSH9 0x655C77AB2E3B6AFFE6 0xBA 0xE2 0xB4 MUL DUP3 INVALID RETURNDATACOPY 0xAB DUP4 0xCC 0xEC 0xB6 0xB7 0x2B 0xD9 PC SWAP8 DUP2 PUSH5 0x736F6C6343 STOP ADDMOD SMOD STOP CALLER "
				},
				"gasEstimates": {
					"creation": {
						"codeDepositCost": "166600",
						"executionCost": "214",
						"totalCost": "166814"
					},
					"external": {
						"": "1909",
						"message()": "infinite",
						"x()": "2407"
					}
				},
				"methodIdentifiers": {
					"message()": "e21f37ce",
					"x()": "0c55699c"
				}
			},
			"storageLayout": {
				"storage": [
					{
						"astId": 3,
						"contract": "42_Call.sol:TestCall",
						"label": "message",
						"offset": 0,
						"slot": "0",
						"type": "t_string_storage"
					},
					{
						"astId": 5,
						"contract": "42_Call.sol:TestCall",
						"label": "x",
						"offset": 0,
						"slot": "1",
						"type": "t_uint256"
					}
				],
				"types": {
					"t_string_storage": {
						"encoding": "bytes",
						"label": "string",
						"numberOfBytes": "32"
					},
					"t_uint256": {
						"encoding": "inplace",
						"label": "uint256",
						"numberOfBytes": "32"
					}
				}
			},
			"userdoc": {
				"kind": "user",
				"methods": {},
				"version": 1
			}
		}
	}
}