{
	"20_ArrayReplaceLast.sol": {
		"ArrayReplaceLast": {
			"abi": [
				{
					"inputs": [
						{
							"internalType": "uint256",
							"name": "",
							"type": "uint256"
						}
					],
					"name": "arr",
					"outputs": [
						{
							"internalType": "uint256",
							"name": "",
							"type": "uint256"
						}
					],
					"stateMutability": "view",
					"type": "function"
				},
				{
					"inputs": [
						{
							"internalType": "uint256",
							"name": "_index",
							"type": "uint256"
						}
					],
					"name": "remove",
					"outputs": [],
					"stateMutability": "nonpayable",
					"type": "function"
				},
				{
					"inputs": [],
					"name": "test",
					"outputs": [],
					"stateMutability": "nonpayable",
					"type": "function"
				}
			],
			"devdoc": {
				"kind": "dev",
				"methods": {},
				"version": 1
			},
			"evm": {
				"assembly": "    /* \"20_ArrayReplaceLast.sol\":66:551  contract ArrayReplaceLast {... */\n  mstore(0x40, 0x80)\n  callvalue\n  dup1\n  iszero\n  tag_1\n  jumpi\n  0x00\n  dup1\n  revert\ntag_1:\n  pop\n  dataSize(sub_0)\n  dup1\n  dataOffset(sub_0)\n  0x00\n  codecopy\n  0x00\n  return\nstop\n\nsub_0: assembly {\n        /* \"20_ArrayReplaceLast.sol\":66:551  contract ArrayReplaceLast {... */\n      mstore(0x40, 0x80)\n      callvalue\n      dup1\n      iszero\n      tag_1\n      jumpi\n      0x00\n      dup1\n      revert\n    tag_1:\n      pop\n      jumpi(tag_2, lt(calldatasize, 0x04))\n      shr(0xe0, calldataload(0x00))\n      dup1\n      0x4cc82215\n      eq\n      tag_3\n      jumpi\n      dup1\n      0x71e5ee5f\n      eq\n      tag_4\n      jumpi\n      dup1\n      0xf8a8fd6d\n      eq\n      tag_5\n      jumpi\n    tag_2:\n      0x00\n      dup1\n      revert\n        /* \"20_ArrayReplaceLast.sol\":122:228  function remove(uint _index) public {... */\n    tag_3:\n      tag_6\n      0x04\n      dup1\n      calldatasize\n      sub\n      dup2\n      add\n      swap1\n      tag_7\n      swap2\n      swap1\n      tag_8\n      jump\t// in\n    tag_7:\n      tag_9\n      jump\t// in\n    tag_6:\n      stop\n        /* \"20_ArrayReplaceLast.sol\":98:115  uint[] public arr */\n    tag_4:\n      tag_10\n      0x04\n      dup1\n      calldatasize\n      sub\n      dup2\n      add\n      swap1\n      tag_11\n      swap2\n      swap1\n      tag_8\n      jump\t// in\n    tag_11:\n      tag_12\n      jump\t// in\n    tag_10:\n      mload(0x40)\n      tag_13\n      swap2\n      swap1\n      tag_14\n      jump\t// in\n    tag_13:\n      mload(0x40)\n      dup1\n      swap2\n      sub\n      swap1\n      return\n        /* \"20_ArrayReplaceLast.sol\":234:549  function test() external {... */\n    tag_5:\n      tag_15\n      tag_16\n      jump\t// in\n    tag_15:\n      stop\n        /* \"20_ArrayReplaceLast.sol\":122:228  function remove(uint _index) public {... */\n    tag_9:\n        /* \"20_ArrayReplaceLast.sol\":182:185  arr */\n      0x00\n        /* \"20_ArrayReplaceLast.sol\":199:200  1 */\n      0x01\n        /* \"20_ArrayReplaceLast.sol\":186:189  arr */\n      0x00\n        /* \"20_ArrayReplaceLast.sol\":186:196  arr.length */\n      dup1\n      sload\n      swap1\n      pop\n        /* \"20_ArrayReplaceLast.sol\":186:200  arr.length - 1 */\n      tag_18\n      swap2\n      swap1\n      tag_19\n      jump\t// in\n    tag_18:\n        /* \"20_ArrayReplaceLast.sol\":182:201  arr[arr.length - 1] */\n      dup2\n      sload\n      dup2\n      lt\n      tag_20\n      jumpi\n      tag_21\n      tag_22\n      jump\t// in\n    tag_21:\n    tag_20:\n      swap1\n      0x00\n      mstore\n      keccak256(0x00, 0x20)\n      add\n      sload\n        /* \"20_ArrayReplaceLast.sol\":168:171  arr */\n      0x00\n        /* \"20_ArrayReplaceLast.sol\":172:178  _index */\n      dup3\n        /* \"20_ArrayReplaceLast.sol\":168:179  arr[_index] */\n      dup2\n      sload\n      dup2\n      lt\n      tag_24\n      jumpi\n      tag_25\n      tag_22\n      jump\t// in\n    tag_25:\n    tag_24:\n      swap1\n      0x00\n      mstore\n      keccak256(0x00, 0x20)\n      add\n        /* \"20_ArrayReplaceLast.sol\":168:201  arr[_index] = arr[arr.length - 1] */\n      dup2\n      swap1\n      sstore\n      pop\n        /* \"20_ArrayReplaceLast.sol\":211:214  arr */\n      0x00\n        /* \"20_ArrayReplaceLast.sol\":211:220  arr.pop() */\n      dup1\n      sload\n      dup1\n      tag_27\n      jumpi\n      tag_28\n      tag_29\n      jump\t// in\n    tag_28:\n    tag_27:\n      0x01\n      swap1\n      sub\n      dup2\n      dup2\n      swap1\n      0x00\n      mstore\n      keccak256(0x00, 0x20)\n      add\n      0x00\n      swap1\n      sstore\n      swap1\n      sstore\n        /* \"20_ArrayReplaceLast.sol\":122:228  function remove(uint _index) public {... */\n      pop\n      jump\t// out\n        /* \"20_ArrayReplaceLast.sol\":98:115  uint[] public arr */\n    tag_12:\n      0x00\n      dup2\n      dup2\n      sload\n      dup2\n      lt\n      tag_31\n      jumpi\n      0x00\n      dup1\n      revert\n    tag_31:\n      swap1\n      0x00\n      mstore\n      keccak256(0x00, 0x20)\n      add\n      0x00\n      swap2\n      pop\n      swap1\n      pop\n      sload\n      dup2\n      jump\t// out\n        /* \"20_ArrayReplaceLast.sol\":234:549  function test() external {... */\n    tag_16:\n        /* \"20_ArrayReplaceLast.sol\":269:287  arr = [1, 2, 3, 4] */\n      mload(0x40)\n      dup1\n      0x80\n      add\n      0x40\n      mstore\n      dup1\n        /* \"20_ArrayReplaceLast.sol\":276:277  1 */\n      0x01\n        /* \"20_ArrayReplaceLast.sol\":269:287  arr = [1, 2, 3, 4] */\n      0xff\n      and\n      dup2\n      mstore\n      0x20\n      add\n        /* \"20_ArrayReplaceLast.sol\":279:280  2 */\n      0x02\n        /* \"20_ArrayReplaceLast.sol\":269:287  arr = [1, 2, 3, 4] */\n      0xff\n      and\n      dup2\n      mstore\n      0x20\n      add\n        /* \"20_ArrayReplaceLast.sol\":282:283  3 */\n      0x03\n        /* \"20_ArrayReplaceLast.sol\":269:287  arr = [1, 2, 3, 4] */\n      0xff\n      and\n      dup2\n      mstore\n      0x20\n      add\n        /* \"20_ArrayReplaceLast.sol\":285:286  4 */\n      0x04\n        /* \"20_ArrayReplaceLast.sol\":269:287  arr = [1, 2, 3, 4] */\n      0xff\n      and\n      dup2\n      mstore\n      pop\n        /* \"20_ArrayReplaceLast.sol\":269:272  arr */\n      0x00\n        /* \"20_ArrayReplaceLast.sol\":269:287  arr = [1, 2, 3, 4] */\n      swap1\n      0x04\n      tag_34\n      swap3\n      swap2\n      swap1\n      tag_35\n      jump\t// in\n    tag_34:\n      pop\n        /* \"20_ArrayReplaceLast.sol\":298:307  remove(1) */\n      tag_36\n        /* \"20_ArrayReplaceLast.sol\":305:306  1 */\n      0x01\n        /* \"20_ArrayReplaceLast.sol\":298:304  remove */\n      tag_9\n        /* \"20_ArrayReplaceLast.sol\":298:307  remove(1) */\n      jump\t// in\n    tag_36:\n        /* \"20_ArrayReplaceLast.sol\":339:340  3 */\n      0x03\n        /* \"20_ArrayReplaceLast.sol\":325:328  arr */\n      0x00\n        /* \"20_ArrayReplaceLast.sol\":325:335  arr.length */\n      dup1\n      sload\n      swap1\n      pop\n        /* \"20_ArrayReplaceLast.sol\":325:340  arr.length == 3 */\n      eq\n        /* \"20_ArrayReplaceLast.sol\":318:341  assert(arr.length == 3) */\n      tag_37\n      jumpi\n      tag_38\n      tag_39\n      jump\t// in\n    tag_38:\n    tag_37:\n        /* \"20_ArrayReplaceLast.sol\":368:369  1 */\n      0x01\n        /* \"20_ArrayReplaceLast.sol\":358:361  arr */\n      0x00\n        /* \"20_ArrayReplaceLast.sol\":362:363  0 */\n      dup1\n        /* \"20_ArrayReplaceLast.sol\":358:364  arr[0] */\n      dup2\n      sload\n      dup2\n      lt\n      tag_40\n      jumpi\n      tag_41\n      tag_22\n      jump\t// in\n    tag_41:\n    tag_40:\n      swap1\n      0x00\n      mstore\n      keccak256(0x00, 0x20)\n      add\n      sload\n        /* \"20_ArrayReplaceLast.sol\":358:369  arr[0] == 1 */\n      eq\n        /* \"20_ArrayReplaceLast.sol\":351:370  assert(arr[0] == 1) */\n      tag_43\n      jumpi\n      tag_44\n      tag_39\n      jump\t// in\n    tag_44:\n    tag_43:\n        /* \"20_ArrayReplaceLast.sol\":397:398  4 */\n      0x04\n        /* \"20_ArrayReplaceLast.sol\":387:390  arr */\n      0x00\n        /* \"20_ArrayReplaceLast.sol\":391:392  1 */\n      0x01\n        /* \"20_ArrayReplaceLast.sol\":387:393  arr[1] */\n      dup2\n      sload\n      dup2\n      lt\n      tag_45\n      jumpi\n      tag_46\n      tag_22\n      jump\t// in\n    tag_46:\n    tag_45:\n      swap1\n      0x00\n      mstore\n      keccak256(0x00, 0x20)\n      add\n      sload\n        /* \"20_ArrayReplaceLast.sol\":387:398  arr[1] == 4 */\n      eq\n        /* \"20_ArrayReplaceLast.sol\":380:399  assert(arr[1] == 4) */\n      tag_48\n      jumpi\n      tag_49\n      tag_39\n      jump\t// in\n    tag_49:\n    tag_48:\n        /* \"20_ArrayReplaceLast.sol\":426:427  3 */\n      0x03\n        /* \"20_ArrayReplaceLast.sol\":416:419  arr */\n      0x00\n        /* \"20_ArrayReplaceLast.sol\":420:421  2 */\n      0x02\n        /* \"20_ArrayReplaceLast.sol\":416:422  arr[2] */\n      dup2\n      sload\n      dup2\n      lt\n      tag_50\n      jumpi\n      tag_51\n      tag_22\n      jump\t// in\n    tag_51:\n    tag_50:\n      swap1\n      0x00\n      mstore\n      keccak256(0x00, 0x20)\n      add\n      sload\n        /* \"20_ArrayReplaceLast.sol\":416:427  arr[2] == 3 */\n      eq\n        /* \"20_ArrayReplaceLast.sol\":409:428  assert(arr[2] == 3) */\n      tag_53\n      jumpi\n      tag_54\n      tag_39\n      jump\t// in\n    tag_54:\n    tag_53:\n        /* \"20_ArrayReplaceLast.sol\":439:448  remove(2) */\n      tag_55\n        /* \"20_ArrayReplaceLast.sol\":446:447  2 */\n      0x02\n        /* \"20_ArrayReplaceLast.sol\":439:445  remove */\n      tag_9\n        /* \"20_ArrayReplaceLast.sol\":439:448  remove(2) */\n      jump\t// in\n    tag_55:\n        /* \"20_ArrayReplaceLast.sol\":479:480  2 */\n      0x02\n        /* \"20_ArrayReplaceLast.sol\":465:468  arr */\n      0x00\n        /* \"20_ArrayReplaceLast.sol\":465:475  arr.length */\n      dup1\n      sload\n      swap1\n      pop\n        /* \"20_ArrayReplaceLast.sol\":465:480  arr.length == 2 */\n      eq\n        /* \"20_ArrayReplaceLast.sol\":458:481  assert(arr.length == 2) */\n      tag_56\n      jumpi\n      tag_57\n      tag_39\n      jump\t// in\n    tag_57:\n    tag_56:\n        /* \"20_ArrayReplaceLast.sol\":508:509  1 */\n      0x01\n        /* \"20_ArrayReplaceLast.sol\":498:501  arr */\n      0x00\n        /* \"20_ArrayReplaceLast.sol\":502:503  0 */\n      dup1\n        /* \"20_ArrayReplaceLast.sol\":498:504  arr[0] */\n      dup2\n      sload\n      dup2\n      lt\n      tag_58\n      jumpi\n      tag_59\n      tag_22\n      jump\t// in\n    tag_59:\n    tag_58:\n      swap1\n      0x00\n      mstore\n      keccak256(0x00, 0x20)\n      add\n      sload\n        /* \"20_ArrayReplaceLast.sol\":498:509  arr[0] == 1 */\n      eq\n        /* \"20_ArrayReplaceLast.sol\":491:510  assert(arr[0] == 1) */\n      tag_61\n      jumpi\n      tag_62\n      tag_39\n      jump\t// in\n    tag_62:\n    tag_61:\n        /* \"20_ArrayReplaceLast.sol\":537:538  4 */\n      0x04\n        /* \"20_ArrayReplaceLast.sol\":527:530  arr */\n      0x00\n        /* \"20_ArrayReplaceLast.sol\":531:532  1 */\n      0x01\n        /* \"20_ArrayReplaceLast.sol\":527:533  arr[1] */\n      dup2\n      sload\n      dup2\n      lt\n      tag_63\n      jumpi\n      tag_64\n      tag_22\n      jump\t// in\n    tag_64:\n    tag_63:\n      swap1\n      0x00\n      mstore\n      keccak256(0x00, 0x20)\n      add\n      sload\n        /* \"20_ArrayReplaceLast.sol\":527:538  arr[1] == 4 */\n      eq\n        /* \"20_ArrayReplaceLast.sol\":520:539  assert(arr[1] == 4) */\n      tag_66\n      jumpi\n      tag_67\n      tag_39\n      jump\t// in\n    tag_67:\n    tag_66:\n        /* \"20_ArrayReplaceLast.sol\":234:549  function test() external {... */\n      jump\t// out\n    tag_35:\n      dup3\n      dup1\n      sload\n      dup3\n      dup3\n      sstore\n      swap1\n      0x00\n      mstore\n      keccak256(0x00, 0x20)\n      swap1\n      dup2\n      add\n      swap3\n      dup3\n      iszero\n      tag_68\n      jumpi\n      swap2\n      0x20\n      mul\n      dup3\n      add\n    tag_69:\n      dup3\n      dup2\n      gt\n      iszero\n      tag_70\n      jumpi\n      dup3\n      mload\n      dup3\n      swap1\n      0xff\n      and\n      swap1\n      sstore\n      swap2\n      0x20\n      add\n      swap2\n      swap1\n      0x01\n      add\n      swap1\n      jump(tag_69)\n    tag_70:\n    tag_68:\n      pop\n      swap1\n      pop\n      tag_71\n      swap2\n      swap1\n      tag_72\n      jump\t// in\n    tag_71:\n      pop\n      swap1\n      jump\t// out\n    tag_72:\n    tag_73:\n      dup1\n      dup3\n      gt\n      iszero\n      tag_74\n      jumpi\n      0x00\n      dup2\n      0x00\n      swap1\n      sstore\n      pop\n      0x01\n      add\n      jump(tag_73)\n    tag_74:\n      pop\n      swap1\n      jump\t// out\n        /* \"#utility.yul\":7:146   */\n    tag_76:\n        /* \"#utility.yul\":53:58   */\n      0x00\n        /* \"#utility.yul\":91:97   */\n      dup2\n        /* \"#utility.yul\":78:98   */\n      calldataload\n        /* \"#utility.yul\":69:98   */\n      swap1\n      pop\n        /* \"#utility.yul\":107:140   */\n      tag_78\n        /* \"#utility.yul\":134:139   */\n      dup2\n        /* \"#utility.yul\":107:140   */\n      tag_79\n      jump\t// in\n    tag_78:\n        /* \"#utility.yul\":7:146   */\n      swap3\n      swap2\n      pop\n      pop\n      jump\t// out\n        /* \"#utility.yul\":152:481   */\n    tag_8:\n        /* \"#utility.yul\":211:217   */\n      0x00\n        /* \"#utility.yul\":260:262   */\n      0x20\n        /* \"#utility.yul\":248:257   */\n      dup3\n        /* \"#utility.yul\":239:246   */\n      dup5\n        /* \"#utility.yul\":235:258   */\n      sub\n        /* \"#utility.yul\":231:263   */\n      slt\n        /* \"#utility.yul\":228:347   */\n      iszero\n      tag_81\n      jumpi\n        /* \"#utility.yul\":266:345   */\n      tag_82\n      tag_83\n      jump\t// in\n    tag_82:\n        /* \"#utility.yul\":228:347   */\n    tag_81:\n        /* \"#utility.yul\":386:387   */\n      0x00\n        /* \"#utility.yul\":411:464   */\n      tag_84\n        /* \"#utility.yul\":456:463   */\n      dup5\n        /* \"#utility.yul\":447:453   */\n      dup3\n        /* \"#utility.yul\":436:445   */\n      dup6\n        /* \"#utility.yul\":432:454   */\n      add\n        /* \"#utility.yul\":411:464   */\n      tag_76\n      jump\t// in\n    tag_84:\n        /* \"#utility.yul\":401:464   */\n      swap2\n      pop\n        /* \"#utility.yul\":357:474   */\n      pop\n        /* \"#utility.yul\":152:481   */\n      swap3\n      swap2\n      pop\n      pop\n      jump\t// out\n        /* \"#utility.yul\":487:605   */\n    tag_85:\n        /* \"#utility.yul\":574:598   */\n      tag_87\n        /* \"#utility.yul\":592:597   */\n      dup2\n        /* \"#utility.yul\":574:598   */\n      tag_88\n      jump\t// in\n    tag_87:\n        /* \"#utility.yul\":569:572   */\n      dup3\n        /* \"#utility.yul\":562:599   */\n      mstore\n        /* \"#utility.yul\":487:605   */\n      pop\n      pop\n      jump\t// out\n        /* \"#utility.yul\":611:833   */\n    tag_14:\n        /* \"#utility.yul\":704:708   */\n      0x00\n        /* \"#utility.yul\":742:744   */\n      0x20\n        /* \"#utility.yul\":731:740   */\n      dup3\n        /* \"#utility.yul\":727:745   */\n      add\n        /* \"#utility.yul\":719:745   */\n      swap1\n      pop\n        /* \"#utility.yul\":755:826   */\n      tag_90\n        /* \"#utility.yul\":823:824   */\n      0x00\n        /* \"#utility.yul\":812:821   */\n      dup4\n        /* \"#utility.yul\":808:825   */\n      add\n        /* \"#utility.yul\":799:805   */\n      dup5\n        /* \"#utility.yul\":755:826   */\n      tag_85\n      jump\t// in\n    tag_90:\n        /* \"#utility.yul\":611:833   */\n      swap3\n      swap2\n      pop\n      pop\n      jump\t// out\n        /* \"#utility.yul\":920:1111   */\n    tag_19:\n        /* \"#utility.yul\":960:964   */\n      0x00\n        /* \"#utility.yul\":980:1000   */\n      tag_94\n        /* \"#utility.yul\":998:999   */\n      dup3\n        /* \"#utility.yul\":980:1000   */\n      tag_88\n      jump\t// in\n    tag_94:\n        /* \"#utility.yul\":975:1000   */\n      swap2\n      pop\n        /* \"#utility.yul\":1014:1034   */\n      tag_95\n        /* \"#utility.yul\":1032:1033   */\n      dup4\n        /* \"#utility.yul\":1014:1034   */\n      tag_88\n      jump\t// in\n    tag_95:\n        /* \"#utility.yul\":1009:1034   */\n      swap3\n      pop\n        /* \"#utility.yul\":1053:1054   */\n      dup3\n        /* \"#utility.yul\":1050:1051   */\n      dup3\n        /* \"#utility.yul\":1047:1055   */\n      lt\n        /* \"#utility.yul\":1044:1078   */\n      iszero\n      tag_96\n      jumpi\n        /* \"#utility.yul\":1058:1076   */\n      tag_97\n      tag_98\n      jump\t// in\n    tag_97:\n        /* \"#utility.yul\":1044:1078   */\n    tag_96:\n        /* \"#utility.yul\":1103:1104   */\n      dup3\n        /* \"#utility.yul\":1100:1101   */\n      dup3\n        /* \"#utility.yul\":1096:1105   */\n      sub\n        /* \"#utility.yul\":1088:1105   */\n      swap1\n      pop\n        /* \"#utility.yul\":920:1111   */\n      swap3\n      swap2\n      pop\n      pop\n      jump\t// out\n        /* \"#utility.yul\":1117:1194   */\n    tag_88:\n        /* \"#utility.yul\":1154:1161   */\n      0x00\n        /* \"#utility.yul\":1183:1188   */\n      dup2\n        /* \"#utility.yul\":1172:1188   */\n      swap1\n      pop\n        /* \"#utility.yul\":1117:1194   */\n      swap2\n      swap1\n      pop\n      jump\t// out\n        /* \"#utility.yul\":1200:1380   */\n    tag_39:\n        /* \"#utility.yul\":1248:1325   */\n      0x4e487b7100000000000000000000000000000000000000000000000000000000\n        /* \"#utility.yul\":1245:1246   */\n      0x00\n        /* \"#utility.yul\":1238:1326   */\n      mstore\n        /* \"#utility.yul\":1345:1349   */\n      0x01\n        /* \"#utility.yul\":1342:1343   */\n      0x04\n        /* \"#utility.yul\":1335:1350   */\n      mstore\n        /* \"#utility.yul\":1369:1373   */\n      0x24\n        /* \"#utility.yul\":1366:1367   */\n      0x00\n        /* \"#utility.yul\":1359:1374   */\n      revert\n        /* \"#utility.yul\":1386:1566   */\n    tag_98:\n        /* \"#utility.yul\":1434:1511   */\n      0x4e487b7100000000000000000000000000000000000000000000000000000000\n        /* \"#utility.yul\":1431:1432   */\n      0x00\n        /* \"#utility.yul\":1424:1512   */\n      mstore\n        /* \"#utility.yul\":1531:1535   */\n      0x11\n        /* \"#utility.yul\":1528:1529   */\n      0x04\n        /* \"#utility.yul\":1521:1536   */\n      mstore\n        /* \"#utility.yul\":1555:1559   */\n      0x24\n        /* \"#utility.yul\":1552:1553   */\n      0x00\n        /* \"#utility.yul\":1545:1560   */\n      revert\n        /* \"#utility.yul\":1572:1752   */\n    tag_29:\n        /* \"#utility.yul\":1620:1697   */\n      0x4e487b7100000000000000000000000000000000000000000000000000000000\n        /* \"#utility.yul\":1617:1618   */\n      0x00\n        /* \"#utility.yul\":1610:1698   */\n      mstore\n        /* \"#utility.yul\":1717:1721   */\n      0x31\n        /* \"#utility.yul\":1714:1715   */\n      0x04\n        /* \"#utility.yul\":1707:1722   */\n      mstore\n        /* \"#utility.yul\":1741:1745   */\n      0x24\n        /* \"#utility.yul\":1738:1739   */\n      0x00\n        /* \"#utility.yul\":1731:1746   */\n      revert\n        /* \"#utility.yul\":1758:1938   */\n    tag_22:\n        /* \"#utility.yul\":1806:1883   */\n      0x4e487b7100000000000000000000000000000000000000000000000000000000\n        /* \"#utility.yul\":1803:1804   */\n      0x00\n        /* \"#utility.yul\":1796:1884   */\n      mstore\n        /* \"#utility.yul\":1903:1907   */\n      0x32\n        /* \"#utility.yul\":1900:1901   */\n      0x04\n        /* \"#utility.yul\":1893:1908   */\n      mstore\n        /* \"#utility.yul\":1927:1931   */\n      0x24\n        /* \"#utility.yul\":1924:1925   */\n      0x00\n        /* \"#utility.yul\":1917:1932   */\n      revert\n        /* \"#utility.yul\":2067:2184   */\n    tag_83:\n        /* \"#utility.yul\":2176:2177   */\n      0x00\n        /* \"#utility.yul\":2173:2174   */\n      dup1\n        /* \"#utility.yul\":2166:2178   */\n      revert\n        /* \"#utility.yul\":2190:2312   */\n    tag_79:\n        /* \"#utility.yul\":2263:2287   */\n      tag_108\n        /* \"#utility.yul\":2281:2286   */\n      dup2\n        /* \"#utility.yul\":2263:2287   */\n      tag_88\n      jump\t// in\n    tag_108:\n        /* \"#utility.yul\":2256:2261   */\n      dup2\n        /* \"#utility.yul\":2253:2288   */\n      eq\n        /* \"#utility.yul\":2243:2306   */\n      tag_109\n      jumpi\n        /* \"#utility.yul\":2302:2303   */\n      0x00\n        /* \"#utility.yul\":2299:2300   */\n      dup1\n        /* \"#utility.yul\":2292:2304   */\n      revert\n        /* \"#utility.yul\":2243:2306   */\n    tag_109:\n        /* \"#utility.yul\":2190:2312   */\n      pop\n      jump\t// out\n\n    auxdata: 0xa2646970667358221220e03ddfb673aae590f7169d92efbd6438066d55cc8327e292b4af9659d4963d2364736f6c63430008070033\n}\n",
				"bytecode": {
					"linkReferences": {},
					"object": "608060405234801561001057600080fd5b506104d6806100206000396000f3fe608060405234801561001057600080fd5b50600436106100415760003560e01c80634cc822151461004657806371e5ee5f14610062578063f8a8fd6d14610092575b600080fd5b610060600480360381019061005b9190610333565b61009c565b005b61007c60048036038101906100779190610333565b610119565b604051610089919061036f565b60405180910390f35b61009a61013d565b005b600060016000805490506100b0919061038a565b815481106100c1576100c0610455565b5b9060005260206000200154600082815481106100e0576100df610455565b5b90600052602060002001819055506000805480610100576100ff610426565b5b6001900381819060005260206000200160009055905550565b6000818154811061012957600080fd5b906000526020600020016000915090505481565b6040518060800160405280600160ff168152602001600260ff168152602001600360ff168152602001600460ff16815250600090600461017e9291906102af565b50610189600161009c565b60036000805490501461019f5761019e6103c8565b5b6001600080815481106101b5576101b4610455565b5b9060005260206000200154146101ce576101cd6103c8565b5b600460006001815481106101e5576101e4610455565b5b9060005260206000200154146101fe576101fd6103c8565b5b6003600060028154811061021557610214610455565b5b90600052602060002001541461022e5761022d6103c8565b5b610238600261009c565b60026000805490501461024e5761024d6103c8565b5b60016000808154811061026457610263610455565b5b90600052602060002001541461027d5761027c6103c8565b5b6004600060018154811061029457610293610455565b5b9060005260206000200154146102ad576102ac6103c8565b5b565b8280548282559060005260206000209081019282156102f0579160200282015b828111156102ef578251829060ff169055916020019190600101906102cf565b5b5090506102fd9190610301565b5090565b5b8082111561031a576000816000905550600101610302565b5090565b60008135905061032d81610489565b92915050565b60006020828403121561034957610348610484565b5b60006103578482850161031e565b91505092915050565b610369816103be565b82525050565b60006020820190506103846000830184610360565b92915050565b6000610395826103be565b91506103a0836103be565b9250828210156103b3576103b26103f7565b5b828203905092915050565b6000819050919050565b7f4e487b7100000000000000000000000000000000000000000000000000000000600052600160045260246000fd5b7f4e487b7100000000000000000000000000000000000000000000000000000000600052601160045260246000fd5b7f4e487b7100000000000000000000000000000000000000000000000000000000600052603160045260246000fd5b7f4e487b7100000000000000000000000000000000000000000000000000000000600052603260045260246000fd5b600080fd5b610492816103be565b811461049d57600080fd5b5056fea2646970667358221220e03ddfb673aae590f7169d92efbd6438066d55cc8327e292b4af9659d4963d2364736f6c63430008070033",
					"opcodes": "PUSH1 0x80 PUSH1 0x40 MSTORE CALLVALUE DUP1 ISZERO PUSH2 0x10 JUMPI PUSH1 0x0 DUP1 REVERT JUMPDEST POP PUSH2 0x4D6 DUP1 PUSH2 0x20 PUSH1 0x0 CODECOPY PUSH1 0x0 RETURN INVALID PUSH1 0x80 PUSH1 0x40 MSTORE CALLVALUE DUP1 ISZERO PUSH2 0x10 JUMPI PUSH1 0x0 DUP1 REVERT JUMPDEST POP PUSH1 0x4 CALLDATASIZE LT PUSH2 0x41 JUMPI PUSH1 0x0 CALLDATALOAD PUSH1 0xE0 SHR DUP1 PUSH4 0x4CC82215 EQ PUSH2 0x46 JUMPI DUP1 PUSH4 0x71E5EE5F EQ PUSH2 0x62 JUMPI DUP1 PUSH4 0xF8A8FD6D EQ PUSH2 0x92 JUMPI JUMPDEST PUSH1 0x0 DUP1 REVERT JUMPDEST PUSH2 0x60 PUSH1 0x4 DUP1 CALLDATASIZE SUB DUP2 ADD SWAP1 PUSH2 0x5B SWAP2 SWAP1 PUSH2 0x333 JUMP JUMPDEST PUSH2 0x9C JUMP JUMPDEST STOP JUMPDEST PUSH2 0x7C PUSH1 0x4 DUP1 CALLDATASIZE SUB DUP2 ADD SWAP1 PUSH2 0x77 SWAP2 SWAP1 PUSH2 0x333 JUMP JUMPDEST PUSH2 0x119 JUMP JUMPDEST PUSH1 0x40 MLOAD PUSH2 0x89 SWAP2 SWAP1 PUSH2 0x36F JUMP JUMPDEST PUSH1 0x40 MLOAD DUP1 SWAP2 SUB SWAP1 RETURN JUMPDEST PUSH2 0x9A PUSH2 0x13D JUMP JUMPDEST STOP JUMPDEST PUSH1 0x0 PUSH1 0x1 PUSH1 0x0 DUP1 SLOAD SWAP1 POP PUSH2 0xB0 SWAP2 SWAP1 PUSH2 0x38A JUMP JUMPDEST DUP2 SLOAD DUP2 LT PUSH2 0xC1 JUMPI PUSH2 0xC0 PUSH2 0x455 JUMP JUMPDEST JUMPDEST SWAP1 PUSH1 0x0 MSTORE PUSH1 0x20 PUSH1 0x0 KECCAK256 ADD SLOAD PUSH1 0x0 DUP3 DUP2 SLOAD DUP2 LT PUSH2 0xE0 JUMPI PUSH2 0xDF PUSH2 0x455 JUMP JUMPDEST JUMPDEST SWAP1 PUSH1 0x0 MSTORE PUSH1 0x20 PUSH1 0x0 KECCAK256 ADD DUP2 SWAP1 SSTORE POP PUSH1 0x0 DUP1 SLOAD DUP1 PUSH2 0x100 JUMPI PUSH2 0xFF PUSH2 0x426 JUMP JUMPDEST JUMPDEST PUSH1 0x1 SWAP1 SUB DUP2 DUP2 SWAP1 PUSH1 0x0 MSTORE PUSH1 0x20 PUSH1 0x0 KECCAK256 ADD PUSH1 0x0 SWAP1 SSTORE SWAP1 SSTORE POP JUMP JUMPDEST PUSH1 0x0 DUP2 DUP2 SLOAD DUP2 LT PUSH2 0x129 JUMPI PUSH1 0x0 DUP1 REVERT JUMPDEST SWAP1 PUSH1 0x0 MSTORE PUSH1 0x20 PUSH1 0x0 KECCAK256 ADD PUSH1 0x0 SWAP2 POP SWAP1 POP SLOAD DUP2 JUMP JUMPDEST PUSH1 0x40 MLOAD DUP1 PUSH1 0x80 ADD PUSH1 0x40 MSTORE DUP1 PUSH1 0x1 PUSH1 0xFF AND DUP2 MSTORE PUSH1 0x20 ADD PUSH1 0x2 PUSH1 0xFF AND DUP2 MSTORE PUSH1 0x20 ADD PUSH1 0x3 PUSH1 0xFF AND DUP2 MSTORE PUSH1 0x20 ADD PUSH1 0x4 PUSH1 0xFF AND DUP2 MSTORE POP PUSH1 0x0 SWAP1 PUSH1 0x4 PUSH2 0x17E SWAP3 SWAP2 SWAP1 PUSH2 0x2AF JUMP JUMPDEST POP PUSH2 0x189 PUSH1 0x1 PUSH2 0x9C JUMP JUMPDEST PUSH1 0x3 PUSH1 0x0 DUP1 SLOAD SWAP1 POP EQ PUSH2 0x19F JUMPI PUSH2 0x19E PUSH2 0x3C8 JUMP JUMPDEST JUMPDEST PUSH1 0x1 PUSH1 0x0 DUP1 DUP2 SLOAD DUP2 LT PUSH2 0x1B5 JUMPI PUSH2 0x1B4 PUSH2 0x455 JUMP JUMPDEST JUMPDEST SWAP1 PUSH1 0x0 MSTORE PUSH1 0x20 PUSH1 0x0 KECCAK256 ADD SLOAD EQ PUSH2 0x1CE JUMPI PUSH2 0x1CD PUSH2 0x3C8 JUMP JUMPDEST JUMPDEST PUSH1 0x4 PUSH1 0x0 PUSH1 0x1 DUP2 SLOAD DUP2 LT PUSH2 0x1E5 JUMPI PUSH2 0x1E4 PUSH2 0x455 JUMP JUMPDEST JUMPDEST SWAP1 PUSH1 0x0 MSTORE PUSH1 0x20 PUSH1 0x0 KECCAK256 ADD SLOAD EQ PUSH2 0x1FE JUMPI PUSH2 0x1FD PUSH2 0x3C8 JUMP JUMPDEST JUMPDEST PUSH1 0x3 PUSH1 0x0 PUSH1 0x2 DUP2 SLOAD DUP2 LT PUSH2 0x215 JUMPI PUSH2 0x214 PUSH2 0x455 JUMP JUMPDEST JUMPDEST SWAP1 PUSH1 0x0 MSTORE PUSH1 0x20 PUSH1 0x0 KECCAK256 ADD SLOAD EQ PUSH2 0x22E JUMPI PUSH2 0x22D PUSH2 0x3C8 JUMP JUMPDEST JUMPDEST PUSH2 0x238 PUSH1 0x2 PUSH2 0x9C JUMP JUMPDEST PUSH1 0x2 PUSH1 0x0 DUP1 SLOAD SWAP1 POP EQ PUSH2 0x24E JUMPI PUSH2 0x24D PUSH2 0x3C8 JUMP JUMPDEST JUMPDEST PUSH1 0x1 PUSH1 0x0 DUP1 DUP2 SLOAD DUP2 LT PUSH2 0x264 JUMPI PUSH2 0x263 PUSH2 0x455 JUMP JUMPDEST JUMPDEST SWAP1 PUSH1 0x0 MSTORE PUSH1 0x20 PUSH1 0x0 KECCAK256 ADD SLOAD EQ PUSH2 0x27D JUMPI PUSH2 0x27C PUSH2 0x3C8 JUMP JUMPDEST JUMPDEST PUSH1 0x4 PUSH1 0x0 PUSH1 0x1 DUP2 SLOAD DUP2 LT PUSH2 0x294 JUMPI PUSH2 0x293 PUSH2 0x455 JUMP JUMPDEST JUMPDEST SWAP1 PUSH1 0x0 MSTORE PUSH1 0x20 PUSH1 0x0 KECCAK256 ADD SLOAD EQ PUSH2 0x2AD JUMPI PUSH2 0x2AC PUSH2 0x3C8 JUMP JUMPDEST JUMPDEST JUMP JUMPDEST DUP3 DUP1 SLOAD DUP3 DUP3 SSTORE SWAP1 PUSH1 0x0 MSTORE PUSH1 0x20 PUSH1 0x0 KECCAK256 SWAP1 DUP2 ADD SWAP3 DUP3 ISZERO PUSH2 0x2F0 JUMPI SWAP2 PUSH1 0x20 MUL DUP3 ADD JUMPDEST DUP3 DUP2 GT ISZERO PUSH2 0x2EF JUMPI DUP3 MLOAD DUP3 SWAP1 PUSH1 0xFF AND SWAP1 SSTORE SWAP2 PUSH1 0x20 ADD SWAP2 SWAP1 PUSH1 0x1 ADD SWAP1 PUSH2 0x2CF JUMP JUMPDEST JUMPDEST POP SWAP1 POP PUSH2 0x2FD SWAP2 SWAP1 PUSH2 0x301 JUMP JUMPDEST POP SWAP1 JUMP JUMPDEST JUMPDEST DUP1 DUP3 GT ISZERO PUSH2 0x31A JUMPI PUSH1 0x0 DUP2 PUSH1 0x0 SWAP1 SSTORE POP PUSH1 0x1 ADD PUSH2 0x302 JUMP JUMPDEST POP SWAP1 JUMP JUMPDEST PUSH1 0x0 DUP2 CALLDATALOAD SWAP1 POP PUSH2 0x32D DUP2 PUSH2 0x489 JUMP JUMPDEST SWAP3 SWAP2 POP POP JUMP JUMPDEST PUSH1 0x0 PUSH1 0x20 DUP3 DUP5 SUB SLT ISZERO PUSH2 0x349 JUMPI PUSH2 0x348 PUSH2 0x484 JUMP JUMPDEST JUMPDEST PUSH1 0x0 PUSH2 0x357 DUP5 DUP3 DUP6 ADD PUSH2 0x31E JUMP JUMPDEST SWAP2 POP POP SWAP3 SWAP2 POP POP JUMP JUMPDEST PUSH2 0x369 DUP2 PUSH2 0x3BE JUMP JUMPDEST DUP3 MSTORE POP POP JUMP JUMPDEST PUSH1 0x0 PUSH1 0x20 DUP3 ADD SWAP1 POP PUSH2 0x384 PUSH1 0x0 DUP4 ADD DUP5 PUSH2 0x360 JUMP JUMPDEST SWAP3 SWAP2 POP POP JUMP JUMPDEST PUSH1 0x0 PUSH2 0x395 DUP3 PUSH2 0x3BE JUMP JUMPDEST SWAP2 POP PUSH2 0x3A0 DUP4 PUSH2 0x3BE JUMP JUMPDEST SWAP3 POP DUP3 DUP3 LT ISZERO PUSH2 0x3B3 JUMPI PUSH2 0x3B2 PUSH2 0x3F7 JUMP JUMPDEST JUMPDEST DUP3 DUP3 SUB SWAP1 POP SWAP3 SWAP2 POP POP JUMP JUMPDEST PUSH1 0x0 DUP2 SWAP1 POP SWAP2 SWAP1 POP JUMP JUMPDEST PUSH32 0x4E487B7100000000000000000000000000000000000000000000000000000000 PUSH1 0x0 MSTORE PUSH1 0x1 PUSH1 0x4 MSTORE PUSH1 0x24 PUSH1 0x0 REVERT JUMPDEST PUSH32 0x4E487B7100000000000000000000000000000000000000000000000000000000 PUSH1 0x0 MSTORE PUSH1 0x11 PUSH1 0x4 MSTORE PUSH1 0x24 PUSH1 0x0 REVERT JUMPDEST PUSH32 0x4E487B7100000000000000000000000000000000000000000000000000000000 PUSH1 0x0 MSTORE PUSH1 0x31 PUSH1 0x4 MSTORE PUSH1 0x24 PUSH1 0x0 REVERT JUMPDEST PUSH32 0x4E487B7100000000000000000000000000000000000000000000000000000000 PUSH1 0x0 MSTORE PUSH1 0x32 PUSH1 0x4 MSTORE PUSH1 0x24 PUSH1 0x0 REVERT JUMPDEST PUSH1 0x0 DUP1 REVERT JUMPDEST PUSH2 0x492 DUP2 PUSH2 0x3BE JUMP JUMPDEST DUP2 EQ PUSH2 0x49D JUMPI PUSH1 0x0 DUP1 REVERT JUMPDEST POP JUMP INVALID LOG2 PUSH5 0x6970667358 0x22 SLT KECCAK256 0xE0 RETURNDATASIZE 0xDF 0xB6 PUSH20 0xAAE590F7169D92EFBD6438066D55CC8327E292B4 0xAF SWAP7 MSIZE 0xD4 SWAP7 RETURNDATASIZE 0x23 PUSH5 0x736F6C6343 STOP ADDMOD SMOD STOP CALLER "
				},
				"gasEstimates": {
					"creation": {
						"codeDepositCost": "247600",
						"executionCost": "287",
						"totalCost": "247887"
					},
					"external": {
						"arr(uint256)": "infinite",
						"remove(uint256)": "infinite",
						"test()": "infinite"
					}
				},
				"methodIdentifiers": {
					"arr(uint256)": "71e5ee5f",
					"remove(uint256)": "4cc82215",
					"test()": "f8a8fd6d"
				}
			},
			"storageLayout": {
				"storage": [
					{
						"astId": 4,
						"contract": "20_ArrayReplaceLast.sol:ArrayReplaceLast",
						"label": "arr",
						"offset": 0,
						"slot": "0",
						"type": "t_array(t_uint256)dyn_storage"
					}
				],
				"types": {
					"t_array(t_uint256)dyn_storage": {
						"base": "t_uint256",
						"encoding": "dynamic_array",
						"label": "uint256[]",
						"numberOfBytes": "32"
					},
					"t_uint256": {
						"encoding": "inplace",
						"label": "uint256",
						"numberOfBytes": "32"
					}
				}
			},
			"userdoc": {
				"kind": "user",
				"methods": {},
				"version": 1
			}
		}
	}
}