{
	"13_Errors.sol": {
		"Error": {
			"abi": [
				{
					"inputs": [
						{
							"internalType": "address",
							"name": "caller",
							"type": "address"
						},
						{
							"internalType": "uint256",
							"name": "i",
							"type": "uint256"
						}
					],
					"name": "MyError",
					"type": "error"
				},
				{
					"inputs": [
						{
							"internalType": "uint256",
							"name": "_i",
							"type": "uint256"
						}
					],
					"name": "foo",
					"outputs": [],
					"stateMutability": "nonpayable",
					"type": "function"
				},
				{
					"inputs": [],
					"name": "num",
					"outputs": [
						{
							"internalType": "uint256",
							"name": "",
							"type": "uint256"
						}
					],
					"stateMutability": "view",
					"type": "function"
				},
				{
					"inputs": [],
					"name": "testAssert",
					"outputs": [],
					"stateMutability": "view",
					"type": "function"
				},
				{
					"inputs": [
						{
							"internalType": "uint256",
							"name": "_i",
							"type": "uint256"
						}
					],
					"name": "testCustomError",
					"outputs": [],
					"stateMutability": "view",
					"type": "function"
				},
				{
					"inputs": [
						{
							"internalType": "uint256",
							"name": "_i",
							"type": "uint256"
						}
					],
					"name": "testRequire",
					"outputs": [],
					"stateMutability": "pure",
					"type": "function"
				},
				{
					"inputs": [
						{
							"internalType": "uint256",
							"name": "_i",
							"type": "uint256"
						}
					],
					"name": "testRevert",
					"outputs": [],
					"stateMutability": "pure",
					"type": "function"
				}
			],
			"devdoc": {
				"kind": "dev",
				"methods": {},
				"version": 1
			},
			"evm": {
				"assembly": "    /* \"13_Errors.sol\":136:837  contract Error {... */\n  mstore(0x40, 0x80)\n    /* \"13_Errors.sol\":490:493  123 */\n  0x7b\n    /* \"13_Errors.sol\":472:493  uint public num = 123 */\n  0x00\n  sstore\n    /* \"13_Errors.sol\":136:837  contract Error {... */\n  callvalue\n  dup1\n  iszero\n  tag_1\n  jumpi\n  0x00\n  dup1\n  revert\ntag_1:\n  pop\n  dataSize(sub_0)\n  dup1\n  dataOffset(sub_0)\n  0x00\n  codecopy\n  0x00\n  return\nstop\n\nsub_0: assembly {\n        /* \"13_Errors.sol\":136:837  contract Error {... */\n      mstore(0x40, 0x80)\n      callvalue\n      dup1\n      iszero\n      tag_1\n      jumpi\n      0x00\n      dup1\n      revert\n    tag_1:\n      pop\n      jumpi(tag_2, lt(calldatasize, 0x04))\n      shr(0xe0, calldataload(0x00))\n      dup1\n      0x20987767\n      eq\n      tag_3\n      jumpi\n      dup1\n      0x2b813bc0\n      eq\n      tag_4\n      jumpi\n      dup1\n      0x2fbebd38\n      eq\n      tag_5\n      jumpi\n      dup1\n      0x4e70b1dc\n      eq\n      tag_6\n      jumpi\n      dup1\n      0x75f7286c\n      eq\n      tag_7\n      jumpi\n      dup1\n      0xb8bd717f\n      eq\n      tag_8\n      jumpi\n    tag_2:\n      0x00\n      dup1\n      revert\n        /* \"13_Errors.sol\":250:466  function testRevert(uint _i) public pure {... */\n    tag_3:\n      tag_9\n      0x04\n      dup1\n      calldatasize\n      sub\n      dup2\n      add\n      swap1\n      tag_10\n      swap2\n      swap1\n      tag_11\n      jump\t// in\n    tag_10:\n      tag_12\n      jump\t// in\n    tag_9:\n      stop\n        /* \"13_Errors.sol\":500:569  function testAssert() public view {... */\n    tag_4:\n      tag_13\n      tag_14\n      jump\t// in\n    tag_13:\n      stop\n        /* \"13_Errors.sol\":575:655  function foo(uint _i) public {... */\n    tag_5:\n      tag_15\n      0x04\n      dup1\n      calldatasize\n      sub\n      dup2\n      add\n      swap1\n      tag_16\n      swap2\n      swap1\n      tag_11\n      jump\t// in\n    tag_16:\n      tag_17\n      jump\t// in\n    tag_15:\n      stop\n        /* \"13_Errors.sol\":472:493  uint public num = 123 */\n    tag_6:\n      tag_18\n      tag_19\n      jump\t// in\n    tag_18:\n      mload(0x40)\n      tag_20\n      swap2\n      swap1\n      tag_21\n      jump\t// in\n    tag_20:\n      mload(0x40)\n      dup1\n      swap2\n      sub\n      swap1\n      return\n        /* \"13_Errors.sol\":705:835  function testCustomError(uint _i) public view {... */\n    tag_7:\n      tag_22\n      0x04\n      dup1\n      calldatasize\n      sub\n      dup2\n      add\n      swap1\n      tag_23\n      swap2\n      swap1\n      tag_11\n      jump\t// in\n    tag_23:\n      tag_24\n      jump\t// in\n    tag_22:\n      stop\n        /* \"13_Errors.sol\":157:244  function testRequire(uint _i) public pure {... */\n    tag_8:\n      tag_25\n      0x04\n      dup1\n      calldatasize\n      sub\n      dup2\n      add\n      swap1\n      tag_26\n      swap2\n      swap1\n      tag_11\n      jump\t// in\n    tag_26:\n      tag_27\n      jump\t// in\n    tag_25:\n      stop\n        /* \"13_Errors.sol\":250:466  function testRevert(uint _i) public pure {... */\n    tag_12:\n        /* \"13_Errors.sol\":310:311  1 */\n      0x01\n        /* \"13_Errors.sol\":305:307  _i */\n      dup2\n        /* \"13_Errors.sol\":305:311  _i > 1 */\n      gt\n        /* \"13_Errors.sol\":301:451  if (_i > 1) {... */\n      iszero\n      tag_29\n      jumpi\n        /* \"13_Errors.sol\":336:337  2 */\n      0x02\n        /* \"13_Errors.sol\":331:333  _i */\n      dup2\n        /* \"13_Errors.sol\":331:337  _i > 2 */\n      gt\n        /* \"13_Errors.sol\":327:441  if (_i > 2) {... */\n      iszero\n      tag_30\n      jumpi\n        /* \"13_Errors.sol\":366:368  10 */\n      0x0a\n        /* \"13_Errors.sol\":361:363  _i */\n      dup2\n        /* \"13_Errors.sol\":361:368  _i > 10 */\n      gt\n        /* \"13_Errors.sol\":357:427  if (_i > 10) {... */\n      iszero\n      tag_31\n      jumpi\n        /* \"13_Errors.sol\":392:408  revert(\"i > 10\") */\n      mload(0x40)\n      0x08c379a000000000000000000000000000000000000000000000000000000000\n      dup2\n      mstore\n      0x04\n      add\n      tag_32\n      swap1\n      tag_33\n      jump\t// in\n    tag_32:\n      mload(0x40)\n      dup1\n      swap2\n      sub\n      swap1\n      revert\n        /* \"13_Errors.sol\":357:427  if (_i > 10) {... */\n    tag_31:\n        /* \"13_Errors.sol\":327:441  if (_i > 2) {... */\n    tag_30:\n        /* \"13_Errors.sol\":301:451  if (_i > 1) {... */\n    tag_29:\n        /* \"13_Errors.sol\":250:466  function testRevert(uint _i) public pure {... */\n      pop\n      jump\t// out\n        /* \"13_Errors.sol\":500:569  function testAssert() public view {... */\n    tag_14:\n        /* \"13_Errors.sol\":558:561  123 */\n      0x7b\n        /* \"13_Errors.sol\":551:554  num */\n      sload(0x00)\n        /* \"13_Errors.sol\":551:561  num == 123 */\n      eq\n        /* \"13_Errors.sol\":544:562  assert(num == 123) */\n      tag_35\n      jumpi\n      tag_36\n      tag_37\n      jump\t// in\n    tag_36:\n    tag_35:\n        /* \"13_Errors.sol\":500:569  function testAssert() public view {... */\n      jump\t// out\n        /* \"13_Errors.sol\":575:655  function foo(uint _i) public {... */\n    tag_17:\n        /* \"13_Errors.sol\":621:622  1 */\n      0x01\n        /* \"13_Errors.sol\":614:617  num */\n      0x00\n      dup1\n        /* \"13_Errors.sol\":614:622  num += 1 */\n      dup3\n      dup3\n      sload\n      tag_39\n      swap2\n      swap1\n      tag_40\n      jump\t// in\n    tag_39:\n      swap3\n      pop\n      pop\n      dup2\n      swap1\n      sstore\n      pop\n        /* \"13_Errors.sol\":645:647  10 */\n      0x0a\n        /* \"13_Errors.sol\":640:642  _i */\n      dup2\n        /* \"13_Errors.sol\":640:647  _i < 10 */\n      lt\n        /* \"13_Errors.sol\":632:648  require(_i < 10) */\n      tag_41\n      jumpi\n      0x00\n      dup1\n      revert\n    tag_41:\n        /* \"13_Errors.sol\":575:655  function foo(uint _i) public {... */\n      pop\n      jump\t// out\n        /* \"13_Errors.sol\":472:493  uint public num = 123 */\n    tag_19:\n      sload(0x00)\n      dup2\n      jump\t// out\n        /* \"13_Errors.sol\":705:835  function testCustomError(uint _i) public view {... */\n    tag_24:\n        /* \"13_Errors.sol\":770:772  10 */\n      0x0a\n        /* \"13_Errors.sol\":765:767  _i */\n      dup2\n        /* \"13_Errors.sol\":765:772  _i > 10 */\n      gt\n        /* \"13_Errors.sol\":761:829  if (_i > 10) {... */\n      iszero\n      tag_43\n      jumpi\n        /* \"13_Errors.sol\":803:813  msg.sender */\n      caller\n        /* \"13_Errors.sol\":815:817  _i */\n      dup2\n        /* \"13_Errors.sol\":795:818  MyError(msg.sender, _i) */\n      mload(0x40)\n      0xe2399bb800000000000000000000000000000000000000000000000000000000\n      dup2\n      mstore\n      0x04\n      add\n      tag_44\n      swap3\n      swap2\n      swap1\n      tag_45\n      jump\t// in\n    tag_44:\n      mload(0x40)\n      dup1\n      swap2\n      sub\n      swap1\n      revert\n        /* \"13_Errors.sol\":761:829  if (_i > 10) {... */\n    tag_43:\n        /* \"13_Errors.sol\":705:835  function testCustomError(uint _i) public view {... */\n      pop\n      jump\t// out\n        /* \"13_Errors.sol\":157:244  function testRequire(uint _i) public pure {... */\n    tag_27:\n        /* \"13_Errors.sol\":223:225  10 */\n      0x0a\n        /* \"13_Errors.sol\":217:219  _i */\n      dup2\n        /* \"13_Errors.sol\":217:225  _i <= 10 */\n      gt\n      iszero\n        /* \"13_Errors.sol\":209:236  require(_i <= 10, \"i > 10\") */\n      tag_47\n      jumpi\n      mload(0x40)\n      0x08c379a000000000000000000000000000000000000000000000000000000000\n      dup2\n      mstore\n      0x04\n      add\n      tag_48\n      swap1\n      tag_33\n      jump\t// in\n    tag_48:\n      mload(0x40)\n      dup1\n      swap2\n      sub\n      swap1\n      revert\n    tag_47:\n        /* \"13_Errors.sol\":157:244  function testRequire(uint _i) public pure {... */\n      pop\n      jump\t// out\n        /* \"#utility.yul\":7:146   */\n    tag_50:\n        /* \"#utility.yul\":53:58   */\n      0x00\n        /* \"#utility.yul\":91:97   */\n      dup2\n        /* \"#utility.yul\":78:98   */\n      calldataload\n        /* \"#utility.yul\":69:98   */\n      swap1\n      pop\n        /* \"#utility.yul\":107:140   */\n      tag_52\n        /* \"#utility.yul\":134:139   */\n      dup2\n        /* \"#utility.yul\":107:140   */\n      tag_53\n      jump\t// in\n    tag_52:\n        /* \"#utility.yul\":7:146   */\n      swap3\n      swap2\n      pop\n      pop\n      jump\t// out\n        /* \"#utility.yul\":152:481   */\n    tag_11:\n        /* \"#utility.yul\":211:217   */\n      0x00\n        /* \"#utility.yul\":260:262   */\n      0x20\n        /* \"#utility.yul\":248:257   */\n      dup3\n        /* \"#utility.yul\":239:246   */\n      dup5\n        /* \"#utility.yul\":235:258   */\n      sub\n        /* \"#utility.yul\":231:263   */\n      slt\n        /* \"#utility.yul\":228:347   */\n      iszero\n      tag_55\n      jumpi\n        /* \"#utility.yul\":266:345   */\n      tag_56\n      tag_57\n      jump\t// in\n    tag_56:\n        /* \"#utility.yul\":228:347   */\n    tag_55:\n        /* \"#utility.yul\":386:387   */\n      0x00\n        /* \"#utility.yul\":411:464   */\n      tag_58\n        /* \"#utility.yul\":456:463   */\n      dup5\n        /* \"#utility.yul\":447:453   */\n      dup3\n        /* \"#utility.yul\":436:445   */\n      dup6\n        /* \"#utility.yul\":432:454   */\n      add\n        /* \"#utility.yul\":411:464   */\n      tag_50\n      jump\t// in\n    tag_58:\n        /* \"#utility.yul\":401:464   */\n      swap2\n      pop\n        /* \"#utility.yul\":357:474   */\n      pop\n        /* \"#utility.yul\":152:481   */\n      swap3\n      swap2\n      pop\n      pop\n      jump\t// out\n        /* \"#utility.yul\":487:605   */\n    tag_59:\n        /* \"#utility.yul\":574:598   */\n      tag_61\n        /* \"#utility.yul\":592:597   */\n      dup2\n        /* \"#utility.yul\":574:598   */\n      tag_62\n      jump\t// in\n    tag_61:\n        /* \"#utility.yul\":569:572   */\n      dup3\n        /* \"#utility.yul\":562:599   */\n      mstore\n        /* \"#utility.yul\":487:605   */\n      pop\n      pop\n      jump\t// out\n        /* \"#utility.yul\":611:976   */\n    tag_63:\n        /* \"#utility.yul\":753:756   */\n      0x00\n        /* \"#utility.yul\":774:840   */\n      tag_65\n        /* \"#utility.yul\":838:839   */\n      0x06\n        /* \"#utility.yul\":833:836   */\n      dup4\n        /* \"#utility.yul\":774:840   */\n      tag_66\n      jump\t// in\n    tag_65:\n        /* \"#utility.yul\":767:840   */\n      swap2\n      pop\n        /* \"#utility.yul\":849:942   */\n      tag_67\n        /* \"#utility.yul\":938:941   */\n      dup3\n        /* \"#utility.yul\":849:942   */\n      tag_68\n      jump\t// in\n    tag_67:\n        /* \"#utility.yul\":967:969   */\n      0x20\n        /* \"#utility.yul\":962:965   */\n      dup3\n        /* \"#utility.yul\":958:970   */\n      add\n        /* \"#utility.yul\":951:970   */\n      swap1\n      pop\n        /* \"#utility.yul\":611:976   */\n      swap2\n      swap1\n      pop\n      jump\t// out\n        /* \"#utility.yul\":982:1100   */\n    tag_69:\n        /* \"#utility.yul\":1069:1093   */\n      tag_71\n        /* \"#utility.yul\":1087:1092   */\n      dup2\n        /* \"#utility.yul\":1069:1093   */\n      tag_72\n      jump\t// in\n    tag_71:\n        /* \"#utility.yul\":1064:1067   */\n      dup3\n        /* \"#utility.yul\":1057:1094   */\n      mstore\n        /* \"#utility.yul\":982:1100   */\n      pop\n      pop\n      jump\t// out\n        /* \"#utility.yul\":1106:1438   */\n    tag_45:\n        /* \"#utility.yul\":1227:1231   */\n      0x00\n        /* \"#utility.yul\":1265:1267   */\n      0x40\n        /* \"#utility.yul\":1254:1263   */\n      dup3\n        /* \"#utility.yul\":1250:1268   */\n      add\n        /* \"#utility.yul\":1242:1268   */\n      swap1\n      pop\n        /* \"#utility.yul\":1278:1349   */\n      tag_74\n        /* \"#utility.yul\":1346:1347   */\n      0x00\n        /* \"#utility.yul\":1335:1344   */\n      dup4\n        /* \"#utility.yul\":1331:1348   */\n      add\n        /* \"#utility.yul\":1322:1328   */\n      dup6\n        /* \"#utility.yul\":1278:1349   */\n      tag_59\n      jump\t// in\n    tag_74:\n        /* \"#utility.yul\":1359:1431   */\n      tag_75\n        /* \"#utility.yul\":1427:1429   */\n      0x20\n        /* \"#utility.yul\":1416:1425   */\n      dup4\n        /* \"#utility.yul\":1412:1430   */\n      add\n        /* \"#utility.yul\":1403:1409   */\n      dup5\n        /* \"#utility.yul\":1359:1431   */\n      tag_69\n      jump\t// in\n    tag_75:\n        /* \"#utility.yul\":1106:1438   */\n      swap4\n      swap3\n      pop\n      pop\n      pop\n      jump\t// out\n        /* \"#utility.yul\":1444:1863   */\n    tag_33:\n        /* \"#utility.yul\":1610:1614   */\n      0x00\n        /* \"#utility.yul\":1648:1650   */\n      0x20\n        /* \"#utility.yul\":1637:1646   */\n      dup3\n        /* \"#utility.yul\":1633:1651   */\n      add\n        /* \"#utility.yul\":1625:1651   */\n      swap1\n      pop\n        /* \"#utility.yul\":1697:1706   */\n      dup2\n        /* \"#utility.yul\":1691:1695   */\n      dup2\n        /* \"#utility.yul\":1687:1707   */\n      sub\n        /* \"#utility.yul\":1683:1684   */\n      0x00\n        /* \"#utility.yul\":1672:1681   */\n      dup4\n        /* \"#utility.yul\":1668:1685   */\n      add\n        /* \"#utility.yul\":1661:1708   */\n      mstore\n        /* \"#utility.yul\":1725:1856   */\n      tag_77\n        /* \"#utility.yul\":1851:1855   */\n      dup2\n        /* \"#utility.yul\":1725:1856   */\n      tag_63\n      jump\t// in\n    tag_77:\n        /* \"#utility.yul\":1717:1856   */\n      swap1\n      pop\n        /* \"#utility.yul\":1444:1863   */\n      swap2\n      swap1\n      pop\n      jump\t// out\n        /* \"#utility.yul\":1869:2091   */\n    tag_21:\n        /* \"#utility.yul\":1962:1966   */\n      0x00\n        /* \"#utility.yul\":2000:2002   */\n      0x20\n        /* \"#utility.yul\":1989:1998   */\n      dup3\n        /* \"#utility.yul\":1985:2003   */\n      add\n        /* \"#utility.yul\":1977:2003   */\n      swap1\n      pop\n        /* \"#utility.yul\":2013:2084   */\n      tag_79\n        /* \"#utility.yul\":2081:2082   */\n      0x00\n        /* \"#utility.yul\":2070:2079   */\n      dup4\n        /* \"#utility.yul\":2066:2083   */\n      add\n        /* \"#utility.yul\":2057:2063   */\n      dup5\n        /* \"#utility.yul\":2013:2084   */\n      tag_69\n      jump\t// in\n    tag_79:\n        /* \"#utility.yul\":1869:2091   */\n      swap3\n      swap2\n      pop\n      pop\n      jump\t// out\n        /* \"#utility.yul\":2178:2347   */\n    tag_66:\n        /* \"#utility.yul\":2262:2273   */\n      0x00\n        /* \"#utility.yul\":2296:2302   */\n      dup3\n        /* \"#utility.yul\":2291:2294   */\n      dup3\n        /* \"#utility.yul\":2284:2303   */\n      mstore\n        /* \"#utility.yul\":2336:2340   */\n      0x20\n        /* \"#utility.yul\":2331:2334   */\n      dup3\n        /* \"#utility.yul\":2327:2341   */\n      add\n        /* \"#utility.yul\":2312:2341   */\n      swap1\n      pop\n        /* \"#utility.yul\":2178:2347   */\n      swap3\n      swap2\n      pop\n      pop\n      jump\t// out\n        /* \"#utility.yul\":2353:2658   */\n    tag_40:\n        /* \"#utility.yul\":2393:2396   */\n      0x00\n        /* \"#utility.yul\":2412:2432   */\n      tag_84\n        /* \"#utility.yul\":2430:2431   */\n      dup3\n        /* \"#utility.yul\":2412:2432   */\n      tag_72\n      jump\t// in\n    tag_84:\n        /* \"#utility.yul\":2407:2432   */\n      swap2\n      pop\n        /* \"#utility.yul\":2446:2466   */\n      tag_85\n        /* \"#utility.yul\":2464:2465   */\n      dup4\n        /* \"#utility.yul\":2446:2466   */\n      tag_72\n      jump\t// in\n    tag_85:\n        /* \"#utility.yul\":2441:2466   */\n      swap3\n      pop\n        /* \"#utility.yul\":2600:2601   */\n      dup3\n        /* \"#utility.yul\":2532:2598   */\n      0xffffffffffffffffffffffffffffffffffffffffffffffffffffffffffffffff\n        /* \"#utility.yul\":2528:2602   */\n      sub\n        /* \"#utility.yul\":2525:2526   */\n      dup3\n        /* \"#utility.yul\":2522:2603   */\n      gt\n        /* \"#utility.yul\":2519:2626   */\n      iszero\n      tag_86\n      jumpi\n        /* \"#utility.yul\":2606:2624   */\n      tag_87\n      tag_88\n      jump\t// in\n    tag_87:\n        /* \"#utility.yul\":2519:2626   */\n    tag_86:\n        /* \"#utility.yul\":2650:2651   */\n      dup3\n        /* \"#utility.yul\":2647:2648   */\n      dup3\n        /* \"#utility.yul\":2643:2652   */\n      add\n        /* \"#utility.yul\":2636:2652   */\n      swap1\n      pop\n        /* \"#utility.yul\":2353:2658   */\n      swap3\n      swap2\n      pop\n      pop\n      jump\t// out\n        /* \"#utility.yul\":2664:2760   */\n    tag_62:\n        /* \"#utility.yul\":2701:2708   */\n      0x00\n        /* \"#utility.yul\":2730:2754   */\n      tag_90\n        /* \"#utility.yul\":2748:2753   */\n      dup3\n        /* \"#utility.yul\":2730:2754   */\n      tag_91\n      jump\t// in\n    tag_90:\n        /* \"#utility.yul\":2719:2754   */\n      swap1\n      pop\n        /* \"#utility.yul\":2664:2760   */\n      swap2\n      swap1\n      pop\n      jump\t// out\n        /* \"#utility.yul\":2766:2892   */\n    tag_91:\n        /* \"#utility.yul\":2803:2810   */\n      0x00\n        /* \"#utility.yul\":2843:2885   */\n      0xffffffffffffffffffffffffffffffffffffffff\n        /* \"#utility.yul\":2836:2841   */\n      dup3\n        /* \"#utility.yul\":2832:2886   */\n      and\n        /* \"#utility.yul\":2821:2886   */\n      swap1\n      pop\n        /* \"#utility.yul\":2766:2892   */\n      swap2\n      swap1\n      pop\n      jump\t// out\n        /* \"#utility.yul\":2898:2975   */\n    tag_72:\n        /* \"#utility.yul\":2935:2942   */\n      0x00\n        /* \"#utility.yul\":2964:2969   */\n      dup2\n        /* \"#utility.yul\":2953:2969   */\n      swap1\n      pop\n        /* \"#utility.yul\":2898:2975   */\n      swap2\n      swap1\n      pop\n      jump\t// out\n        /* \"#utility.yul\":2981:3161   */\n    tag_37:\n        /* \"#utility.yul\":3029:3106   */\n      0x4e487b7100000000000000000000000000000000000000000000000000000000\n        /* \"#utility.yul\":3026:3027   */\n      0x00\n        /* \"#utility.yul\":3019:3107   */\n      mstore\n        /* \"#utility.yul\":3126:3130   */\n      0x01\n        /* \"#utility.yul\":3123:3124   */\n      0x04\n        /* \"#utility.yul\":3116:3131   */\n      mstore\n        /* \"#utility.yul\":3150:3154   */\n      0x24\n        /* \"#utility.yul\":3147:3148   */\n      0x00\n        /* \"#utility.yul\":3140:3155   */\n      revert\n        /* \"#utility.yul\":3167:3347   */\n    tag_88:\n        /* \"#utility.yul\":3215:3292   */\n      0x4e487b7100000000000000000000000000000000000000000000000000000000\n        /* \"#utility.yul\":3212:3213   */\n      0x00\n        /* \"#utility.yul\":3205:3293   */\n      mstore\n        /* \"#utility.yul\":3312:3316   */\n      0x11\n        /* \"#utility.yul\":3309:3310   */\n      0x04\n        /* \"#utility.yul\":3302:3317   */\n      mstore\n        /* \"#utility.yul\":3336:3340   */\n      0x24\n        /* \"#utility.yul\":3333:3334   */\n      0x00\n        /* \"#utility.yul\":3326:3341   */\n      revert\n        /* \"#utility.yul\":3476:3593   */\n    tag_57:\n        /* \"#utility.yul\":3585:3586   */\n      0x00\n        /* \"#utility.yul\":3582:3583   */\n      dup1\n        /* \"#utility.yul\":3575:3587   */\n      revert\n        /* \"#utility.yul\":3599:3755   */\n    tag_68:\n        /* \"#utility.yul\":3739:3747   */\n      0x69203e2031300000000000000000000000000000000000000000000000000000\n        /* \"#utility.yul\":3735:3736   */\n      0x00\n        /* \"#utility.yul\":3727:3733   */\n      dup3\n        /* \"#utility.yul\":3723:3737   */\n      add\n        /* \"#utility.yul\":3716:3748   */\n      mstore\n        /* \"#utility.yul\":3599:3755   */\n      pop\n      jump\t// out\n        /* \"#utility.yul\":3761:3883   */\n    tag_53:\n        /* \"#utility.yul\":3834:3858   */\n      tag_101\n        /* \"#utility.yul\":3852:3857   */\n      dup2\n        /* \"#utility.yul\":3834:3858   */\n      tag_72\n      jump\t// in\n    tag_101:\n        /* \"#utility.yul\":3827:3832   */\n      dup2\n        /* \"#utility.yul\":3824:3859   */\n      eq\n        /* \"#utility.yul\":3814:3877   */\n      tag_102\n      jumpi\n        /* \"#utility.yul\":3873:3874   */\n      0x00\n        /* \"#utility.yul\":3870:3871   */\n      dup1\n        /* \"#utility.yul\":3863:3875   */\n      revert\n        /* \"#utility.yul\":3814:3877   */\n    tag_102:\n        /* \"#utility.yul\":3761:3883   */\n      pop\n      jump\t// out\n\n    auxdata: 0xa2646970667358221220959fd6d02ff94b3418f0c02f2eddd4440a26c1ffd45bc97b7a68ce3ec39c6bbb64736f6c63430008070033\n}\n",
				"bytecode": {
					"linkReferences": {},
					"object": "6080604052607b60005534801561001557600080fd5b50610493806100256000396000f3fe608060405234801561001057600080fd5b50600436106100625760003560e01c806320987767146100675780632b813bc0146100835780632fbebd381461008d5780634e70b1dc146100a957806375f7286c146100c7578063b8bd717f146100e3575b600080fd5b610081600480360381019061007c9190610245565b6100ff565b005b61008b61015a565b005b6100a760048036038101906100a29190610245565b61016f565b005b6100b1610198565b6040516100be91906102fc565b60405180910390f35b6100e160048036038101906100dc9190610245565b61019e565b005b6100fd60048036038101906100f89190610245565b6101e9565b005b600181111561015757600281111561015657600a811115610155576040517f08c379a000000000000000000000000000000000000000000000000000000000815260040161014c906102dc565b60405180910390fd5b5b5b50565b607b6000541461016d5761016c6103ba565b5b565b60016000808282546101819190610328565b92505081905550600a811061019557600080fd5b50565b60005481565b600a8111156101e65733816040517fe2399bb80000000000000000000000000000000000000000000000000000000081526004016101dd9291906102b3565b60405180910390fd5b50565b600a81111561022d576040517f08c379a0000000000000000000000000000000000000000000000000000000008152600401610224906102dc565b60405180910390fd5b50565b60008135905061023f81610446565b92915050565b60006020828403121561025b5761025a610418565b5b600061026984828501610230565b91505092915050565b61027b8161037e565b82525050565b600061028e600683610317565b91506102998261041d565b602082019050919050565b6102ad816103b0565b82525050565b60006040820190506102c86000830185610272565b6102d560208301846102a4565b9392505050565b600060208201905081810360008301526102f581610281565b9050919050565b600060208201905061031160008301846102a4565b92915050565b600082825260208201905092915050565b6000610333826103b0565b915061033e836103b0565b9250827fffffffffffffffffffffffffffffffffffffffffffffffffffffffffffffffff03821115610373576103726103e9565b5b828201905092915050565b600061038982610390565b9050919050565b600073ffffffffffffffffffffffffffffffffffffffff82169050919050565b6000819050919050565b7f4e487b7100000000000000000000000000000000000000000000000000000000600052600160045260246000fd5b7f4e487b7100000000000000000000000000000000000000000000000000000000600052601160045260246000fd5b600080fd5b7f69203e2031300000000000000000000000000000000000000000000000000000600082015250565b61044f816103b0565b811461045a57600080fd5b5056fea2646970667358221220959fd6d02ff94b3418f0c02f2eddd4440a26c1ffd45bc97b7a68ce3ec39c6bbb64736f6c63430008070033",
					"opcodes": "PUSH1 0x80 PUSH1 0x40 MSTORE PUSH1 0x7B PUSH1 0x0 SSTORE CALLVALUE DUP1 ISZERO PUSH2 0x15 JUMPI PUSH1 0x0 DUP1 REVERT JUMPDEST POP PUSH2 0x493 DUP1 PUSH2 0x25 PUSH1 0x0 CODECOPY PUSH1 0x0 RETURN INVALID PUSH1 0x80 PUSH1 0x40 MSTORE CALLVALUE DUP1 ISZERO PUSH2 0x10 JUMPI PUSH1 0x0 DUP1 REVERT JUMPDEST POP PUSH1 0x4 CALLDATASIZE LT PUSH2 0x62 JUMPI PUSH1 0x0 CALLDATALOAD PUSH1 0xE0 SHR DUP1 PUSH4 0x20987767 EQ PUSH2 0x67 JUMPI DUP1 PUSH4 0x2B813BC0 EQ PUSH2 0x83 JUMPI DUP1 PUSH4 0x2FBEBD38 EQ PUSH2 0x8D JUMPI DUP1 PUSH4 0x4E70B1DC EQ PUSH2 0xA9 JUMPI DUP1 PUSH4 0x75F7286C EQ PUSH2 0xC7 JUMPI DUP1 PUSH4 0xB8BD717F EQ PUSH2 0xE3 JUMPI JUMPDEST PUSH1 0x0 DUP1 REVERT JUMPDEST PUSH2 0x81 PUSH1 0x4 DUP1 CALLDATASIZE SUB DUP2 ADD SWAP1 PUSH2 0x7C SWAP2 SWAP1 PUSH2 0x245 JUMP JUMPDEST PUSH2 0xFF JUMP JUMPDEST STOP JUMPDEST PUSH2 0x8B PUSH2 0x15A JUMP JUMPDEST STOP JUMPDEST PUSH2 0xA7 PUSH1 0x4 DUP1 CALLDATASIZE SUB DUP2 ADD SWAP1 PUSH2 0xA2 SWAP2 SWAP1 PUSH2 0x245 JUMP JUMPDEST PUSH2 0x16F JUMP JUMPDEST STOP JUMPDEST PUSH2 0xB1 PUSH2 0x198 JUMP JUMPDEST PUSH1 0x40 MLOAD PUSH2 0xBE SWAP2 SWAP1 PUSH2 0x2FC JUMP JUMPDEST PUSH1 0x40 MLOAD DUP1 SWAP2 SUB SWAP1 RETURN JUMPDEST PUSH2 0xE1 PUSH1 0x4 DUP1 CALLDATASIZE SUB DUP2 ADD SWAP1 PUSH2 0xDC SWAP2 SWAP1 PUSH2 0x245 JUMP JUMPDEST PUSH2 0x19E JUMP JUMPDEST STOP JUMPDEST PUSH2 0xFD PUSH1 0x4 DUP1 CALLDATASIZE SUB DUP2 ADD SWAP1 PUSH2 0xF8 SWAP2 SWAP1 PUSH2 0x245 JUMP JUMPDEST PUSH2 0x1E9 JUMP JUMPDEST STOP JUMPDEST PUSH1 0x1 DUP2 GT ISZERO PUSH2 0x157 JUMPI PUSH1 0x2 DUP2 GT ISZERO PUSH2 0x156 JUMPI PUSH1 0xA DUP2 GT ISZERO PUSH2 0x155 JUMPI PUSH1 0x40 MLOAD PUSH32 0x8C379A000000000000000000000000000000000000000000000000000000000 DUP2 MSTORE PUSH1 0x4 ADD PUSH2 0x14C SWAP1 PUSH2 0x2DC JUMP JUMPDEST PUSH1 0x40 MLOAD DUP1 SWAP2 SUB SWAP1 REVERT JUMPDEST JUMPDEST JUMPDEST POP JUMP JUMPDEST PUSH1 0x7B PUSH1 0x0 SLOAD EQ PUSH2 0x16D JUMPI PUSH2 0x16C PUSH2 0x3BA JUMP JUMPDEST JUMPDEST JUMP JUMPDEST PUSH1 0x1 PUSH1 0x0 DUP1 DUP3 DUP3 SLOAD PUSH2 0x181 SWAP2 SWAP1 PUSH2 0x328 JUMP JUMPDEST SWAP3 POP POP DUP2 SWAP1 SSTORE POP PUSH1 0xA DUP2 LT PUSH2 0x195 JUMPI PUSH1 0x0 DUP1 REVERT JUMPDEST POP JUMP JUMPDEST PUSH1 0x0 SLOAD DUP2 JUMP JUMPDEST PUSH1 0xA DUP2 GT ISZERO PUSH2 0x1E6 JUMPI CALLER DUP2 PUSH1 0x40 MLOAD PUSH32 0xE2399BB800000000000000000000000000000000000000000000000000000000 DUP2 MSTORE PUSH1 0x4 ADD PUSH2 0x1DD SWAP3 SWAP2 SWAP1 PUSH2 0x2B3 JUMP JUMPDEST PUSH1 0x40 MLOAD DUP1 SWAP2 SUB SWAP1 REVERT JUMPDEST POP JUMP JUMPDEST PUSH1 0xA DUP2 GT ISZERO PUSH2 0x22D JUMPI PUSH1 0x40 MLOAD PUSH32 0x8C379A000000000000000000000000000000000000000000000000000000000 DUP2 MSTORE PUSH1 0x4 ADD PUSH2 0x224 SWAP1 PUSH2 0x2DC JUMP JUMPDEST PUSH1 0x40 MLOAD DUP1 SWAP2 SUB SWAP1 REVERT JUMPDEST POP JUMP JUMPDEST PUSH1 0x0 DUP2 CALLDATALOAD SWAP1 POP PUSH2 0x23F DUP2 PUSH2 0x446 JUMP JUMPDEST SWAP3 SWAP2 POP POP JUMP JUMPDEST PUSH1 0x0 PUSH1 0x20 DUP3 DUP5 SUB SLT ISZERO PUSH2 0x25B JUMPI PUSH2 0x25A PUSH2 0x418 JUMP JUMPDEST JUMPDEST PUSH1 0x0 PUSH2 0x269 DUP5 DUP3 DUP6 ADD PUSH2 0x230 JUMP JUMPDEST SWAP2 POP POP SWAP3 SWAP2 POP POP JUMP JUMPDEST PUSH2 0x27B DUP2 PUSH2 0x37E JUMP JUMPDEST DUP3 MSTORE POP POP JUMP JUMPDEST PUSH1 0x0 PUSH2 0x28E PUSH1 0x6 DUP4 PUSH2 0x317 JUMP JUMPDEST SWAP2 POP PUSH2 0x299 DUP3 PUSH2 0x41D JUMP JUMPDEST PUSH1 0x20 DUP3 ADD SWAP1 POP SWAP2 SWAP1 POP JUMP JUMPDEST PUSH2 0x2AD DUP2 PUSH2 0x3B0 JUMP JUMPDEST DUP3 MSTORE POP POP JUMP JUMPDEST PUSH1 0x0 PUSH1 0x40 DUP3 ADD SWAP1 POP PUSH2 0x2C8 PUSH1 0x0 DUP4 ADD DUP6 PUSH2 0x272 JUMP JUMPDEST PUSH2 0x2D5 PUSH1 0x20 DUP4 ADD DUP5 PUSH2 0x2A4 JUMP JUMPDEST SWAP4 SWAP3 POP POP POP JUMP JUMPDEST PUSH1 0x0 PUSH1 0x20 DUP3 ADD SWAP1 POP DUP2 DUP2 SUB PUSH1 0x0 DUP4 ADD MSTORE PUSH2 0x2F5 DUP2 PUSH2 0x281 JUMP JUMPDEST SWAP1 POP SWAP2 SWAP1 POP JUMP JUMPDEST PUSH1 0x0 PUSH1 0x20 DUP3 ADD SWAP1 POP PUSH2 0x311 PUSH1 0x0 DUP4 ADD DUP5 PUSH2 0x2A4 JUMP JUMPDEST SWAP3 SWAP2 POP POP JUMP JUMPDEST PUSH1 0x0 DUP3 DUP3 MSTORE PUSH1 0x20 DUP3 ADD SWAP1 POP SWAP3 SWAP2 POP POP JUMP JUMPDEST PUSH1 0x0 PUSH2 0x333 DUP3 PUSH2 0x3B0 JUMP JUMPDEST SWAP2 POP PUSH2 0x33E DUP4 PUSH2 0x3B0 JUMP JUMPDEST SWAP3 POP DUP3 PUSH32 0xFFFFFFFFFFFFFFFFFFFFFFFFFFFFFFFFFFFFFFFFFFFFFFFFFFFFFFFFFFFFFFFF SUB DUP3 GT ISZERO PUSH2 0x373 JUMPI PUSH2 0x372 PUSH2 0x3E9 JUMP JUMPDEST JUMPDEST DUP3 DUP3 ADD SWAP1 POP SWAP3 SWAP2 POP POP JUMP JUMPDEST PUSH1 0x0 PUSH2 0x389 DUP3 PUSH2 0x390 JUMP JUMPDEST SWAP1 POP SWAP2 SWAP1 POP JUMP JUMPDEST PUSH1 0x0 PUSH20 0xFFFFFFFFFFFFFFFFFFFFFFFFFFFFFFFFFFFFFFFF DUP3 AND SWAP1 POP SWAP2 SWAP1 POP JUMP JUMPDEST PUSH1 0x0 DUP2 SWAP1 POP SWAP2 SWAP1 POP JUMP JUMPDEST PUSH32 0x4E487B7100000000000000000000000000000000000000000000000000000000 PUSH1 0x0 MSTORE PUSH1 0x1 PUSH1 0x4 MSTORE PUSH1 0x24 PUSH1 0x0 REVERT JUMPDEST PUSH32 0x4E487B7100000000000000000000000000000000000000000000000000000000 PUSH1 0x0 MSTORE PUSH1 0x11 PUSH1 0x4 MSTORE PUSH1 0x24 PUSH1 0x0 REVERT JUMPDEST PUSH1 0x0 DUP1 REVERT JUMPDEST PUSH32 0x69203E2031300000000000000000000000000000000000000000000000000000 PUSH1 0x0 DUP3 ADD MSTORE POP JUMP JUMPDEST PUSH2 0x44F DUP2 PUSH2 0x3B0 JUMP JUMPDEST DUP2 EQ PUSH2 0x45A JUMPI PUSH1 0x0 DUP1 REVERT JUMPDEST POP JUMP INVALID LOG2 PUSH5 0x6970667358 0x22 SLT KECCAK256 SWAP6 SWAP16 0xD6 0xD0 0x2F 0xF9 0x4B CALLVALUE XOR CREATE 0xC0 0x2F 0x2E 0xDD 0xD4 DIFFICULTY EXP 0x26 0xC1 SELFDESTRUCT 0xD4 JUMPDEST 0xC9 PUSH28 0x7A68CE3EC39C6BBB64736F6C63430008070033000000000000000000 "
				},
				"gasEstimates": {
					"creation": {
						"codeDepositCost": "234200",
						"executionCost": "22381",
						"totalCost": "256581"
					},
					"external": {
						"foo(uint256)": "infinite",
						"num()": "2473",
						"testAssert()": "2296",
						"testCustomError(uint256)": "infinite",
						"testRequire(uint256)": "807",
						"testRevert(uint256)": "747"
					}
				},
				"methodIdentifiers": {
					"foo(uint256)": "2fbebd38",
					"num()": "4e70b1dc",
					"testAssert()": "2b813bc0",
					"testCustomError(uint256)": "75f7286c",
					"testRequire(uint256)": "b8bd717f",
					"testRevert(uint256)": "20987767"
				}
			},
			"storageLayout": {
				"storage": [
					{
						"astId": 42,
						"contract": "13_Errors.sol:Error",
						"label": "num",
						"offset": 0,
						"slot": "0",
						"type": "t_uint256"
					}
				],
				"types": {
					"t_uint256": {
						"encoding": "inplace",
						"label": "uint256",
						"numberOfBytes": "32"
					}
				}
			},
			"userdoc": {
				"kind": "user",
				"methods": {},
				"version": 1
			}
		}
	}
}