{
	"5_LocalVariables.sol": {
		"LocalVariables": {
			"abi": [
				{
					"inputs": [],
					"name": "b",
					"outputs": [
						{
							"internalType": "bool",
							"name": "",
							"type": "bool"
						}
					],
					"stateMutability": "view",
					"type": "function"
				},
				{
					"inputs": [],
					"name": "i",
					"outputs": [
						{
							"internalType": "uint256",
							"name": "",
							"type": "uint256"
						}
					],
					"stateMutability": "view",
					"type": "function"
				},
				{
					"inputs": [],
					"name": "myAddress",
					"outputs": [
						{
							"internalType": "address",
							"name": "",
							"type": "address"
						}
					],
					"stateMutability": "view",
					"type": "function"
				}
			],
			"devdoc": {
				"kind": "dev",
				"methods": {},
				"version": 1
			},
			"evm": {
				"assembly": "    /* \"5_LocalVariables.sol\":66:161  contract LocalVariables {... */\n  mstore(0x40, 0x80)\n  callvalue\n  dup1\n  iszero\n  tag_1\n  jumpi\n  0x00\n  dup1\n  revert\ntag_1:\n  pop\n  dataSize(sub_0)\n  dup1\n  dataOffset(sub_0)\n  0x00\n  codecopy\n  0x00\n  return\nstop\n\nsub_0: assembly {\n        /* \"5_LocalVariables.sol\":66:161  contract LocalVariables {... */\n      mstore(0x40, 0x80)\n      callvalue\n      dup1\n      iszero\n      tag_1\n      jumpi\n      0x00\n      dup1\n      revert\n    tag_1:\n      pop\n      jumpi(tag_2, lt(calldatasize, 0x04))\n      shr(0xe0, calldataload(0x00))\n      dup1\n      0x26b85ee1\n      eq\n      tag_3\n      jumpi\n      dup1\n      0x4df7e3d0\n      eq\n      tag_4\n      jumpi\n      dup1\n      0xe5aa3d58\n      eq\n      tag_5\n      jumpi\n    tag_2:\n      0x00\n      dup1\n      revert\n        /* \"5_LocalVariables.sol\":134:158  address public myAddress */\n    tag_3:\n      tag_6\n      tag_7\n      jump\t// in\n    tag_6:\n      mload(0x40)\n      tag_8\n      swap2\n      swap1\n      tag_9\n      jump\t// in\n    tag_8:\n      mload(0x40)\n      dup1\n      swap2\n      sub\n      swap1\n      return\n        /* \"5_LocalVariables.sol\":115:128  bool public b */\n    tag_4:\n      tag_10\n      tag_11\n      jump\t// in\n    tag_10:\n      mload(0x40)\n      tag_12\n      swap2\n      swap1\n      tag_13\n      jump\t// in\n    tag_12:\n      mload(0x40)\n      dup1\n      swap2\n      sub\n      swap1\n      return\n        /* \"5_LocalVariables.sol\":96:109  uint public i */\n    tag_5:\n      tag_14\n      tag_15\n      jump\t// in\n    tag_14:\n      mload(0x40)\n      tag_16\n      swap2\n      swap1\n      tag_17\n      jump\t// in\n    tag_16:\n      mload(0x40)\n      dup1\n      swap2\n      sub\n      swap1\n      return\n        /* \"5_LocalVariables.sol\":134:158  address public myAddress */\n    tag_7:\n      0x01\n      dup1\n      sload\n      swap1\n      0x0100\n      exp\n      swap1\n      div\n      0xffffffffffffffffffffffffffffffffffffffff\n      and\n      dup2\n      jump\t// out\n        /* \"5_LocalVariables.sol\":115:128  bool public b */\n    tag_11:\n      0x01\n      0x00\n      swap1\n      sload\n      swap1\n      0x0100\n      exp\n      swap1\n      div\n      0xff\n      and\n      dup2\n      jump\t// out\n        /* \"5_LocalVariables.sol\":96:109  uint public i */\n    tag_15:\n      sload(0x00)\n      dup2\n      jump\t// out\n        /* \"#utility.yul\":7:125   */\n    tag_19:\n        /* \"#utility.yul\":94:118   */\n      tag_21\n        /* \"#utility.yul\":112:117   */\n      dup2\n        /* \"#utility.yul\":94:118   */\n      tag_22\n      jump\t// in\n    tag_21:\n        /* \"#utility.yul\":89:92   */\n      dup3\n        /* \"#utility.yul\":82:119   */\n      mstore\n        /* \"#utility.yul\":7:125   */\n      pop\n      pop\n      jump\t// out\n        /* \"#utility.yul\":131:240   */\n    tag_23:\n        /* \"#utility.yul\":212:233   */\n      tag_25\n        /* \"#utility.yul\":227:232   */\n      dup2\n        /* \"#utility.yul\":212:233   */\n      tag_26\n      jump\t// in\n    tag_25:\n        /* \"#utility.yul\":207:210   */\n      dup3\n        /* \"#utility.yul\":200:234   */\n      mstore\n        /* \"#utility.yul\":131:240   */\n      pop\n      pop\n      jump\t// out\n        /* \"#utility.yul\":246:364   */\n    tag_27:\n        /* \"#utility.yul\":333:357   */\n      tag_29\n        /* \"#utility.yul\":351:356   */\n      dup2\n        /* \"#utility.yul\":333:357   */\n      tag_30\n      jump\t// in\n    tag_29:\n        /* \"#utility.yul\":328:331   */\n      dup3\n        /* \"#utility.yul\":321:358   */\n      mstore\n        /* \"#utility.yul\":246:364   */\n      pop\n      pop\n      jump\t// out\n        /* \"#utility.yul\":370:592   */\n    tag_9:\n        /* \"#utility.yul\":463:467   */\n      0x00\n        /* \"#utility.yul\":501:503   */\n      0x20\n        /* \"#utility.yul\":490:499   */\n      dup3\n        /* \"#utility.yul\":486:504   */\n      add\n        /* \"#utility.yul\":478:504   */\n      swap1\n      pop\n        /* \"#utility.yul\":514:585   */\n      tag_32\n        /* \"#utility.yul\":582:583   */\n      0x00\n        /* \"#utility.yul\":571:580   */\n      dup4\n        /* \"#utility.yul\":567:584   */\n      add\n        /* \"#utility.yul\":558:564   */\n      dup5\n        /* \"#utility.yul\":514:585   */\n      tag_19\n      jump\t// in\n    tag_32:\n        /* \"#utility.yul\":370:592   */\n      swap3\n      swap2\n      pop\n      pop\n      jump\t// out\n        /* \"#utility.yul\":598:808   */\n    tag_13:\n        /* \"#utility.yul\":685:689   */\n      0x00\n        /* \"#utility.yul\":723:725   */\n      0x20\n        /* \"#utility.yul\":712:721   */\n      dup3\n        /* \"#utility.yul\":708:726   */\n      add\n        /* \"#utility.yul\":700:726   */\n      swap1\n      pop\n        /* \"#utility.yul\":736:801   */\n      tag_34\n        /* \"#utility.yul\":798:799   */\n      0x00\n        /* \"#utility.yul\":787:796   */\n      dup4\n        /* \"#utility.yul\":783:800   */\n      add\n        /* \"#utility.yul\":774:780   */\n      dup5\n        /* \"#utility.yul\":736:801   */\n      tag_23\n      jump\t// in\n    tag_34:\n        /* \"#utility.yul\":598:808   */\n      swap3\n      swap2\n      pop\n      pop\n      jump\t// out\n        /* \"#utility.yul\":814:1036   */\n    tag_17:\n        /* \"#utility.yul\":907:911   */\n      0x00\n        /* \"#utility.yul\":945:947   */\n      0x20\n        /* \"#utility.yul\":934:943   */\n      dup3\n        /* \"#utility.yul\":930:948   */\n      add\n        /* \"#utility.yul\":922:948   */\n      swap1\n      pop\n        /* \"#utility.yul\":958:1029   */\n      tag_36\n        /* \"#utility.yul\":1026:1027   */\n      0x00\n        /* \"#utility.yul\":1015:1024   */\n      dup4\n        /* \"#utility.yul\":1011:1028   */\n      add\n        /* \"#utility.yul\":1002:1008   */\n      dup5\n        /* \"#utility.yul\":958:1029   */\n      tag_27\n      jump\t// in\n    tag_36:\n        /* \"#utility.yul\":814:1036   */\n      swap3\n      swap2\n      pop\n      pop\n      jump\t// out\n        /* \"#utility.yul\":1042:1138   */\n    tag_22:\n        /* \"#utility.yul\":1079:1086   */\n      0x00\n        /* \"#utility.yul\":1108:1132   */\n      tag_38\n        /* \"#utility.yul\":1126:1131   */\n      dup3\n        /* \"#utility.yul\":1108:1132   */\n      tag_39\n      jump\t// in\n    tag_38:\n        /* \"#utility.yul\":1097:1132   */\n      swap1\n      pop\n        /* \"#utility.yul\":1042:1138   */\n      swap2\n      swap1\n      pop\n      jump\t// out\n        /* \"#utility.yul\":1144:1234   */\n    tag_26:\n        /* \"#utility.yul\":1178:1185   */\n      0x00\n        /* \"#utility.yul\":1221:1226   */\n      dup2\n        /* \"#utility.yul\":1214:1227   */\n      iszero\n        /* \"#utility.yul\":1207:1228   */\n      iszero\n        /* \"#utility.yul\":1196:1228   */\n      swap1\n      pop\n        /* \"#utility.yul\":1144:1234   */\n      swap2\n      swap1\n      pop\n      jump\t// out\n        /* \"#utility.yul\":1240:1366   */\n    tag_39:\n        /* \"#utility.yul\":1277:1284   */\n      0x00\n        /* \"#utility.yul\":1317:1359   */\n      0xffffffffffffffffffffffffffffffffffffffff\n        /* \"#utility.yul\":1310:1315   */\n      dup3\n        /* \"#utility.yul\":1306:1360   */\n      and\n        /* \"#utility.yul\":1295:1360   */\n      swap1\n      pop\n        /* \"#utility.yul\":1240:1366   */\n      swap2\n      swap1\n      pop\n      jump\t// out\n        /* \"#utility.yul\":1372:1449   */\n    tag_30:\n        /* \"#utility.yul\":1409:1416   */\n      0x00\n        /* \"#utility.yul\":1438:1443   */\n      dup2\n        /* \"#utility.yul\":1427:1443   */\n      swap1\n      pop\n        /* \"#utility.yul\":1372:1449   */\n      swap2\n      swap1\n      pop\n      jump\t// out\n\n    auxdata: 0xa2646970667358221220379054808c448e3b96e2be3d900fdae460ac9a4887dac6f20c5efe8b705dde8e64736f6c63430008070033\n}\n",
				"bytecode": {
					"linkReferences": {},
					"object": "608060405234801561001057600080fd5b506101d9806100206000396000f3fe608060405234801561001057600080fd5b50600436106100415760003560e01c806326b85ee1146100465780634df7e3d014610064578063e5aa3d5814610082575b600080fd5b61004e6100a0565b60405161005b919061010a565b60405180910390f35b61006c6100c4565b6040516100799190610125565b60405180910390f35b61008a6100d7565b6040516100979190610140565b60405180910390f35b60018054906101000a900473ffffffffffffffffffffffffffffffffffffffff1681565b600160009054906101000a900460ff1681565b60005481565b6100e68161015b565b82525050565b6100f58161016d565b82525050565b61010481610199565b82525050565b600060208201905061011f60008301846100dd565b92915050565b600060208201905061013a60008301846100ec565b92915050565b600060208201905061015560008301846100fb565b92915050565b600061016682610179565b9050919050565b60008115159050919050565b600073ffffffffffffffffffffffffffffffffffffffff82169050919050565b600081905091905056fea2646970667358221220379054808c448e3b96e2be3d900fdae460ac9a4887dac6f20c5efe8b705dde8e64736f6c63430008070033",
					"opcodes": "PUSH1 0x80 PUSH1 0x40 MSTORE CALLVALUE DUP1 ISZERO PUSH2 0x10 JUMPI PUSH1 0x0 DUP1 REVERT JUMPDEST POP PUSH2 0x1D9 DUP1 PUSH2 0x20 PUSH1 0x0 CODECOPY PUSH1 0x0 RETURN INVALID PUSH1 0x80 PUSH1 0x40 MSTORE CALLVALUE DUP1 ISZERO PUSH2 0x10 JUMPI PUSH1 0x0 DUP1 REVERT JUMPDEST POP PUSH1 0x4 CALLDATASIZE LT PUSH2 0x41 JUMPI PUSH1 0x0 CALLDATALOAD PUSH1 0xE0 SHR DUP1 PUSH4 0x26B85EE1 EQ PUSH2 0x46 JUMPI DUP1 PUSH4 0x4DF7E3D0 EQ PUSH2 0x64 JUMPI DUP1 PUSH4 0xE5AA3D58 EQ PUSH2 0x82 JUMPI JUMPDEST PUSH1 0x0 DUP1 REVERT JUMPDEST PUSH2 0x4E PUSH2 0xA0 JUMP JUMPDEST PUSH1 0x40 MLOAD PUSH2 0x5B SWAP2 SWAP1 PUSH2 0x10A JUMP JUMPDEST PUSH1 0x40 MLOAD DUP1 SWAP2 SUB SWAP1 RETURN JUMPDEST PUSH2 0x6C PUSH2 0xC4 JUMP JUMPDEST PUSH1 0x40 MLOAD PUSH2 0x79 SWAP2 SWAP1 PUSH2 0x125 JUMP JUMPDEST PUSH1 0x40 MLOAD DUP1 SWAP2 SUB SWAP1 RETURN JUMPDEST PUSH2 0x8A PUSH2 0xD7 JUMP JUMPDEST PUSH1 0x40 MLOAD PUSH2 0x97 SWAP2 SWAP1 PUSH2 0x140 JUMP JUMPDEST PUSH1 0x40 MLOAD DUP1 SWAP2 SUB SWAP1 RETURN JUMPDEST PUSH1 0x1 DUP1 SLOAD SWAP1 PUSH2 0x100 EXP SWAP1 DIV PUSH20 0xFFFFFFFFFFFFFFFFFFFFFFFFFFFFFFFFFFFFFFFF AND DUP2 JUMP JUMPDEST PUSH1 0x1 PUSH1 0x0 SWAP1 SLOAD SWAP1 PUSH2 0x100 EXP SWAP1 DIV PUSH1 0xFF AND DUP2 JUMP JUMPDEST PUSH1 0x0 SLOAD DUP2 JUMP JUMPDEST PUSH2 0xE6 DUP2 PUSH2 0x15B JUMP JUMPDEST DUP3 MSTORE POP POP JUMP JUMPDEST PUSH2 0xF5 DUP2 PUSH2 0x16D JUMP JUMPDEST DUP3 MSTORE POP POP JUMP JUMPDEST PUSH2 0x104 DUP2 PUSH2 0x199 JUMP JUMPDEST DUP3 MSTORE POP POP JUMP JUMPDEST PUSH1 0x0 PUSH1 0x20 DUP3 ADD SWAP1 POP PUSH2 0x11F PUSH1 0x0 DUP4 ADD DUP5 PUSH2 0xDD JUMP JUMPDEST SWAP3 SWAP2 POP POP JUMP JUMPDEST PUSH1 0x0 PUSH1 0x20 DUP3 ADD SWAP1 POP PUSH2 0x13A PUSH1 0x0 DUP4 ADD DUP5 PUSH2 0xEC JUMP JUMPDEST SWAP3 SWAP2 POP POP JUMP JUMPDEST PUSH1 0x0 PUSH1 0x20 DUP3 ADD SWAP1 POP PUSH2 0x155 PUSH1 0x0 DUP4 ADD DUP5 PUSH2 0xFB JUMP JUMPDEST SWAP3 SWAP2 POP POP JUMP JUMPDEST PUSH1 0x0 PUSH2 0x166 DUP3 PUSH2 0x179 JUMP JUMPDEST SWAP1 POP SWAP2 SWAP1 POP JUMP JUMPDEST PUSH1 0x0 DUP2 ISZERO ISZERO SWAP1 POP SWAP2 SWAP1 POP JUMP JUMPDEST PUSH1 0x0 PUSH20 0xFFFFFFFFFFFFFFFFFFFFFFFFFFFFFFFFFFFFFFFF DUP3 AND SWAP1 POP SWAP2 SWAP1 POP JUMP JUMPDEST PUSH1 0x0 DUP2 SWAP1 POP SWAP2 SWAP1 POP JUMP INVALID LOG2 PUSH5 0x6970667358 0x22 SLT KECCAK256 CALLDATACOPY SWAP1 SLOAD DUP1 DUP13 DIFFICULTY DUP15 EXTCODESIZE SWAP7 0xE2 0xBE RETURNDATASIZE SWAP1 0xF 0xDA 0xE4 PUSH1 0xAC SWAP11 BASEFEE DUP8 0xDA 0xC6 CALLCODE 0xC 0x5E INVALID DUP12 PUSH17 0x5DDE8E64736F6C63430008070033000000 "
				},
				"gasEstimates": {
					"creation": {
						"codeDepositCost": "94600",
						"executionCost": "141",
						"totalCost": "94741"
					},
					"external": {
						"b()": "2471",
						"i()": "2451",
						"myAddress()": "2539"
					}
				},
				"methodIdentifiers": {
					"b()": "4df7e3d0",
					"i()": "e5aa3d58",
					"myAddress()": "26b85ee1"
				}
			},
			"storageLayout": {
				"storage": [
					{
						"astId": 3,
						"contract": "5_LocalVariables.sol:LocalVariables",
						"label": "i",
						"offset": 0,
						"slot": "0",
						"type": "t_uint256"
					},
					{
						"astId": 5,
						"contract": "5_LocalVariables.sol:LocalVariables",
						"label": "b",
						"offset": 0,
						"slot": "1",
						"type": "t_bool"
					},
					{
						"astId": 7,
						"contract": "5_LocalVariables.sol:LocalVariables",
						"label": "myAddress",
						"offset": 1,
						"slot": "1",
						"type": "t_address"
					}
				],
				"types": {
					"t_address": {
						"encoding": "inplace",
						"label": "address",
						"numberOfBytes": "20"
					},
					"t_bool": {
						"encoding": "inplace",
						"label": "bool",
						"numberOfBytes": "1"
					},
					"t_uint256": {
						"encoding": "inplace",
						"label": "uint256",
						"numberOfBytes": "32"
					}
				}
			},
			"userdoc": {
				"kind": "user",
				"methods": {},
				"version": 1
			}
		}
	}
}