{
	"13_Errors.sol": {
		"Error": {
			"abi": [
				{
					"inputs": [],
					"name": "foo",
					"outputs": [],
					"stateMutability": "nonpayable",
					"type": "function"
				},
				{
					"inputs": [],
					"name": "num",
					"outputs": [
						{
							"internalType": "uint256",
							"name": "",
							"type": "uint256"
						}
					],
					"stateMutability": "view",
					"type": "function"
				},
				{
					"inputs": [],
					"name": "testAssert",
					"outputs": [],
					"stateMutability": "view",
					"type": "function"
				},
				{
					"inputs": [
						{
							"internalType": "uint256",
							"name": "_i",
							"type": "uint256"
						}
					],
					"name": "testRequire",
					"outputs": [],
					"stateMutability": "pure",
					"type": "function"
				},
				{
					"inputs": [
						{
							"internalType": "uint256",
							"name": "_i",
							"type": "uint256"
						}
					],
					"name": "testRevert",
					"outputs": [],
					"stateMutability": "pure",
					"type": "function"
				}
			],
			"devdoc": {
				"kind": "dev",
				"methods": {},
				"version": 1
			},
			"evm": {
				"assembly": "    /* \"13_Errors.sol\":69:557  contract Error {... */\n  mstore(0x40, 0x80)\n    /* \"13_Errors.sol\":423:426  123 */\n  0x7b\n    /* \"13_Errors.sol\":405:426  uint public num = 123 */\n  0x00\n  sstore\n    /* \"13_Errors.sol\":69:557  contract Error {... */\n  callvalue\n  dup1\n  iszero\n  tag_1\n  jumpi\n  0x00\n  dup1\n  revert\ntag_1:\n  pop\n  dataSize(sub_0)\n  dup1\n  dataOffset(sub_0)\n  0x00\n  codecopy\n  0x00\n  return\nstop\n\nsub_0: assembly {\n        /* \"13_Errors.sol\":69:557  contract Error {... */\n      mstore(0x40, 0x80)\n      callvalue\n      dup1\n      iszero\n      tag_1\n      jumpi\n      0x00\n      dup1\n      revert\n    tag_1:\n      pop\n      jumpi(tag_2, lt(calldatasize, 0x04))\n      shr(0xe0, calldataload(0x00))\n      dup1\n      0x20987767\n      eq\n      tag_3\n      jumpi\n      dup1\n      0x2b813bc0\n      eq\n      tag_4\n      jumpi\n      dup1\n      0x4e70b1dc\n      eq\n      tag_5\n      jumpi\n      dup1\n      0xb8bd717f\n      eq\n      tag_6\n      jumpi\n      dup1\n      0xc2985578\n      eq\n      tag_7\n      jumpi\n    tag_2:\n      0x00\n      dup1\n      revert\n        /* \"13_Errors.sol\":183:399  function testRevert(uint _i) public pure {... */\n    tag_3:\n      tag_8\n      0x04\n      dup1\n      calldatasize\n      sub\n      dup2\n      add\n      swap1\n      tag_9\n      swap2\n      swap1\n      tag_10\n      jump\t// in\n    tag_9:\n      tag_11\n      jump\t// in\n    tag_8:\n      stop\n        /* \"13_Errors.sol\":433:502  function testAssert() public view {... */\n    tag_4:\n      tag_12\n      tag_13\n      jump\t// in\n    tag_12:\n      stop\n        /* \"13_Errors.sol\":405:426  uint public num = 123 */\n    tag_5:\n      tag_14\n      tag_15\n      jump\t// in\n    tag_14:\n      mload(0x40)\n      tag_16\n      swap2\n      swap1\n      tag_17\n      jump\t// in\n    tag_16:\n      mload(0x40)\n      dup1\n      swap2\n      sub\n      swap1\n      return\n        /* \"13_Errors.sol\":90:177  function testRequire(uint _i) public pure {... */\n    tag_6:\n      tag_18\n      0x04\n      dup1\n      calldatasize\n      sub\n      dup2\n      add\n      swap1\n      tag_19\n      swap2\n      swap1\n      tag_10\n      jump\t// in\n    tag_19:\n      tag_20\n      jump\t// in\n    tag_18:\n      stop\n        /* \"13_Errors.sol\":508:555  function foo() public {... */\n    tag_7:\n      tag_21\n      tag_22\n      jump\t// in\n    tag_21:\n      stop\n        /* \"13_Errors.sol\":183:399  function testRevert(uint _i) public pure {... */\n    tag_11:\n        /* \"13_Errors.sol\":243:244  1 */\n      0x01\n        /* \"13_Errors.sol\":238:240  _i */\n      dup2\n        /* \"13_Errors.sol\":238:244  _i > 1 */\n      gt\n        /* \"13_Errors.sol\":234:384  if (_i > 1) {... */\n      iszero\n      tag_24\n      jumpi\n        /* \"13_Errors.sol\":269:270  2 */\n      0x02\n        /* \"13_Errors.sol\":264:266  _i */\n      dup2\n        /* \"13_Errors.sol\":264:270  _i > 2 */\n      gt\n        /* \"13_Errors.sol\":260:374  if (_i > 2) {... */\n      iszero\n      tag_25\n      jumpi\n        /* \"13_Errors.sol\":299:301  10 */\n      0x0a\n        /* \"13_Errors.sol\":294:296  _i */\n      dup2\n        /* \"13_Errors.sol\":294:301  _i > 10 */\n      gt\n        /* \"13_Errors.sol\":290:360  if (_i > 10) {... */\n      iszero\n      tag_26\n      jumpi\n        /* \"13_Errors.sol\":325:341  revert(\"i > 10\") */\n      mload(0x40)\n      0x08c379a000000000000000000000000000000000000000000000000000000000\n      dup2\n      mstore\n      0x04\n      add\n      tag_27\n      swap1\n      tag_28\n      jump\t// in\n    tag_27:\n      mload(0x40)\n      dup1\n      swap2\n      sub\n      swap1\n      revert\n        /* \"13_Errors.sol\":290:360  if (_i > 10) {... */\n    tag_26:\n        /* \"13_Errors.sol\":260:374  if (_i > 2) {... */\n    tag_25:\n        /* \"13_Errors.sol\":234:384  if (_i > 1) {... */\n    tag_24:\n        /* \"13_Errors.sol\":183:399  function testRevert(uint _i) public pure {... */\n      pop\n      jump\t// out\n        /* \"13_Errors.sol\":433:502  function testAssert() public view {... */\n    tag_13:\n        /* \"13_Errors.sol\":491:494  123 */\n      0x7b\n        /* \"13_Errors.sol\":484:487  num */\n      sload(0x00)\n        /* \"13_Errors.sol\":484:494  num == 123 */\n      eq\n        /* \"13_Errors.sol\":477:495  assert(num == 123) */\n      tag_30\n      jumpi\n      tag_31\n      tag_32\n      jump\t// in\n    tag_31:\n    tag_30:\n        /* \"13_Errors.sol\":433:502  function testAssert() public view {... */\n      jump\t// out\n        /* \"13_Errors.sol\":405:426  uint public num = 123 */\n    tag_15:\n      sload(0x00)\n      dup2\n      jump\t// out\n        /* \"13_Errors.sol\":90:177  function testRequire(uint _i) public pure {... */\n    tag_20:\n        /* \"13_Errors.sol\":156:158  10 */\n      0x0a\n        /* \"13_Errors.sol\":150:152  _i */\n      dup2\n        /* \"13_Errors.sol\":150:158  _i <= 10 */\n      gt\n      iszero\n        /* \"13_Errors.sol\":142:169  require(_i <= 10, \"i > 10\") */\n      tag_34\n      jumpi\n      mload(0x40)\n      0x08c379a000000000000000000000000000000000000000000000000000000000\n      dup2\n      mstore\n      0x04\n      add\n      tag_35\n      swap1\n      tag_28\n      jump\t// in\n    tag_35:\n      mload(0x40)\n      dup1\n      swap2\n      sub\n      swap1\n      revert\n    tag_34:\n        /* \"13_Errors.sol\":90:177  function testRequire(uint _i) public pure {... */\n      pop\n      jump\t// out\n        /* \"13_Errors.sol\":508:555  function foo() public {... */\n    tag_22:\n        /* \"13_Errors.sol\":547:548  1 */\n      0x01\n        /* \"13_Errors.sol\":540:543  num */\n      0x00\n      dup1\n        /* \"13_Errors.sol\":540:548  num += 1 */\n      dup3\n      dup3\n      sload\n      tag_37\n      swap2\n      swap1\n      tag_38\n      jump\t// in\n    tag_37:\n      swap3\n      pop\n      pop\n      dup2\n      swap1\n      sstore\n      pop\n        /* \"13_Errors.sol\":508:555  function foo() public {... */\n      jump\t// out\n        /* \"#utility.yul\":7:146   */\n    tag_40:\n        /* \"#utility.yul\":53:58   */\n      0x00\n        /* \"#utility.yul\":91:97   */\n      dup2\n        /* \"#utility.yul\":78:98   */\n      calldataload\n        /* \"#utility.yul\":69:98   */\n      swap1\n      pop\n        /* \"#utility.yul\":107:140   */\n      tag_42\n        /* \"#utility.yul\":134:139   */\n      dup2\n        /* \"#utility.yul\":107:140   */\n      tag_43\n      jump\t// in\n    tag_42:\n        /* \"#utility.yul\":7:146   */\n      swap3\n      swap2\n      pop\n      pop\n      jump\t// out\n        /* \"#utility.yul\":152:481   */\n    tag_10:\n        /* \"#utility.yul\":211:217   */\n      0x00\n        /* \"#utility.yul\":260:262   */\n      0x20\n        /* \"#utility.yul\":248:257   */\n      dup3\n        /* \"#utility.yul\":239:246   */\n      dup5\n        /* \"#utility.yul\":235:258   */\n      sub\n        /* \"#utility.yul\":231:263   */\n      slt\n        /* \"#utility.yul\":228:347   */\n      iszero\n      tag_45\n      jumpi\n        /* \"#utility.yul\":266:345   */\n      tag_46\n      tag_47\n      jump\t// in\n    tag_46:\n        /* \"#utility.yul\":228:347   */\n    tag_45:\n        /* \"#utility.yul\":386:387   */\n      0x00\n        /* \"#utility.yul\":411:464   */\n      tag_48\n        /* \"#utility.yul\":456:463   */\n      dup5\n        /* \"#utility.yul\":447:453   */\n      dup3\n        /* \"#utility.yul\":436:445   */\n      dup6\n        /* \"#utility.yul\":432:454   */\n      add\n        /* \"#utility.yul\":411:464   */\n      tag_40\n      jump\t// in\n    tag_48:\n        /* \"#utility.yul\":401:464   */\n      swap2\n      pop\n        /* \"#utility.yul\":357:474   */\n      pop\n        /* \"#utility.yul\":152:481   */\n      swap3\n      swap2\n      pop\n      pop\n      jump\t// out\n        /* \"#utility.yul\":487:852   */\n    tag_49:\n        /* \"#utility.yul\":629:632   */\n      0x00\n        /* \"#utility.yul\":650:716   */\n      tag_51\n        /* \"#utility.yul\":714:715   */\n      0x06\n        /* \"#utility.yul\":709:712   */\n      dup4\n        /* \"#utility.yul\":650:716   */\n      tag_52\n      jump\t// in\n    tag_51:\n        /* \"#utility.yul\":643:716   */\n      swap2\n      pop\n        /* \"#utility.yul\":725:818   */\n      tag_53\n        /* \"#utility.yul\":814:817   */\n      dup3\n        /* \"#utility.yul\":725:818   */\n      tag_54\n      jump\t// in\n    tag_53:\n        /* \"#utility.yul\":843:845   */\n      0x20\n        /* \"#utility.yul\":838:841   */\n      dup3\n        /* \"#utility.yul\":834:846   */\n      add\n        /* \"#utility.yul\":827:846   */\n      swap1\n      pop\n        /* \"#utility.yul\":487:852   */\n      swap2\n      swap1\n      pop\n      jump\t// out\n        /* \"#utility.yul\":858:976   */\n    tag_55:\n        /* \"#utility.yul\":945:969   */\n      tag_57\n        /* \"#utility.yul\":963:968   */\n      dup2\n        /* \"#utility.yul\":945:969   */\n      tag_58\n      jump\t// in\n    tag_57:\n        /* \"#utility.yul\":940:943   */\n      dup3\n        /* \"#utility.yul\":933:970   */\n      mstore\n        /* \"#utility.yul\":858:976   */\n      pop\n      pop\n      jump\t// out\n        /* \"#utility.yul\":982:1401   */\n    tag_28:\n        /* \"#utility.yul\":1148:1152   */\n      0x00\n        /* \"#utility.yul\":1186:1188   */\n      0x20\n        /* \"#utility.yul\":1175:1184   */\n      dup3\n        /* \"#utility.yul\":1171:1189   */\n      add\n        /* \"#utility.yul\":1163:1189   */\n      swap1\n      pop\n        /* \"#utility.yul\":1235:1244   */\n      dup2\n        /* \"#utility.yul\":1229:1233   */\n      dup2\n        /* \"#utility.yul\":1225:1245   */\n      sub\n        /* \"#utility.yul\":1221:1222   */\n      0x00\n        /* \"#utility.yul\":1210:1219   */\n      dup4\n        /* \"#utility.yul\":1206:1223   */\n      add\n        /* \"#utility.yul\":1199:1246   */\n      mstore\n        /* \"#utility.yul\":1263:1394   */\n      tag_60\n        /* \"#utility.yul\":1389:1393   */\n      dup2\n        /* \"#utility.yul\":1263:1394   */\n      tag_49\n      jump\t// in\n    tag_60:\n        /* \"#utility.yul\":1255:1394   */\n      swap1\n      pop\n        /* \"#utility.yul\":982:1401   */\n      swap2\n      swap1\n      pop\n      jump\t// out\n        /* \"#utility.yul\":1407:1629   */\n    tag_17:\n        /* \"#utility.yul\":1500:1504   */\n      0x00\n        /* \"#utility.yul\":1538:1540   */\n      0x20\n        /* \"#utility.yul\":1527:1536   */\n      dup3\n        /* \"#utility.yul\":1523:1541   */\n      add\n        /* \"#utility.yul\":1515:1541   */\n      swap1\n      pop\n        /* \"#utility.yul\":1551:1622   */\n      tag_62\n        /* \"#utility.yul\":1619:1620   */\n      0x00\n        /* \"#utility.yul\":1608:1617   */\n      dup4\n        /* \"#utility.yul\":1604:1621   */\n      add\n        /* \"#utility.yul\":1595:1601   */\n      dup5\n        /* \"#utility.yul\":1551:1622   */\n      tag_55\n      jump\t// in\n    tag_62:\n        /* \"#utility.yul\":1407:1629   */\n      swap3\n      swap2\n      pop\n      pop\n      jump\t// out\n        /* \"#utility.yul\":1716:1885   */\n    tag_52:\n        /* \"#utility.yul\":1800:1811   */\n      0x00\n        /* \"#utility.yul\":1834:1840   */\n      dup3\n        /* \"#utility.yul\":1829:1832   */\n      dup3\n        /* \"#utility.yul\":1822:1841   */\n      mstore\n        /* \"#utility.yul\":1874:1878   */\n      0x20\n        /* \"#utility.yul\":1869:1872   */\n      dup3\n        /* \"#utility.yul\":1865:1879   */\n      add\n        /* \"#utility.yul\":1850:1879   */\n      swap1\n      pop\n        /* \"#utility.yul\":1716:1885   */\n      swap3\n      swap2\n      pop\n      pop\n      jump\t// out\n        /* \"#utility.yul\":1891:2196   */\n    tag_38:\n        /* \"#utility.yul\":1931:1934   */\n      0x00\n        /* \"#utility.yul\":1950:1970   */\n      tag_67\n        /* \"#utility.yul\":1968:1969   */\n      dup3\n        /* \"#utility.yul\":1950:1970   */\n      tag_58\n      jump\t// in\n    tag_67:\n        /* \"#utility.yul\":1945:1970   */\n      swap2\n      pop\n        /* \"#utility.yul\":1984:2004   */\n      tag_68\n        /* \"#utility.yul\":2002:2003   */\n      dup4\n        /* \"#utility.yul\":1984:2004   */\n      tag_58\n      jump\t// in\n    tag_68:\n        /* \"#utility.yul\":1979:2004   */\n      swap3\n      pop\n        /* \"#utility.yul\":2138:2139   */\n      dup3\n        /* \"#utility.yul\":2070:2136   */\n      0xffffffffffffffffffffffffffffffffffffffffffffffffffffffffffffffff\n        /* \"#utility.yul\":2066:2140   */\n      sub\n        /* \"#utility.yul\":2063:2064   */\n      dup3\n        /* \"#utility.yul\":2060:2141   */\n      gt\n        /* \"#utility.yul\":2057:2164   */\n      iszero\n      tag_69\n      jumpi\n        /* \"#utility.yul\":2144:2162   */\n      tag_70\n      tag_71\n      jump\t// in\n    tag_70:\n        /* \"#utility.yul\":2057:2164   */\n    tag_69:\n        /* \"#utility.yul\":2188:2189   */\n      dup3\n        /* \"#utility.yul\":2185:2186   */\n      dup3\n        /* \"#utility.yul\":2181:2190   */\n      add\n        /* \"#utility.yul\":2174:2190   */\n      swap1\n      pop\n        /* \"#utility.yul\":1891:2196   */\n      swap3\n      swap2\n      pop\n      pop\n      jump\t// out\n        /* \"#utility.yul\":2202:2279   */\n    tag_58:\n        /* \"#utility.yul\":2239:2246   */\n      0x00\n        /* \"#utility.yul\":2268:2273   */\n      dup2\n        /* \"#utility.yul\":2257:2273   */\n      swap1\n      pop\n        /* \"#utility.yul\":2202:2279   */\n      swap2\n      swap1\n      pop\n      jump\t// out\n        /* \"#utility.yul\":2285:2465   */\n    tag_32:\n        /* \"#utility.yul\":2333:2410   */\n      0x4e487b7100000000000000000000000000000000000000000000000000000000\n        /* \"#utility.yul\":2330:2331   */\n      0x00\n        /* \"#utility.yul\":2323:2411   */\n      mstore\n        /* \"#utility.yul\":2430:2434   */\n      0x01\n        /* \"#utility.yul\":2427:2428   */\n      0x04\n        /* \"#utility.yul\":2420:2435   */\n      mstore\n        /* \"#utility.yul\":2454:2458   */\n      0x24\n        /* \"#utility.yul\":2451:2452   */\n      0x00\n        /* \"#utility.yul\":2444:2459   */\n      revert\n        /* \"#utility.yul\":2471:2651   */\n    tag_71:\n        /* \"#utility.yul\":2519:2596   */\n      0x4e487b7100000000000000000000000000000000000000000000000000000000\n        /* \"#utility.yul\":2516:2517   */\n      0x00\n        /* \"#utility.yul\":2509:2597   */\n      mstore\n        /* \"#utility.yul\":2616:2620   */\n      0x11\n        /* \"#utility.yul\":2613:2614   */\n      0x04\n        /* \"#utility.yul\":2606:2621   */\n      mstore\n        /* \"#utility.yul\":2640:2644   */\n      0x24\n        /* \"#utility.yul\":2637:2638   */\n      0x00\n        /* \"#utility.yul\":2630:2645   */\n      revert\n        /* \"#utility.yul\":2780:2897   */\n    tag_47:\n        /* \"#utility.yul\":2889:2890   */\n      0x00\n        /* \"#utility.yul\":2886:2887   */\n      dup1\n        /* \"#utility.yul\":2879:2891   */\n      revert\n        /* \"#utility.yul\":2903:3059   */\n    tag_54:\n        /* \"#utility.yul\":3043:3051   */\n      0x69203e2031300000000000000000000000000000000000000000000000000000\n        /* \"#utility.yul\":3039:3040   */\n      0x00\n        /* \"#utility.yul\":3031:3037   */\n      dup3\n        /* \"#utility.yul\":3027:3041   */\n      add\n        /* \"#utility.yul\":3020:3052   */\n      mstore\n        /* \"#utility.yul\":2903:3059   */\n      pop\n      jump\t// out\n        /* \"#utility.yul\":3065:3187   */\n    tag_43:\n        /* \"#utility.yul\":3138:3162   */\n      tag_80\n        /* \"#utility.yul\":3156:3161   */\n      dup2\n        /* \"#utility.yul\":3138:3162   */\n      tag_58\n      jump\t// in\n    tag_80:\n        /* \"#utility.yul\":3131:3136   */\n      dup2\n        /* \"#utility.yul\":3128:3163   */\n      eq\n        /* \"#utility.yul\":3118:3181   */\n      tag_81\n      jumpi\n        /* \"#utility.yul\":3177:3178   */\n      0x00\n        /* \"#utility.yul\":3174:3175   */\n      dup1\n        /* \"#utility.yul\":3167:3179   */\n      revert\n        /* \"#utility.yul\":3118:3181   */\n    tag_81:\n        /* \"#utility.yul\":3065:3187   */\n      pop\n      jump\t// out\n\n    auxdata: 0xa26469706673582212208563bb14375b52fc6f211e93367ca53f1e8cc0d5bfb9a5d7a662bf80da5cd47864736f6c63430008070033\n}\n",
				"bytecode": {
					"linkReferences": {},
					"object": "6080604052607b60005534801561001557600080fd5b50610397806100256000396000f3fe608060405234801561001057600080fd5b50600436106100575760003560e01c8063209877671461005c5780632b813bc0146100785780634e70b1dc14610082578063b8bd717f146100a0578063c2985578146100bc575b600080fd5b610076600480360381019061007191906101b3565b6100c6565b005b610080610121565b005b61008a610136565b6040516100979190610232565b60405180910390f35b6100ba60048036038101906100b591906101b3565b61013c565b005b6100c4610183565b005b600181111561011e57600281111561011d57600a81111561011c576040517f08c379a000000000000000000000000000000000000000000000000000000000815260040161011390610212565b60405180910390fd5b5b5b50565b607b60005414610134576101336102be565b5b565b60005481565b600a811115610180576040517f08c379a000000000000000000000000000000000000000000000000000000000815260040161017790610212565b60405180910390fd5b50565b6001600080828254610195919061025e565b92505081905550565b6000813590506101ad8161034a565b92915050565b6000602082840312156101c9576101c861031c565b5b60006101d78482850161019e565b91505092915050565b60006101ed60068361024d565b91506101f882610321565b602082019050919050565b61020c816102b4565b82525050565b6000602082019050818103600083015261022b816101e0565b9050919050565b60006020820190506102476000830184610203565b92915050565b600082825260208201905092915050565b6000610269826102b4565b9150610274836102b4565b9250827fffffffffffffffffffffffffffffffffffffffffffffffffffffffffffffffff038211156102a9576102a86102ed565b5b828201905092915050565b6000819050919050565b7f4e487b7100000000000000000000000000000000000000000000000000000000600052600160045260246000fd5b7f4e487b7100000000000000000000000000000000000000000000000000000000600052601160045260246000fd5b600080fd5b7f69203e2031300000000000000000000000000000000000000000000000000000600082015250565b610353816102b4565b811461035e57600080fd5b5056fea26469706673582212208563bb14375b52fc6f211e93367ca53f1e8cc0d5bfb9a5d7a662bf80da5cd47864736f6c63430008070033",
					"opcodes": "PUSH1 0x80 PUSH1 0x40 MSTORE PUSH1 0x7B PUSH1 0x0 SSTORE CALLVALUE DUP1 ISZERO PUSH2 0x15 JUMPI PUSH1 0x0 DUP1 REVERT JUMPDEST POP PUSH2 0x397 DUP1 PUSH2 0x25 PUSH1 0x0 CODECOPY PUSH1 0x0 RETURN INVALID PUSH1 0x80 PUSH1 0x40 MSTORE CALLVALUE DUP1 ISZERO PUSH2 0x10 JUMPI PUSH1 0x0 DUP1 REVERT JUMPDEST POP PUSH1 0x4 CALLDATASIZE LT PUSH2 0x57 JUMPI PUSH1 0x0 CALLDATALOAD PUSH1 0xE0 SHR DUP1 PUSH4 0x20987767 EQ PUSH2 0x5C JUMPI DUP1 PUSH4 0x2B813BC0 EQ PUSH2 0x78 JUMPI DUP1 PUSH4 0x4E70B1DC EQ PUSH2 0x82 JUMPI DUP1 PUSH4 0xB8BD717F EQ PUSH2 0xA0 JUMPI DUP1 PUSH4 0xC2985578 EQ PUSH2 0xBC JUMPI JUMPDEST PUSH1 0x0 DUP1 REVERT JUMPDEST PUSH2 0x76 PUSH1 0x4 DUP1 CALLDATASIZE SUB DUP2 ADD SWAP1 PUSH2 0x71 SWAP2 SWAP1 PUSH2 0x1B3 JUMP JUMPDEST PUSH2 0xC6 JUMP JUMPDEST STOP JUMPDEST PUSH2 0x80 PUSH2 0x121 JUMP JUMPDEST STOP JUMPDEST PUSH2 0x8A PUSH2 0x136 JUMP JUMPDEST PUSH1 0x40 MLOAD PUSH2 0x97 SWAP2 SWAP1 PUSH2 0x232 JUMP JUMPDEST PUSH1 0x40 MLOAD DUP1 SWAP2 SUB SWAP1 RETURN JUMPDEST PUSH2 0xBA PUSH1 0x4 DUP1 CALLDATASIZE SUB DUP2 ADD SWAP1 PUSH2 0xB5 SWAP2 SWAP1 PUSH2 0x1B3 JUMP JUMPDEST PUSH2 0x13C JUMP JUMPDEST STOP JUMPDEST PUSH2 0xC4 PUSH2 0x183 JUMP JUMPDEST STOP JUMPDEST PUSH1 0x1 DUP2 GT ISZERO PUSH2 0x11E JUMPI PUSH1 0x2 DUP2 GT ISZERO PUSH2 0x11D JUMPI PUSH1 0xA DUP2 GT ISZERO PUSH2 0x11C JUMPI PUSH1 0x40 MLOAD PUSH32 0x8C379A000000000000000000000000000000000000000000000000000000000 DUP2 MSTORE PUSH1 0x4 ADD PUSH2 0x113 SWAP1 PUSH2 0x212 JUMP JUMPDEST PUSH1 0x40 MLOAD DUP1 SWAP2 SUB SWAP1 REVERT JUMPDEST JUMPDEST JUMPDEST POP JUMP JUMPDEST PUSH1 0x7B PUSH1 0x0 SLOAD EQ PUSH2 0x134 JUMPI PUSH2 0x133 PUSH2 0x2BE JUMP JUMPDEST JUMPDEST JUMP JUMPDEST PUSH1 0x0 SLOAD DUP2 JUMP JUMPDEST PUSH1 0xA DUP2 GT ISZERO PUSH2 0x180 JUMPI PUSH1 0x40 MLOAD PUSH32 0x8C379A000000000000000000000000000000000000000000000000000000000 DUP2 MSTORE PUSH1 0x4 ADD PUSH2 0x177 SWAP1 PUSH2 0x212 JUMP JUMPDEST PUSH1 0x40 MLOAD DUP1 SWAP2 SUB SWAP1 REVERT JUMPDEST POP JUMP JUMPDEST PUSH1 0x1 PUSH1 0x0 DUP1 DUP3 DUP3 SLOAD PUSH2 0x195 SWAP2 SWAP1 PUSH2 0x25E JUMP JUMPDEST SWAP3 POP POP DUP2 SWAP1 SSTORE POP JUMP JUMPDEST PUSH1 0x0 DUP2 CALLDATALOAD SWAP1 POP PUSH2 0x1AD DUP2 PUSH2 0x34A JUMP JUMPDEST SWAP3 SWAP2 POP POP JUMP JUMPDEST PUSH1 0x0 PUSH1 0x20 DUP3 DUP5 SUB SLT ISZERO PUSH2 0x1C9 JUMPI PUSH2 0x1C8 PUSH2 0x31C JUMP JUMPDEST JUMPDEST PUSH1 0x0 PUSH2 0x1D7 DUP5 DUP3 DUP6 ADD PUSH2 0x19E JUMP JUMPDEST SWAP2 POP POP SWAP3 SWAP2 POP POP JUMP JUMPDEST PUSH1 0x0 PUSH2 0x1ED PUSH1 0x6 DUP4 PUSH2 0x24D JUMP JUMPDEST SWAP2 POP PUSH2 0x1F8 DUP3 PUSH2 0x321 JUMP JUMPDEST PUSH1 0x20 DUP3 ADD SWAP1 POP SWAP2 SWAP1 POP JUMP JUMPDEST PUSH2 0x20C DUP2 PUSH2 0x2B4 JUMP JUMPDEST DUP3 MSTORE POP POP JUMP JUMPDEST PUSH1 0x0 PUSH1 0x20 DUP3 ADD SWAP1 POP DUP2 DUP2 SUB PUSH1 0x0 DUP4 ADD MSTORE PUSH2 0x22B DUP2 PUSH2 0x1E0 JUMP JUMPDEST SWAP1 POP SWAP2 SWAP1 POP JUMP JUMPDEST PUSH1 0x0 PUSH1 0x20 DUP3 ADD SWAP1 POP PUSH2 0x247 PUSH1 0x0 DUP4 ADD DUP5 PUSH2 0x203 JUMP JUMPDEST SWAP3 SWAP2 POP POP JUMP JUMPDEST PUSH1 0x0 DUP3 DUP3 MSTORE PUSH1 0x20 DUP3 ADD SWAP1 POP SWAP3 SWAP2 POP POP JUMP JUMPDEST PUSH1 0x0 PUSH2 0x269 DUP3 PUSH2 0x2B4 JUMP JUMPDEST SWAP2 POP PUSH2 0x274 DUP4 PUSH2 0x2B4 JUMP JUMPDEST SWAP3 POP DUP3 PUSH32 0xFFFFFFFFFFFFFFFFFFFFFFFFFFFFFFFFFFFFFFFFFFFFFFFFFFFFFFFFFFFFFFFF SUB DUP3 GT ISZERO PUSH2 0x2A9 JUMPI PUSH2 0x2A8 PUSH2 0x2ED JUMP JUMPDEST JUMPDEST DUP3 DUP3 ADD SWAP1 POP SWAP3 SWAP2 POP POP JUMP JUMPDEST PUSH1 0x0 DUP2 SWAP1 POP SWAP2 SWAP1 POP JUMP JUMPDEST PUSH32 0x4E487B7100000000000000000000000000000000000000000000000000000000 PUSH1 0x0 MSTORE PUSH1 0x1 PUSH1 0x4 MSTORE PUSH1 0x24 PUSH1 0x0 REVERT JUMPDEST PUSH32 0x4E487B7100000000000000000000000000000000000000000000000000000000 PUSH1 0x0 MSTORE PUSH1 0x11 PUSH1 0x4 MSTORE PUSH1 0x24 PUSH1 0x0 REVERT JUMPDEST PUSH1 0x0 DUP1 REVERT JUMPDEST PUSH32 0x69203E2031300000000000000000000000000000000000000000000000000000 PUSH1 0x0 DUP3 ADD MSTORE POP JUMP JUMPDEST PUSH2 0x353 DUP2 PUSH2 0x2B4 JUMP JUMPDEST DUP2 EQ PUSH2 0x35E JUMPI PUSH1 0x0 DUP1 REVERT JUMPDEST POP JUMP INVALID LOG2 PUSH5 0x6970667358 0x22 SLT KECCAK256 DUP6 PUSH4 0xBB14375B MSTORE 0xFC PUSH16 0x211E93367CA53F1E8CC0D5BFB9A5D7A6 PUSH3 0xBF80DA 0x5C 0xD4 PUSH25 0x64736F6C634300080700330000000000000000000000000000 "
				},
				"gasEstimates": {
					"creation": {
						"codeDepositCost": "183800",
						"executionCost": "22332",
						"totalCost": "206132"
					},
					"external": {
						"foo()": "infinite",
						"num()": "2451",
						"testAssert()": "2296",
						"testRequire(uint256)": "763",
						"testRevert(uint256)": "747"
					}
				},
				"methodIdentifiers": {
					"foo()": "c2985578",
					"num()": "4e70b1dc",
					"testAssert()": "2b813bc0",
					"testRequire(uint256)": "b8bd717f",
					"testRevert(uint256)": "20987767"
				}
			},
			"storageLayout": {
				"storage": [
					{
						"astId": 42,
						"contract": "13_Errors.sol:Error",
						"label": "num",
						"offset": 0,
						"slot": "0",
						"type": "t_uint256"
					}
				],
				"types": {
					"t_uint256": {
						"encoding": "inplace",
						"label": "uint256",
						"numberOfBytes": "32"
					}
				}
			},
			"userdoc": {
				"kind": "user",
				"methods": {},
				"version": 1
			}
		}
	}
}