{
	"13_Errors.sol": {
		"Error": {
			"abi": [
				{
					"inputs": [],
					"name": "num",
					"outputs": [
						{
							"internalType": "uint256",
							"name": "",
							"type": "uint256"
						}
					],
					"stateMutability": "view",
					"type": "function"
				},
				{
					"inputs": [],
					"name": "testAssert",
					"outputs": [],
					"stateMutability": "view",
					"type": "function"
				},
				{
					"inputs": [
						{
							"internalType": "uint256",
							"name": "_i",
							"type": "uint256"
						}
					],
					"name": "testRequire",
					"outputs": [],
					"stateMutability": "pure",
					"type": "function"
				},
				{
					"inputs": [
						{
							"internalType": "uint256",
							"name": "_i",
							"type": "uint256"
						}
					],
					"name": "testRevert",
					"outputs": [],
					"stateMutability": "pure",
					"type": "function"
				}
			],
			"devdoc": {
				"kind": "dev",
				"methods": {},
				"version": 1
			},
			"evm": {
				"assembly": "    /* \"13_Errors.sol\":66:507  contract Error {... */\n  mstore(0x40, 0x80)\n    /* \"13_Errors.sol\":420:423  123 */\n  0x7b\n    /* \"13_Errors.sol\":402:423  uint public num = 123 */\n  0x00\n  sstore\n    /* \"13_Errors.sol\":66:507  contract Error {... */\n  callvalue\n  dup1\n  iszero\n  tag_1\n  jumpi\n  0x00\n  dup1\n  revert\ntag_1:\n  pop\n  dataSize(sub_0)\n  dup1\n  dataOffset(sub_0)\n  0x00\n  codecopy\n  0x00\n  return\nstop\n\nsub_0: assembly {\n        /* \"13_Errors.sol\":66:507  contract Error {... */\n      mstore(0x40, 0x80)\n      callvalue\n      dup1\n      iszero\n      tag_1\n      jumpi\n      0x00\n      dup1\n      revert\n    tag_1:\n      pop\n      jumpi(tag_2, lt(calldatasize, 0x04))\n      shr(0xe0, calldataload(0x00))\n      dup1\n      0x20987767\n      eq\n      tag_3\n      jumpi\n      dup1\n      0x2b813bc0\n      eq\n      tag_4\n      jumpi\n      dup1\n      0x4e70b1dc\n      eq\n      tag_5\n      jumpi\n      dup1\n      0xb8bd717f\n      eq\n      tag_6\n      jumpi\n    tag_2:\n      0x00\n      dup1\n      revert\n        /* \"13_Errors.sol\":180:396  function testRevert(uint _i) public pure {... */\n    tag_3:\n      tag_7\n      0x04\n      dup1\n      calldatasize\n      sub\n      dup2\n      add\n      swap1\n      tag_8\n      swap2\n      swap1\n      tag_9\n      jump\t// in\n    tag_8:\n      tag_10\n      jump\t// in\n    tag_7:\n      stop\n        /* \"13_Errors.sol\":430:499  function testAssert() public view {... */\n    tag_4:\n      tag_11\n      tag_12\n      jump\t// in\n    tag_11:\n      stop\n        /* \"13_Errors.sol\":402:423  uint public num = 123 */\n    tag_5:\n      tag_13\n      tag_14\n      jump\t// in\n    tag_13:\n      mload(0x40)\n      tag_15\n      swap2\n      swap1\n      tag_16\n      jump\t// in\n    tag_15:\n      mload(0x40)\n      dup1\n      swap2\n      sub\n      swap1\n      return\n        /* \"13_Errors.sol\":87:174  function testRequire(uint _i) public pure {... */\n    tag_6:\n      tag_17\n      0x04\n      dup1\n      calldatasize\n      sub\n      dup2\n      add\n      swap1\n      tag_18\n      swap2\n      swap1\n      tag_9\n      jump\t// in\n    tag_18:\n      tag_19\n      jump\t// in\n    tag_17:\n      stop\n        /* \"13_Errors.sol\":180:396  function testRevert(uint _i) public pure {... */\n    tag_10:\n        /* \"13_Errors.sol\":240:241  1 */\n      0x01\n        /* \"13_Errors.sol\":235:237  _i */\n      dup2\n        /* \"13_Errors.sol\":235:241  _i > 1 */\n      gt\n        /* \"13_Errors.sol\":231:381  if (_i > 1) {... */\n      iszero\n      tag_21\n      jumpi\n        /* \"13_Errors.sol\":266:267  2 */\n      0x02\n        /* \"13_Errors.sol\":261:263  _i */\n      dup2\n        /* \"13_Errors.sol\":261:267  _i > 2 */\n      gt\n        /* \"13_Errors.sol\":257:371  if (_i > 2) {... */\n      iszero\n      tag_22\n      jumpi\n        /* \"13_Errors.sol\":296:298  10 */\n      0x0a\n        /* \"13_Errors.sol\":291:293  _i */\n      dup2\n        /* \"13_Errors.sol\":291:298  _i > 10 */\n      gt\n        /* \"13_Errors.sol\":287:357  if (_i > 10) {... */\n      iszero\n      tag_23\n      jumpi\n        /* \"13_Errors.sol\":322:338  revert(\"i > 10\") */\n      mload(0x40)\n      0x08c379a000000000000000000000000000000000000000000000000000000000\n      dup2\n      mstore\n      0x04\n      add\n      tag_24\n      swap1\n      tag_25\n      jump\t// in\n    tag_24:\n      mload(0x40)\n      dup1\n      swap2\n      sub\n      swap1\n      revert\n        /* \"13_Errors.sol\":287:357  if (_i > 10) {... */\n    tag_23:\n        /* \"13_Errors.sol\":257:371  if (_i > 2) {... */\n    tag_22:\n        /* \"13_Errors.sol\":231:381  if (_i > 1) {... */\n    tag_21:\n        /* \"13_Errors.sol\":180:396  function testRevert(uint _i) public pure {... */\n      pop\n      jump\t// out\n        /* \"13_Errors.sol\":430:499  function testAssert() public view {... */\n    tag_12:\n        /* \"13_Errors.sol\":488:491  123 */\n      0x7b\n        /* \"13_Errors.sol\":481:484  num */\n      sload(0x00)\n        /* \"13_Errors.sol\":481:491  num == 123 */\n      eq\n        /* \"13_Errors.sol\":474:492  assert(num == 123) */\n      tag_27\n      jumpi\n      tag_28\n      tag_29\n      jump\t// in\n    tag_28:\n    tag_27:\n        /* \"13_Errors.sol\":430:499  function testAssert() public view {... */\n      jump\t// out\n        /* \"13_Errors.sol\":402:423  uint public num = 123 */\n    tag_14:\n      sload(0x00)\n      dup2\n      jump\t// out\n        /* \"13_Errors.sol\":87:174  function testRequire(uint _i) public pure {... */\n    tag_19:\n        /* \"13_Errors.sol\":153:155  10 */\n      0x0a\n        /* \"13_Errors.sol\":147:149  _i */\n      dup2\n        /* \"13_Errors.sol\":147:155  _i <= 10 */\n      gt\n      iszero\n        /* \"13_Errors.sol\":139:166  require(_i <= 10, \"i > 10\") */\n      tag_31\n      jumpi\n      mload(0x40)\n      0x08c379a000000000000000000000000000000000000000000000000000000000\n      dup2\n      mstore\n      0x04\n      add\n      tag_32\n      swap1\n      tag_25\n      jump\t// in\n    tag_32:\n      mload(0x40)\n      dup1\n      swap2\n      sub\n      swap1\n      revert\n    tag_31:\n        /* \"13_Errors.sol\":87:174  function testRequire(uint _i) public pure {... */\n      pop\n      jump\t// out\n        /* \"#utility.yul\":7:146   */\n    tag_34:\n        /* \"#utility.yul\":53:58   */\n      0x00\n        /* \"#utility.yul\":91:97   */\n      dup2\n        /* \"#utility.yul\":78:98   */\n      calldataload\n        /* \"#utility.yul\":69:98   */\n      swap1\n      pop\n        /* \"#utility.yul\":107:140   */\n      tag_36\n        /* \"#utility.yul\":134:139   */\n      dup2\n        /* \"#utility.yul\":107:140   */\n      tag_37\n      jump\t// in\n    tag_36:\n        /* \"#utility.yul\":7:146   */\n      swap3\n      swap2\n      pop\n      pop\n      jump\t// out\n        /* \"#utility.yul\":152:481   */\n    tag_9:\n        /* \"#utility.yul\":211:217   */\n      0x00\n        /* \"#utility.yul\":260:262   */\n      0x20\n        /* \"#utility.yul\":248:257   */\n      dup3\n        /* \"#utility.yul\":239:246   */\n      dup5\n        /* \"#utility.yul\":235:258   */\n      sub\n        /* \"#utility.yul\":231:263   */\n      slt\n        /* \"#utility.yul\":228:347   */\n      iszero\n      tag_39\n      jumpi\n        /* \"#utility.yul\":266:345   */\n      tag_40\n      tag_41\n      jump\t// in\n    tag_40:\n        /* \"#utility.yul\":228:347   */\n    tag_39:\n        /* \"#utility.yul\":386:387   */\n      0x00\n        /* \"#utility.yul\":411:464   */\n      tag_42\n        /* \"#utility.yul\":456:463   */\n      dup5\n        /* \"#utility.yul\":447:453   */\n      dup3\n        /* \"#utility.yul\":436:445   */\n      dup6\n        /* \"#utility.yul\":432:454   */\n      add\n        /* \"#utility.yul\":411:464   */\n      tag_34\n      jump\t// in\n    tag_42:\n        /* \"#utility.yul\":401:464   */\n      swap2\n      pop\n        /* \"#utility.yul\":357:474   */\n      pop\n        /* \"#utility.yul\":152:481   */\n      swap3\n      swap2\n      pop\n      pop\n      jump\t// out\n        /* \"#utility.yul\":487:852   */\n    tag_43:\n        /* \"#utility.yul\":629:632   */\n      0x00\n        /* \"#utility.yul\":650:716   */\n      tag_45\n        /* \"#utility.yul\":714:715   */\n      0x06\n        /* \"#utility.yul\":709:712   */\n      dup4\n        /* \"#utility.yul\":650:716   */\n      tag_46\n      jump\t// in\n    tag_45:\n        /* \"#utility.yul\":643:716   */\n      swap2\n      pop\n        /* \"#utility.yul\":725:818   */\n      tag_47\n        /* \"#utility.yul\":814:817   */\n      dup3\n        /* \"#utility.yul\":725:818   */\n      tag_48\n      jump\t// in\n    tag_47:\n        /* \"#utility.yul\":843:845   */\n      0x20\n        /* \"#utility.yul\":838:841   */\n      dup3\n        /* \"#utility.yul\":834:846   */\n      add\n        /* \"#utility.yul\":827:846   */\n      swap1\n      pop\n        /* \"#utility.yul\":487:852   */\n      swap2\n      swap1\n      pop\n      jump\t// out\n        /* \"#utility.yul\":858:976   */\n    tag_49:\n        /* \"#utility.yul\":945:969   */\n      tag_51\n        /* \"#utility.yul\":963:968   */\n      dup2\n        /* \"#utility.yul\":945:969   */\n      tag_52\n      jump\t// in\n    tag_51:\n        /* \"#utility.yul\":940:943   */\n      dup3\n        /* \"#utility.yul\":933:970   */\n      mstore\n        /* \"#utility.yul\":858:976   */\n      pop\n      pop\n      jump\t// out\n        /* \"#utility.yul\":982:1401   */\n    tag_25:\n        /* \"#utility.yul\":1148:1152   */\n      0x00\n        /* \"#utility.yul\":1186:1188   */\n      0x20\n        /* \"#utility.yul\":1175:1184   */\n      dup3\n        /* \"#utility.yul\":1171:1189   */\n      add\n        /* \"#utility.yul\":1163:1189   */\n      swap1\n      pop\n        /* \"#utility.yul\":1235:1244   */\n      dup2\n        /* \"#utility.yul\":1229:1233   */\n      dup2\n        /* \"#utility.yul\":1225:1245   */\n      sub\n        /* \"#utility.yul\":1221:1222   */\n      0x00\n        /* \"#utility.yul\":1210:1219   */\n      dup4\n        /* \"#utility.yul\":1206:1223   */\n      add\n        /* \"#utility.yul\":1199:1246   */\n      mstore\n        /* \"#utility.yul\":1263:1394   */\n      tag_54\n        /* \"#utility.yul\":1389:1393   */\n      dup2\n        /* \"#utility.yul\":1263:1394   */\n      tag_43\n      jump\t// in\n    tag_54:\n        /* \"#utility.yul\":1255:1394   */\n      swap1\n      pop\n        /* \"#utility.yul\":982:1401   */\n      swap2\n      swap1\n      pop\n      jump\t// out\n        /* \"#utility.yul\":1407:1629   */\n    tag_16:\n        /* \"#utility.yul\":1500:1504   */\n      0x00\n        /* \"#utility.yul\":1538:1540   */\n      0x20\n        /* \"#utility.yul\":1527:1536   */\n      dup3\n        /* \"#utility.yul\":1523:1541   */\n      add\n        /* \"#utility.yul\":1515:1541   */\n      swap1\n      pop\n        /* \"#utility.yul\":1551:1622   */\n      tag_56\n        /* \"#utility.yul\":1619:1620   */\n      0x00\n        /* \"#utility.yul\":1608:1617   */\n      dup4\n        /* \"#utility.yul\":1604:1621   */\n      add\n        /* \"#utility.yul\":1595:1601   */\n      dup5\n        /* \"#utility.yul\":1551:1622   */\n      tag_49\n      jump\t// in\n    tag_56:\n        /* \"#utility.yul\":1407:1629   */\n      swap3\n      swap2\n      pop\n      pop\n      jump\t// out\n        /* \"#utility.yul\":1716:1885   */\n    tag_46:\n        /* \"#utility.yul\":1800:1811   */\n      0x00\n        /* \"#utility.yul\":1834:1840   */\n      dup3\n        /* \"#utility.yul\":1829:1832   */\n      dup3\n        /* \"#utility.yul\":1822:1841   */\n      mstore\n        /* \"#utility.yul\":1874:1878   */\n      0x20\n        /* \"#utility.yul\":1869:1872   */\n      dup3\n        /* \"#utility.yul\":1865:1879   */\n      add\n        /* \"#utility.yul\":1850:1879   */\n      swap1\n      pop\n        /* \"#utility.yul\":1716:1885   */\n      swap3\n      swap2\n      pop\n      pop\n      jump\t// out\n        /* \"#utility.yul\":1891:1968   */\n    tag_52:\n        /* \"#utility.yul\":1928:1935   */\n      0x00\n        /* \"#utility.yul\":1957:1962   */\n      dup2\n        /* \"#utility.yul\":1946:1962   */\n      swap1\n      pop\n        /* \"#utility.yul\":1891:1968   */\n      swap2\n      swap1\n      pop\n      jump\t// out\n        /* \"#utility.yul\":1974:2154   */\n    tag_29:\n        /* \"#utility.yul\":2022:2099   */\n      0x4e487b7100000000000000000000000000000000000000000000000000000000\n        /* \"#utility.yul\":2019:2020   */\n      0x00\n        /* \"#utility.yul\":2012:2100   */\n      mstore\n        /* \"#utility.yul\":2119:2123   */\n      0x01\n        /* \"#utility.yul\":2116:2117   */\n      0x04\n        /* \"#utility.yul\":2109:2124   */\n      mstore\n        /* \"#utility.yul\":2143:2147   */\n      0x24\n        /* \"#utility.yul\":2140:2141   */\n      0x00\n        /* \"#utility.yul\":2133:2148   */\n      revert\n        /* \"#utility.yul\":2283:2400   */\n    tag_41:\n        /* \"#utility.yul\":2392:2393   */\n      0x00\n        /* \"#utility.yul\":2389:2390   */\n      dup1\n        /* \"#utility.yul\":2382:2394   */\n      revert\n        /* \"#utility.yul\":2406:2562   */\n    tag_48:\n        /* \"#utility.yul\":2546:2554   */\n      0x69203e2031300000000000000000000000000000000000000000000000000000\n        /* \"#utility.yul\":2542:2543   */\n      0x00\n        /* \"#utility.yul\":2534:2540   */\n      dup3\n        /* \"#utility.yul\":2530:2544   */\n      add\n        /* \"#utility.yul\":2523:2555   */\n      mstore\n        /* \"#utility.yul\":2406:2562   */\n      pop\n      jump\t// out\n        /* \"#utility.yul\":2568:2690   */\n    tag_37:\n        /* \"#utility.yul\":2641:2665   */\n      tag_67\n        /* \"#utility.yul\":2659:2664   */\n      dup2\n        /* \"#utility.yul\":2641:2665   */\n      tag_52\n      jump\t// in\n    tag_67:\n        /* \"#utility.yul\":2634:2639   */\n      dup2\n        /* \"#utility.yul\":2631:2666   */\n      eq\n        /* \"#utility.yul\":2621:2684   */\n      tag_68\n      jumpi\n        /* \"#utility.yul\":2680:2681   */\n      0x00\n        /* \"#utility.yul\":2677:2678   */\n      dup1\n        /* \"#utility.yul\":2670:2682   */\n      revert\n        /* \"#utility.yul\":2621:2684   */\n    tag_68:\n        /* \"#utility.yul\":2568:2690   */\n      pop\n      jump\t// out\n\n    auxdata: 0xa264697066735822122053adcfaf4cf68c0495614770c034a7738cc224f5eec83efcf027d7c110699dcf64736f6c63430008070033\n}\n",
				"bytecode": {
					"linkReferences": {},
					"object": "6080604052607b60005534801561001557600080fd5b506102e2806100256000396000f3fe608060405234801561001057600080fd5b506004361061004c5760003560e01c806320987767146100515780632b813bc01461006d5780634e70b1dc14610077578063b8bd717f14610095575b600080fd5b61006b60048036038101906100669190610183565b6100b1565b005b61007561010c565b005b61007f610121565b60405161008c9190610202565b60405180910390f35b6100af60048036038101906100aa9190610183565b610127565b005b600181111561010957600281111561010857600a811115610107576040517f08c379a00000000000000000000000000000000000000000000000000000000081526004016100fe906101e2565b60405180910390fd5b5b5b50565b607b6000541461011f5761011e610238565b5b565b60005481565b600a81111561016b576040517f08c379a0000000000000000000000000000000000000000000000000000000008152600401610162906101e2565b60405180910390fd5b50565b60008135905061017d81610295565b92915050565b60006020828403121561019957610198610267565b5b60006101a78482850161016e565b91505092915050565b60006101bd60068361021d565b91506101c88261026c565b602082019050919050565b6101dc8161022e565b82525050565b600060208201905081810360008301526101fb816101b0565b9050919050565b600060208201905061021760008301846101d3565b92915050565b600082825260208201905092915050565b6000819050919050565b7f4e487b7100000000000000000000000000000000000000000000000000000000600052600160045260246000fd5b600080fd5b7f69203e2031300000000000000000000000000000000000000000000000000000600082015250565b61029e8161022e565b81146102a957600080fd5b5056fea264697066735822122053adcfaf4cf68c0495614770c034a7738cc224f5eec83efcf027d7c110699dcf64736f6c63430008070033",
					"opcodes": "PUSH1 0x80 PUSH1 0x40 MSTORE PUSH1 0x7B PUSH1 0x0 SSTORE CALLVALUE DUP1 ISZERO PUSH2 0x15 JUMPI PUSH1 0x0 DUP1 REVERT JUMPDEST POP PUSH2 0x2E2 DUP1 PUSH2 0x25 PUSH1 0x0 CODECOPY PUSH1 0x0 RETURN INVALID PUSH1 0x80 PUSH1 0x40 MSTORE CALLVALUE DUP1 ISZERO PUSH2 0x10 JUMPI PUSH1 0x0 DUP1 REVERT JUMPDEST POP PUSH1 0x4 CALLDATASIZE LT PUSH2 0x4C JUMPI PUSH1 0x0 CALLDATALOAD PUSH1 0xE0 SHR DUP1 PUSH4 0x20987767 EQ PUSH2 0x51 JUMPI DUP1 PUSH4 0x2B813BC0 EQ PUSH2 0x6D JUMPI DUP1 PUSH4 0x4E70B1DC EQ PUSH2 0x77 JUMPI DUP1 PUSH4 0xB8BD717F EQ PUSH2 0x95 JUMPI JUMPDEST PUSH1 0x0 DUP1 REVERT JUMPDEST PUSH2 0x6B PUSH1 0x4 DUP1 CALLDATASIZE SUB DUP2 ADD SWAP1 PUSH2 0x66 SWAP2 SWAP1 PUSH2 0x183 JUMP JUMPDEST PUSH2 0xB1 JUMP JUMPDEST STOP JUMPDEST PUSH2 0x75 PUSH2 0x10C JUMP JUMPDEST STOP JUMPDEST PUSH2 0x7F PUSH2 0x121 JUMP JUMPDEST PUSH1 0x40 MLOAD PUSH2 0x8C SWAP2 SWAP1 PUSH2 0x202 JUMP JUMPDEST PUSH1 0x40 MLOAD DUP1 SWAP2 SUB SWAP1 RETURN JUMPDEST PUSH2 0xAF PUSH1 0x4 DUP1 CALLDATASIZE SUB DUP2 ADD SWAP1 PUSH2 0xAA SWAP2 SWAP1 PUSH2 0x183 JUMP JUMPDEST PUSH2 0x127 JUMP JUMPDEST STOP JUMPDEST PUSH1 0x1 DUP2 GT ISZERO PUSH2 0x109 JUMPI PUSH1 0x2 DUP2 GT ISZERO PUSH2 0x108 JUMPI PUSH1 0xA DUP2 GT ISZERO PUSH2 0x107 JUMPI PUSH1 0x40 MLOAD PUSH32 0x8C379A000000000000000000000000000000000000000000000000000000000 DUP2 MSTORE PUSH1 0x4 ADD PUSH2 0xFE SWAP1 PUSH2 0x1E2 JUMP JUMPDEST PUSH1 0x40 MLOAD DUP1 SWAP2 SUB SWAP1 REVERT JUMPDEST JUMPDEST JUMPDEST POP JUMP JUMPDEST PUSH1 0x7B PUSH1 0x0 SLOAD EQ PUSH2 0x11F JUMPI PUSH2 0x11E PUSH2 0x238 JUMP JUMPDEST JUMPDEST JUMP JUMPDEST PUSH1 0x0 SLOAD DUP2 JUMP JUMPDEST PUSH1 0xA DUP2 GT ISZERO PUSH2 0x16B JUMPI PUSH1 0x40 MLOAD PUSH32 0x8C379A000000000000000000000000000000000000000000000000000000000 DUP2 MSTORE PUSH1 0x4 ADD PUSH2 0x162 SWAP1 PUSH2 0x1E2 JUMP JUMPDEST PUSH1 0x40 MLOAD DUP1 SWAP2 SUB SWAP1 REVERT JUMPDEST POP JUMP JUMPDEST PUSH1 0x0 DUP2 CALLDATALOAD SWAP1 POP PUSH2 0x17D DUP2 PUSH2 0x295 JUMP JUMPDEST SWAP3 SWAP2 POP POP JUMP JUMPDEST PUSH1 0x0 PUSH1 0x20 DUP3 DUP5 SUB SLT ISZERO PUSH2 0x199 JUMPI PUSH2 0x198 PUSH2 0x267 JUMP JUMPDEST JUMPDEST PUSH1 0x0 PUSH2 0x1A7 DUP5 DUP3 DUP6 ADD PUSH2 0x16E JUMP JUMPDEST SWAP2 POP POP SWAP3 SWAP2 POP POP JUMP JUMPDEST PUSH1 0x0 PUSH2 0x1BD PUSH1 0x6 DUP4 PUSH2 0x21D JUMP JUMPDEST SWAP2 POP PUSH2 0x1C8 DUP3 PUSH2 0x26C JUMP JUMPDEST PUSH1 0x20 DUP3 ADD SWAP1 POP SWAP2 SWAP1 POP JUMP JUMPDEST PUSH2 0x1DC DUP2 PUSH2 0x22E JUMP JUMPDEST DUP3 MSTORE POP POP JUMP JUMPDEST PUSH1 0x0 PUSH1 0x20 DUP3 ADD SWAP1 POP DUP2 DUP2 SUB PUSH1 0x0 DUP4 ADD MSTORE PUSH2 0x1FB DUP2 PUSH2 0x1B0 JUMP JUMPDEST SWAP1 POP SWAP2 SWAP1 POP JUMP JUMPDEST PUSH1 0x0 PUSH1 0x20 DUP3 ADD SWAP1 POP PUSH2 0x217 PUSH1 0x0 DUP4 ADD DUP5 PUSH2 0x1D3 JUMP JUMPDEST SWAP3 SWAP2 POP POP JUMP JUMPDEST PUSH1 0x0 DUP3 DUP3 MSTORE PUSH1 0x20 DUP3 ADD SWAP1 POP SWAP3 SWAP2 POP POP JUMP JUMPDEST PUSH1 0x0 DUP2 SWAP1 POP SWAP2 SWAP1 POP JUMP JUMPDEST PUSH32 0x4E487B7100000000000000000000000000000000000000000000000000000000 PUSH1 0x0 MSTORE PUSH1 0x1 PUSH1 0x4 MSTORE PUSH1 0x24 PUSH1 0x0 REVERT JUMPDEST PUSH1 0x0 DUP1 REVERT JUMPDEST PUSH32 0x69203E2031300000000000000000000000000000000000000000000000000000 PUSH1 0x0 DUP3 ADD MSTORE POP JUMP JUMPDEST PUSH2 0x29E DUP2 PUSH2 0x22E JUMP JUMPDEST DUP2 EQ PUSH2 0x2A9 JUMPI PUSH1 0x0 DUP1 REVERT JUMPDEST POP JUMP INVALID LOG2 PUSH5 0x6970667358 0x22 SLT KECCAK256 MSTORE8 0xAD 0xCF 0xAF 0x4C 0xF6 DUP13 DIV SWAP6 PUSH2 0x4770 0xC0 CALLVALUE 0xA7 PUSH20 0x8CC224F5EEC83EFCF027D7C110699DCF64736F6C PUSH4 0x43000807 STOP CALLER "
				},
				"gasEstimates": {
					"creation": {
						"codeDepositCost": "147600",
						"executionCost": "22302",
						"totalCost": "169902"
					},
					"external": {
						"num()": "2451",
						"testAssert()": "2296",
						"testRequire(uint256)": "763",
						"testRevert(uint256)": "747"
					}
				},
				"methodIdentifiers": {
					"num()": "4e70b1dc",
					"testAssert()": "2b813bc0",
					"testRequire(uint256)": "b8bd717f",
					"testRevert(uint256)": "20987767"
				}
			},
			"storageLayout": {
				"storage": [
					{
						"astId": 42,
						"contract": "13_Errors.sol:Error",
						"label": "num",
						"offset": 0,
						"slot": "0",
						"type": "t_uint256"
					}
				],
				"types": {
					"t_uint256": {
						"encoding": "inplace",
						"label": "uint256",
						"numberOfBytes": "32"
					}
				}
			},
			"userdoc": {
				"kind": "user",
				"methods": {},
				"version": 1
			}
		}
	}
}