{
	"4_StateVariables.sol": {
		"StateVariables": {
			"abi": [
				{
					"inputs": [],
					"name": "foo",
					"outputs": [],
					"stateMutability": "nonpayable",
					"type": "function"
				},
				{
					"inputs": [],
					"name": "myUint",
					"outputs": [
						{
							"internalType": "uint256",
							"name": "",
							"type": "uint256"
						}
					],
					"stateMutability": "view",
					"type": "function"
				}
			],
			"devdoc": {
				"kind": "dev",
				"methods": {},
				"version": 1
			},
			"evm": {
				"assembly": "    /* \"4_StateVariables.sol\":66:209  contract StateVariables {... */\n  mstore(0x40, 0x80)\n    /* \"4_StateVariables.sol\":117:120  123 */\n  0x7b\n    /* \"4_StateVariables.sol\":96:120  uint public myUint = 123 */\n  0x00\n  sstore\n    /* \"4_StateVariables.sol\":66:209  contract StateVariables {... */\n  callvalue\n  dup1\n  iszero\n  tag_1\n  jumpi\n  0x00\n  dup1\n  revert\ntag_1:\n  pop\n  dataSize(sub_0)\n  dup1\n  dataOffset(sub_0)\n  0x00\n  codecopy\n  0x00\n  return\nstop\n\nsub_0: assembly {\n        /* \"4_StateVariables.sol\":66:209  contract StateVariables {... */\n      mstore(0x40, 0x80)\n      callvalue\n      dup1\n      iszero\n      tag_1\n      jumpi\n      0x00\n      dup1\n      revert\n    tag_1:\n      pop\n      jumpi(tag_2, lt(calldatasize, 0x04))\n      shr(0xe0, calldataload(0x00))\n      dup1\n      0x06540f7e\n      eq\n      tag_3\n      jumpi\n      dup1\n      0xc2985578\n      eq\n      tag_4\n      jumpi\n    tag_2:\n      0x00\n      dup1\n      revert\n        /* \"4_StateVariables.sol\":96:120  uint public myUint = 123 */\n    tag_3:\n      tag_5\n      tag_6\n      jump\t// in\n    tag_5:\n      mload(0x40)\n      tag_7\n      swap2\n      swap1\n      tag_8\n      jump\t// in\n    tag_7:\n      mload(0x40)\n      dup1\n      swap2\n      sub\n      swap1\n      return\n        /* \"4_StateVariables.sol\":131:199  function foo() external {... */\n    tag_4:\n      tag_9\n      tag_10\n      jump\t// in\n    tag_9:\n      stop\n        /* \"4_StateVariables.sol\":96:120  uint public myUint = 123 */\n    tag_6:\n      sload(0x00)\n      dup2\n      jump\t// out\n        /* \"4_StateVariables.sol\":131:199  function foo() external {... */\n    tag_10:\n        /* \"4_StateVariables.sol\":165:186  uint notStateVariable */\n      0x00\n        /* \"4_StateVariables.sol\":189:192  456 */\n      0x01c8\n        /* \"4_StateVariables.sol\":165:192  uint notStateVariable = 456 */\n      swap1\n      pop\n        /* \"4_StateVariables.sol\":155:199  {... */\n      pop\n        /* \"4_StateVariables.sol\":131:199  function foo() external {... */\n      jump\t// out\n        /* \"#utility.yul\":7:125   */\n    tag_13:\n        /* \"#utility.yul\":94:118   */\n      tag_15\n        /* \"#utility.yul\":112:117   */\n      dup2\n        /* \"#utility.yul\":94:118   */\n      tag_16\n      jump\t// in\n    tag_15:\n        /* \"#utility.yul\":89:92   */\n      dup3\n        /* \"#utility.yul\":82:119   */\n      mstore\n        /* \"#utility.yul\":7:125   */\n      pop\n      pop\n      jump\t// out\n        /* \"#utility.yul\":131:353   */\n    tag_8:\n        /* \"#utility.yul\":224:228   */\n      0x00\n        /* \"#utility.yul\":262:264   */\n      0x20\n        /* \"#utility.yul\":251:260   */\n      dup3\n        /* \"#utility.yul\":247:265   */\n      add\n        /* \"#utility.yul\":239:265   */\n      swap1\n      pop\n        /* \"#utility.yul\":275:346   */\n      tag_18\n        /* \"#utility.yul\":343:344   */\n      0x00\n        /* \"#utility.yul\":332:341   */\n      dup4\n        /* \"#utility.yul\":328:345   */\n      add\n        /* \"#utility.yul\":319:325   */\n      dup5\n        /* \"#utility.yul\":275:346   */\n      tag_13\n      jump\t// in\n    tag_18:\n        /* \"#utility.yul\":131:353   */\n      swap3\n      swap2\n      pop\n      pop\n      jump\t// out\n        /* \"#utility.yul\":359:436   */\n    tag_16:\n        /* \"#utility.yul\":396:403   */\n      0x00\n        /* \"#utility.yul\":425:430   */\n      dup2\n        /* \"#utility.yul\":414:430   */\n      swap1\n      pop\n        /* \"#utility.yul\":359:436   */\n      swap2\n      swap1\n      pop\n      jump\t// out\n\n    auxdata: 0xa2646970667358221220a0ff28acd5b7f49ff84ac7c547dafb9d2efafbefb2b3af094966f0879cae153b64736f6c63430008070033\n}\n",
				"bytecode": {
					"linkReferences": {},
					"object": "6080604052607b60005534801561001557600080fd5b5060cf806100246000396000f3fe6080604052348015600f57600080fd5b506004361060325760003560e01c806306540f7e146037578063c2985578146051575b600080fd5b603d6059565b604051604891906076565b60405180910390f35b6057605f565b005b60005481565b60006101c8905050565b607081608f565b82525050565b6000602082019050608960008301846069565b92915050565b600081905091905056fea2646970667358221220a0ff28acd5b7f49ff84ac7c547dafb9d2efafbefb2b3af094966f0879cae153b64736f6c63430008070033",
					"opcodes": "PUSH1 0x80 PUSH1 0x40 MSTORE PUSH1 0x7B PUSH1 0x0 SSTORE CALLVALUE DUP1 ISZERO PUSH2 0x15 JUMPI PUSH1 0x0 DUP1 REVERT JUMPDEST POP PUSH1 0xCF DUP1 PUSH2 0x24 PUSH1 0x0 CODECOPY PUSH1 0x0 RETURN INVALID PUSH1 0x80 PUSH1 0x40 MSTORE CALLVALUE DUP1 ISZERO PUSH1 0xF JUMPI PUSH1 0x0 DUP1 REVERT JUMPDEST POP PUSH1 0x4 CALLDATASIZE LT PUSH1 0x32 JUMPI PUSH1 0x0 CALLDATALOAD PUSH1 0xE0 SHR DUP1 PUSH4 0x6540F7E EQ PUSH1 0x37 JUMPI DUP1 PUSH4 0xC2985578 EQ PUSH1 0x51 JUMPI JUMPDEST PUSH1 0x0 DUP1 REVERT JUMPDEST PUSH1 0x3D PUSH1 0x59 JUMP JUMPDEST PUSH1 0x40 MLOAD PUSH1 0x48 SWAP2 SWAP1 PUSH1 0x76 JUMP JUMPDEST PUSH1 0x40 MLOAD DUP1 SWAP2 SUB SWAP1 RETURN JUMPDEST PUSH1 0x57 PUSH1 0x5F JUMP JUMPDEST STOP JUMPDEST PUSH1 0x0 SLOAD DUP2 JUMP JUMPDEST PUSH1 0x0 PUSH2 0x1C8 SWAP1 POP POP JUMP JUMPDEST PUSH1 0x70 DUP2 PUSH1 0x8F JUMP JUMPDEST DUP3 MSTORE POP POP JUMP JUMPDEST PUSH1 0x0 PUSH1 0x20 DUP3 ADD SWAP1 POP PUSH1 0x89 PUSH1 0x0 DUP4 ADD DUP5 PUSH1 0x69 JUMP JUMPDEST SWAP3 SWAP2 POP POP JUMP JUMPDEST PUSH1 0x0 DUP2 SWAP1 POP SWAP2 SWAP1 POP JUMP INVALID LOG2 PUSH5 0x6970667358 0x22 SLT KECCAK256 LOG0 SELFDESTRUCT 0x28 0xAC 0xD5 0xB7 DELEGATECALL SWAP16 0xF8 0x4A 0xC7 0xC5 SELFBALANCE 0xDA 0xFB SWAP14 0x2E STATICCALL 0xFB 0xEF 0xB2 0xB3 0xAF MULMOD 0x49 PUSH7 0xF0879CAE153B64 PUSH20 0x6F6C634300080700330000000000000000000000 "
				},
				"gasEstimates": {
					"creation": {
						"codeDepositCost": "41400",
						"executionCost": "22199",
						"totalCost": "63599"
					},
					"external": {
						"foo()": "157",
						"myUint()": "2407"
					}
				},
				"methodIdentifiers": {
					"foo()": "c2985578",
					"myUint()": "06540f7e"
				}
			},
			"storageLayout": {
				"storage": [
					{
						"astId": 4,
						"contract": "4_StateVariables.sol:StateVariables",
						"label": "myUint",
						"offset": 0,
						"slot": "0",
						"type": "t_uint256"
					}
				],
				"types": {
					"t_uint256": {
						"encoding": "inplace",
						"label": "uint256",
						"numberOfBytes": "32"
					}
				}
			},
			"userdoc": {
				"kind": "user",
				"methods": {},
				"version": 1
			}
		}
	}
}