{
	"42_Call.sol": {
		"TestCall": {
			"abi": [
				{
					"anonymous": false,
					"inputs": [
						{
							"indexed": false,
							"internalType": "string",
							"name": "message",
							"type": "string"
						}
					],
					"name": "Log",
					"type": "event"
				},
				{
					"stateMutability": "payable",
					"type": "fallback"
				},
				{
					"inputs": [
						{
							"internalType": "string",
							"name": "_message",
							"type": "string"
						},
						{
							"internalType": "uint256",
							"name": "_x",
							"type": "uint256"
						}
					],
					"name": "foo",
					"outputs": [
						{
							"internalType": "bool",
							"name": "",
							"type": "bool"
						},
						{
							"internalType": "uint256",
							"name": "",
							"type": "uint256"
						}
					],
					"stateMutability": "payable",
					"type": "function"
				},
				{
					"inputs": [],
					"name": "message",
					"outputs": [
						{
							"internalType": "string",
							"name": "",
							"type": "string"
						}
					],
					"stateMutability": "view",
					"type": "function"
				},
				{
					"inputs": [],
					"name": "x",
					"outputs": [
						{
							"internalType": "uint256",
							"name": "",
							"type": "uint256"
						}
					],
					"stateMutability": "view",
					"type": "function"
				}
			],
			"devdoc": {
				"kind": "dev",
				"methods": {},
				"version": 1
			},
			"evm": {
				"assembly": "    /* \"42_Call.sol\":66:387  contract TestCall {... */\n  mstore(0x40, 0x80)\n  callvalue\n  dup1\n  iszero\n  tag_1\n  jumpi\n  0x00\n  dup1\n  revert\ntag_1:\n  pop\n  dataSize(sub_0)\n  dup1\n  dataOffset(sub_0)\n  0x00\n  codecopy\n  0x00\n  return\nstop\n\nsub_0: assembly {\n        /* \"42_Call.sol\":66:387  contract TestCall {... */\n      mstore(0x40, 0x80)\n      jumpi(tag_1, lt(calldatasize, 0x04))\n      shr(0xe0, calldataload(0x00))\n      dup1\n      0x0c55699c\n      eq\n      tag_3\n      jumpi\n      dup1\n      0x24ccab8f\n      eq\n      tag_4\n      jumpi\n      dup1\n      0xe21f37ce\n      eq\n      tag_5\n      jumpi\n      jump(tag_2)\n    tag_1:\n    tag_2:\n        /* \"42_Call.sol\":212:238  Log(\"fallback was called\") */\n      0xcf34ef537ac33ee1ac626ca1587a0a7e8e51561e5514f8cb36afa1c5102b3bab\n      mload(0x40)\n      tag_8\n      swap1\n      tag_9\n      jump\t// in\n    tag_8:\n      mload(0x40)\n      dup1\n      swap2\n      sub\n      swap1\n      log1\n        /* \"42_Call.sol\":66:387  contract TestCall {... */\n      stop\n        /* \"42_Call.sol\":117:130  uint public x */\n    tag_3:\n      callvalue\n      dup1\n      iszero\n      tag_10\n      jumpi\n      0x00\n      dup1\n      revert\n    tag_10:\n      pop\n      tag_11\n      tag_12\n      jump\t// in\n    tag_11:\n      mload(0x40)\n      tag_13\n      swap2\n      swap1\n      tag_14\n      jump\t// in\n    tag_13:\n      mload(0x40)\n      dup1\n      swap2\n      sub\n      swap1\n      return\n        /* \"42_Call.sol\":251:385  function foo(string memory _message, uint _x) external payable returns(bool, uint) {... */\n    tag_4:\n      tag_15\n      0x04\n      dup1\n      calldatasize\n      sub\n      dup2\n      add\n      swap1\n      tag_16\n      swap2\n      swap1\n      tag_17\n      jump\t// in\n    tag_16:\n      tag_18\n      jump\t// in\n    tag_15:\n      mload(0x40)\n      tag_19\n      swap3\n      swap2\n      swap1\n      tag_20\n      jump\t// in\n    tag_19:\n      mload(0x40)\n      dup1\n      swap2\n      sub\n      swap1\n      return\n        /* \"42_Call.sol\":90:111  string public message */\n    tag_5:\n      callvalue\n      dup1\n      iszero\n      tag_21\n      jumpi\n      0x00\n      dup1\n      revert\n    tag_21:\n      pop\n      tag_22\n      tag_23\n      jump\t// in\n    tag_22:\n      mload(0x40)\n      tag_24\n      swap2\n      swap1\n      tag_25\n      jump\t// in\n    tag_24:\n      mload(0x40)\n      dup1\n      swap2\n      sub\n      swap1\n      return\n        /* \"42_Call.sol\":117:130  uint public x */\n    tag_12:\n      sload(0x01)\n      dup2\n      jump\t// out\n        /* \"42_Call.sol\":251:385  function foo(string memory _message, uint _x) external payable returns(bool, uint) {... */\n    tag_18:\n        /* \"42_Call.sol\":322:326  bool */\n      0x00\n        /* \"42_Call.sol\":328:332  uint */\n      dup1\n        /* \"42_Call.sol\":354:362  _message */\n      dup4\n        /* \"42_Call.sol\":344:351  message */\n      0x00\n        /* \"42_Call.sol\":344:362  message = _message */\n      swap1\n      dup1\n      mload\n      swap1\n      0x20\n      add\n      swap1\n      tag_27\n      swap3\n      swap2\n      swap1\n      tag_28\n      jump\t// in\n    tag_27:\n      pop\n        /* \"42_Call.sol\":376:378  _x */\n      dup3\n        /* \"42_Call.sol\":372:373  x */\n      0x01\n        /* \"42_Call.sol\":372:378  x = _x */\n      dup2\n      swap1\n      sstore\n      pop\n        /* \"42_Call.sol\":251:385  function foo(string memory _message, uint _x) external payable returns(bool, uint) {... */\n      swap3\n      pop\n      swap3\n      swap1\n      pop\n      jump\t// out\n        /* \"42_Call.sol\":90:111  string public message */\n    tag_23:\n      0x00\n      dup1\n      sload\n      tag_29\n      swap1\n      tag_30\n      jump\t// in\n    tag_29:\n      dup1\n      0x1f\n      add\n      0x20\n      dup1\n      swap2\n      div\n      mul\n      0x20\n      add\n      mload(0x40)\n      swap1\n      dup2\n      add\n      0x40\n      mstore\n      dup1\n      swap3\n      swap2\n      swap1\n      dup2\n      dup2\n      mstore\n      0x20\n      add\n      dup3\n      dup1\n      sload\n      tag_31\n      swap1\n      tag_30\n      jump\t// in\n    tag_31:\n      dup1\n      iszero\n      tag_32\n      jumpi\n      dup1\n      0x1f\n      lt\n      tag_33\n      jumpi\n      0x0100\n      dup1\n      dup4\n      sload\n      div\n      mul\n      dup4\n      mstore\n      swap2\n      0x20\n      add\n      swap2\n      jump(tag_32)\n    tag_33:\n      dup3\n      add\n      swap2\n      swap1\n      0x00\n      mstore\n      keccak256(0x00, 0x20)\n      swap1\n    tag_34:\n      dup2\n      sload\n      dup2\n      mstore\n      swap1\n      0x01\n      add\n      swap1\n      0x20\n      add\n      dup1\n      dup4\n      gt\n      tag_34\n      jumpi\n      dup3\n      swap1\n      sub\n      0x1f\n      and\n      dup3\n      add\n      swap2\n    tag_32:\n      pop\n      pop\n      pop\n      pop\n      pop\n      dup2\n      jump\t// out\n    tag_28:\n      dup3\n      dup1\n      sload\n      tag_35\n      swap1\n      tag_30\n      jump\t// in\n    tag_35:\n      swap1\n      0x00\n      mstore\n      keccak256(0x00, 0x20)\n      swap1\n      0x1f\n      add\n      0x20\n      swap1\n      div\n      dup2\n      add\n      swap3\n      dup3\n      tag_37\n      jumpi\n      0x00\n      dup6\n      sstore\n      jump(tag_36)\n    tag_37:\n      dup3\n      0x1f\n      lt\n      tag_38\n      jumpi\n      dup1\n      mload\n      not(0xff)\n      and\n      dup4\n      dup1\n      add\n      or\n      dup6\n      sstore\n      jump(tag_36)\n    tag_38:\n      dup3\n      dup1\n      add\n      0x01\n      add\n      dup6\n      sstore\n      dup3\n      iszero\n      tag_36\n      jumpi\n      swap2\n      dup3\n      add\n    tag_39:\n      dup3\n      dup2\n      gt\n      iszero\n      tag_40\n      jumpi\n      dup3\n      mload\n      dup3\n      sstore\n      swap2\n      0x20\n      add\n      swap2\n      swap1\n      0x01\n      add\n      swap1\n      jump(tag_39)\n    tag_40:\n    tag_36:\n      pop\n      swap1\n      pop\n      tag_41\n      swap2\n      swap1\n      tag_42\n      jump\t// in\n    tag_41:\n      pop\n      swap1\n      jump\t// out\n    tag_42:\n    tag_43:\n      dup1\n      dup3\n      gt\n      iszero\n      tag_44\n      jumpi\n      0x00\n      dup2\n      0x00\n      swap1\n      sstore\n      pop\n      0x01\n      add\n      jump(tag_43)\n    tag_44:\n      pop\n      swap1\n      jump\t// out\n        /* \"#utility.yul\":7:419   */\n    tag_46:\n        /* \"#utility.yul\":85:90   */\n      0x00\n        /* \"#utility.yul\":110:176   */\n      tag_48\n        /* \"#utility.yul\":126:175   */\n      tag_49\n        /* \"#utility.yul\":168:174   */\n      dup5\n        /* \"#utility.yul\":126:175   */\n      tag_50\n      jump\t// in\n    tag_49:\n        /* \"#utility.yul\":110:176   */\n      tag_51\n      jump\t// in\n    tag_48:\n        /* \"#utility.yul\":101:176   */\n      swap1\n      pop\n        /* \"#utility.yul\":199:205   */\n      dup3\n        /* \"#utility.yul\":192:197   */\n      dup2\n        /* \"#utility.yul\":185:206   */\n      mstore\n        /* \"#utility.yul\":237:241   */\n      0x20\n        /* \"#utility.yul\":230:235   */\n      dup2\n        /* \"#utility.yul\":226:242   */\n      add\n        /* \"#utility.yul\":275:278   */\n      dup5\n        /* \"#utility.yul\":266:272   */\n      dup5\n        /* \"#utility.yul\":261:264   */\n      dup5\n        /* \"#utility.yul\":257:273   */\n      add\n        /* \"#utility.yul\":254:279   */\n      gt\n        /* \"#utility.yul\":251:363   */\n      iszero\n      tag_52\n      jumpi\n        /* \"#utility.yul\":282:361   */\n      tag_53\n      tag_54\n      jump\t// in\n    tag_53:\n        /* \"#utility.yul\":251:363   */\n    tag_52:\n        /* \"#utility.yul\":372:413   */\n      tag_55\n        /* \"#utility.yul\":406:412   */\n      dup5\n        /* \"#utility.yul\":401:404   */\n      dup3\n        /* \"#utility.yul\":396:399   */\n      dup6\n        /* \"#utility.yul\":372:413   */\n      tag_56\n      jump\t// in\n    tag_55:\n        /* \"#utility.yul\":91:419   */\n      pop\n        /* \"#utility.yul\":7:419   */\n      swap4\n      swap3\n      pop\n      pop\n      pop\n      jump\t// out\n        /* \"#utility.yul\":439:779   */\n    tag_57:\n        /* \"#utility.yul\":495:500   */\n      0x00\n        /* \"#utility.yul\":544:547   */\n      dup3\n        /* \"#utility.yul\":537:541   */\n      0x1f\n        /* \"#utility.yul\":529:535   */\n      dup4\n        /* \"#utility.yul\":525:542   */\n      add\n        /* \"#utility.yul\":521:548   */\n      slt\n        /* \"#utility.yul\":511:633   */\n      tag_59\n      jumpi\n        /* \"#utility.yul\":552:631   */\n      tag_60\n      tag_61\n      jump\t// in\n    tag_60:\n        /* \"#utility.yul\":511:633   */\n    tag_59:\n        /* \"#utility.yul\":669:675   */\n      dup2\n        /* \"#utility.yul\":656:676   */\n      calldataload\n        /* \"#utility.yul\":694:773   */\n      tag_62\n        /* \"#utility.yul\":769:772   */\n      dup5\n        /* \"#utility.yul\":761:767   */\n      dup3\n        /* \"#utility.yul\":754:758   */\n      0x20\n        /* \"#utility.yul\":746:752   */\n      dup7\n        /* \"#utility.yul\":742:759   */\n      add\n        /* \"#utility.yul\":694:773   */\n      tag_46\n      jump\t// in\n    tag_62:\n        /* \"#utility.yul\":685:773   */\n      swap2\n      pop\n        /* \"#utility.yul\":501:779   */\n      pop\n        /* \"#utility.yul\":439:779   */\n      swap3\n      swap2\n      pop\n      pop\n      jump\t// out\n        /* \"#utility.yul\":785:924   */\n    tag_63:\n        /* \"#utility.yul\":831:836   */\n      0x00\n        /* \"#utility.yul\":869:875   */\n      dup2\n        /* \"#utility.yul\":856:876   */\n      calldataload\n        /* \"#utility.yul\":847:876   */\n      swap1\n      pop\n        /* \"#utility.yul\":885:918   */\n      tag_65\n        /* \"#utility.yul\":912:917   */\n      dup2\n        /* \"#utility.yul\":885:918   */\n      tag_66\n      jump\t// in\n    tag_65:\n        /* \"#utility.yul\":785:924   */\n      swap3\n      swap2\n      pop\n      pop\n      jump\t// out\n        /* \"#utility.yul\":930:1584   */\n    tag_17:\n        /* \"#utility.yul\":1008:1014   */\n      0x00\n        /* \"#utility.yul\":1016:1022   */\n      dup1\n        /* \"#utility.yul\":1065:1067   */\n      0x40\n        /* \"#utility.yul\":1053:1062   */\n      dup4\n        /* \"#utility.yul\":1044:1051   */\n      dup6\n        /* \"#utility.yul\":1040:1063   */\n      sub\n        /* \"#utility.yul\":1036:1068   */\n      slt\n        /* \"#utility.yul\":1033:1152   */\n      iszero\n      tag_68\n      jumpi\n        /* \"#utility.yul\":1071:1150   */\n      tag_69\n      tag_70\n      jump\t// in\n    tag_69:\n        /* \"#utility.yul\":1033:1152   */\n    tag_68:\n        /* \"#utility.yul\":1219:1220   */\n      0x00\n        /* \"#utility.yul\":1208:1217   */\n      dup4\n        /* \"#utility.yul\":1204:1221   */\n      add\n        /* \"#utility.yul\":1191:1222   */\n      calldataload\n        /* \"#utility.yul\":1249:1267   */\n      0xffffffffffffffff\n        /* \"#utility.yul\":1241:1247   */\n      dup2\n        /* \"#utility.yul\":1238:1268   */\n      gt\n        /* \"#utility.yul\":1235:1352   */\n      iszero\n      tag_71\n      jumpi\n        /* \"#utility.yul\":1271:1350   */\n      tag_72\n      tag_73\n      jump\t// in\n    tag_72:\n        /* \"#utility.yul\":1235:1352   */\n    tag_71:\n        /* \"#utility.yul\":1376:1439   */\n      tag_74\n        /* \"#utility.yul\":1431:1438   */\n      dup6\n        /* \"#utility.yul\":1422:1428   */\n      dup3\n        /* \"#utility.yul\":1411:1420   */\n      dup7\n        /* \"#utility.yul\":1407:1429   */\n      add\n        /* \"#utility.yul\":1376:1439   */\n      tag_57\n      jump\t// in\n    tag_74:\n        /* \"#utility.yul\":1366:1439   */\n      swap3\n      pop\n        /* \"#utility.yul\":1162:1449   */\n      pop\n        /* \"#utility.yul\":1488:1490   */\n      0x20\n        /* \"#utility.yul\":1514:1567   */\n      tag_75\n        /* \"#utility.yul\":1559:1566   */\n      dup6\n        /* \"#utility.yul\":1550:1556   */\n      dup3\n        /* \"#utility.yul\":1539:1548   */\n      dup7\n        /* \"#utility.yul\":1535:1557   */\n      add\n        /* \"#utility.yul\":1514:1567   */\n      tag_63\n      jump\t// in\n    tag_75:\n        /* \"#utility.yul\":1504:1567   */\n      swap2\n      pop\n        /* \"#utility.yul\":1459:1577   */\n      pop\n        /* \"#utility.yul\":930:1584   */\n      swap3\n      pop\n      swap3\n      swap1\n      pop\n      jump\t// out\n        /* \"#utility.yul\":1590:1699   */\n    tag_76:\n        /* \"#utility.yul\":1671:1692   */\n      tag_78\n        /* \"#utility.yul\":1686:1691   */\n      dup2\n        /* \"#utility.yul\":1671:1692   */\n      tag_79\n      jump\t// in\n    tag_78:\n        /* \"#utility.yul\":1666:1669   */\n      dup3\n        /* \"#utility.yul\":1659:1693   */\n      mstore\n        /* \"#utility.yul\":1590:1699   */\n      pop\n      pop\n      jump\t// out\n        /* \"#utility.yul\":1705:2069   */\n    tag_80:\n        /* \"#utility.yul\":1793:1796   */\n      0x00\n        /* \"#utility.yul\":1821:1860   */\n      tag_82\n        /* \"#utility.yul\":1854:1859   */\n      dup3\n        /* \"#utility.yul\":1821:1860   */\n      tag_83\n      jump\t// in\n    tag_82:\n        /* \"#utility.yul\":1876:1947   */\n      tag_84\n        /* \"#utility.yul\":1940:1946   */\n      dup2\n        /* \"#utility.yul\":1935:1938   */\n      dup6\n        /* \"#utility.yul\":1876:1947   */\n      tag_85\n      jump\t// in\n    tag_84:\n        /* \"#utility.yul\":1869:1947   */\n      swap4\n      pop\n        /* \"#utility.yul\":1956:2008   */\n      tag_86\n        /* \"#utility.yul\":2001:2007   */\n      dup2\n        /* \"#utility.yul\":1996:1999   */\n      dup6\n        /* \"#utility.yul\":1989:1993   */\n      0x20\n        /* \"#utility.yul\":1982:1987   */\n      dup7\n        /* \"#utility.yul\":1978:1994   */\n      add\n        /* \"#utility.yul\":1956:2008   */\n      tag_87\n      jump\t// in\n    tag_86:\n        /* \"#utility.yul\":2033:2062   */\n      tag_88\n        /* \"#utility.yul\":2055:2061   */\n      dup2\n        /* \"#utility.yul\":2033:2062   */\n      tag_89\n      jump\t// in\n    tag_88:\n        /* \"#utility.yul\":2028:2031   */\n      dup5\n        /* \"#utility.yul\":2024:2063   */\n      add\n        /* \"#utility.yul\":2017:2063   */\n      swap2\n      pop\n        /* \"#utility.yul\":1797:2069   */\n      pop\n        /* \"#utility.yul\":1705:2069   */\n      swap3\n      swap2\n      pop\n      pop\n      jump\t// out\n        /* \"#utility.yul\":2075:2441   */\n    tag_90:\n        /* \"#utility.yul\":2217:2220   */\n      0x00\n        /* \"#utility.yul\":2238:2305   */\n      tag_92\n        /* \"#utility.yul\":2302:2304   */\n      0x13\n        /* \"#utility.yul\":2297:2300   */\n      dup4\n        /* \"#utility.yul\":2238:2305   */\n      tag_85\n      jump\t// in\n    tag_92:\n        /* \"#utility.yul\":2231:2305   */\n      swap2\n      pop\n        /* \"#utility.yul\":2314:2407   */\n      tag_93\n        /* \"#utility.yul\":2403:2406   */\n      dup3\n        /* \"#utility.yul\":2314:2407   */\n      tag_94\n      jump\t// in\n    tag_93:\n        /* \"#utility.yul\":2432:2434   */\n      0x20\n        /* \"#utility.yul\":2427:2430   */\n      dup3\n        /* \"#utility.yul\":2423:2435   */\n      add\n        /* \"#utility.yul\":2416:2435   */\n      swap1\n      pop\n        /* \"#utility.yul\":2075:2441   */\n      swap2\n      swap1\n      pop\n      jump\t// out\n        /* \"#utility.yul\":2447:2565   */\n    tag_95:\n        /* \"#utility.yul\":2534:2558   */\n      tag_97\n        /* \"#utility.yul\":2552:2557   */\n      dup2\n        /* \"#utility.yul\":2534:2558   */\n      tag_98\n      jump\t// in\n    tag_97:\n        /* \"#utility.yul\":2529:2532   */\n      dup3\n        /* \"#utility.yul\":2522:2559   */\n      mstore\n        /* \"#utility.yul\":2447:2565   */\n      pop\n      pop\n      jump\t// out\n        /* \"#utility.yul\":2571:2891   */\n    tag_20:\n        /* \"#utility.yul\":2686:2690   */\n      0x00\n        /* \"#utility.yul\":2724:2726   */\n      0x40\n        /* \"#utility.yul\":2713:2722   */\n      dup3\n        /* \"#utility.yul\":2709:2727   */\n      add\n        /* \"#utility.yul\":2701:2727   */\n      swap1\n      pop\n        /* \"#utility.yul\":2737:2802   */\n      tag_100\n        /* \"#utility.yul\":2799:2800   */\n      0x00\n        /* \"#utility.yul\":2788:2797   */\n      dup4\n        /* \"#utility.yul\":2784:2801   */\n      add\n        /* \"#utility.yul\":2775:2781   */\n      dup6\n        /* \"#utility.yul\":2737:2802   */\n      tag_76\n      jump\t// in\n    tag_100:\n        /* \"#utility.yul\":2812:2884   */\n      tag_101\n        /* \"#utility.yul\":2880:2882   */\n      0x20\n        /* \"#utility.yul\":2869:2878   */\n      dup4\n        /* \"#utility.yul\":2865:2883   */\n      add\n        /* \"#utility.yul\":2856:2862   */\n      dup5\n        /* \"#utility.yul\":2812:2884   */\n      tag_95\n      jump\t// in\n    tag_101:\n        /* \"#utility.yul\":2571:2891   */\n      swap4\n      swap3\n      pop\n      pop\n      pop\n      jump\t// out\n        /* \"#utility.yul\":2897:3210   */\n    tag_25:\n        /* \"#utility.yul\":3010:3014   */\n      0x00\n        /* \"#utility.yul\":3048:3050   */\n      0x20\n        /* \"#utility.yul\":3037:3046   */\n      dup3\n        /* \"#utility.yul\":3033:3051   */\n      add\n        /* \"#utility.yul\":3025:3051   */\n      swap1\n      pop\n        /* \"#utility.yul\":3097:3106   */\n      dup2\n        /* \"#utility.yul\":3091:3095   */\n      dup2\n        /* \"#utility.yul\":3087:3107   */\n      sub\n        /* \"#utility.yul\":3083:3084   */\n      0x00\n        /* \"#utility.yul\":3072:3081   */\n      dup4\n        /* \"#utility.yul\":3068:3085   */\n      add\n        /* \"#utility.yul\":3061:3108   */\n      mstore\n        /* \"#utility.yul\":3125:3203   */\n      tag_103\n        /* \"#utility.yul\":3198:3202   */\n      dup2\n        /* \"#utility.yul\":3189:3195   */\n      dup5\n        /* \"#utility.yul\":3125:3203   */\n      tag_80\n      jump\t// in\n    tag_103:\n        /* \"#utility.yul\":3117:3203   */\n      swap1\n      pop\n        /* \"#utility.yul\":2897:3210   */\n      swap3\n      swap2\n      pop\n      pop\n      jump\t// out\n        /* \"#utility.yul\":3216:3635   */\n    tag_9:\n        /* \"#utility.yul\":3382:3386   */\n      0x00\n        /* \"#utility.yul\":3420:3422   */\n      0x20\n        /* \"#utility.yul\":3409:3418   */\n      dup3\n        /* \"#utility.yul\":3405:3423   */\n      add\n        /* \"#utility.yul\":3397:3423   */\n      swap1\n      pop\n        /* \"#utility.yul\":3469:3478   */\n      dup2\n        /* \"#utility.yul\":3463:3467   */\n      dup2\n        /* \"#utility.yul\":3459:3479   */\n      sub\n        /* \"#utility.yul\":3455:3456   */\n      0x00\n        /* \"#utility.yul\":3444:3453   */\n      dup4\n        /* \"#utility.yul\":3440:3457   */\n      add\n        /* \"#utility.yul\":3433:3480   */\n      mstore\n        /* \"#utility.yul\":3497:3628   */\n      tag_105\n        /* \"#utility.yul\":3623:3627   */\n      dup2\n        /* \"#utility.yul\":3497:3628   */\n      tag_90\n      jump\t// in\n    tag_105:\n        /* \"#utility.yul\":3489:3628   */\n      swap1\n      pop\n        /* \"#utility.yul\":3216:3635   */\n      swap2\n      swap1\n      pop\n      jump\t// out\n        /* \"#utility.yul\":3641:3863   */\n    tag_14:\n        /* \"#utility.yul\":3734:3738   */\n      0x00\n        /* \"#utility.yul\":3772:3774   */\n      0x20\n        /* \"#utility.yul\":3761:3770   */\n      dup3\n        /* \"#utility.yul\":3757:3775   */\n      add\n        /* \"#utility.yul\":3749:3775   */\n      swap1\n      pop\n        /* \"#utility.yul\":3785:3856   */\n      tag_107\n        /* \"#utility.yul\":3853:3854   */\n      0x00\n        /* \"#utility.yul\":3842:3851   */\n      dup4\n        /* \"#utility.yul\":3838:3855   */\n      add\n        /* \"#utility.yul\":3829:3835   */\n      dup5\n        /* \"#utility.yul\":3785:3856   */\n      tag_95\n      jump\t// in\n    tag_107:\n        /* \"#utility.yul\":3641:3863   */\n      swap3\n      swap2\n      pop\n      pop\n      jump\t// out\n        /* \"#utility.yul\":3869:3998   */\n    tag_51:\n        /* \"#utility.yul\":3903:3909   */\n      0x00\n        /* \"#utility.yul\":3930:3950   */\n      tag_109\n      tag_110\n      jump\t// in\n    tag_109:\n        /* \"#utility.yul\":3920:3950   */\n      swap1\n      pop\n        /* \"#utility.yul\":3959:3992   */\n      tag_111\n        /* \"#utility.yul\":3987:3991   */\n      dup3\n        /* \"#utility.yul\":3979:3985   */\n      dup3\n        /* \"#utility.yul\":3959:3992   */\n      tag_112\n      jump\t// in\n    tag_111:\n        /* \"#utility.yul\":3869:3998   */\n      swap2\n      swap1\n      pop\n      jump\t// out\n        /* \"#utility.yul\":4004:4079   */\n    tag_110:\n        /* \"#utility.yul\":4037:4043   */\n      0x00\n        /* \"#utility.yul\":4070:4072   */\n      0x40\n        /* \"#utility.yul\":4064:4073   */\n      mload\n        /* \"#utility.yul\":4054:4073   */\n      swap1\n      pop\n        /* \"#utility.yul\":4004:4079   */\n      swap1\n      jump\t// out\n        /* \"#utility.yul\":4085:4393   */\n    tag_50:\n        /* \"#utility.yul\":4147:4151   */\n      0x00\n        /* \"#utility.yul\":4237:4255   */\n      0xffffffffffffffff\n        /* \"#utility.yul\":4229:4235   */\n      dup3\n        /* \"#utility.yul\":4226:4256   */\n      gt\n        /* \"#utility.yul\":4223:4279   */\n      iszero\n      tag_115\n      jumpi\n        /* \"#utility.yul\":4259:4277   */\n      tag_116\n      tag_117\n      jump\t// in\n    tag_116:\n        /* \"#utility.yul\":4223:4279   */\n    tag_115:\n        /* \"#utility.yul\":4297:4326   */\n      tag_118\n        /* \"#utility.yul\":4319:4325   */\n      dup3\n        /* \"#utility.yul\":4297:4326   */\n      tag_89\n      jump\t// in\n    tag_118:\n        /* \"#utility.yul\":4289:4326   */\n      swap1\n      pop\n        /* \"#utility.yul\":4381:4385   */\n      0x20\n        /* \"#utility.yul\":4375:4379   */\n      dup2\n        /* \"#utility.yul\":4371:4386   */\n      add\n        /* \"#utility.yul\":4363:4386   */\n      swap1\n      pop\n        /* \"#utility.yul\":4085:4393   */\n      swap2\n      swap1\n      pop\n      jump\t// out\n        /* \"#utility.yul\":4399:4498   */\n    tag_83:\n        /* \"#utility.yul\":4451:4457   */\n      0x00\n        /* \"#utility.yul\":4485:4490   */\n      dup2\n        /* \"#utility.yul\":4479:4491   */\n      mload\n        /* \"#utility.yul\":4469:4491   */\n      swap1\n      pop\n        /* \"#utility.yul\":4399:4498   */\n      swap2\n      swap1\n      pop\n      jump\t// out\n        /* \"#utility.yul\":4504:4673   */\n    tag_85:\n        /* \"#utility.yul\":4588:4599   */\n      0x00\n        /* \"#utility.yul\":4622:4628   */\n      dup3\n        /* \"#utility.yul\":4617:4620   */\n      dup3\n        /* \"#utility.yul\":4610:4629   */\n      mstore\n        /* \"#utility.yul\":4662:4666   */\n      0x20\n        /* \"#utility.yul\":4657:4660   */\n      dup3\n        /* \"#utility.yul\":4653:4667   */\n      add\n        /* \"#utility.yul\":4638:4667   */\n      swap1\n      pop\n        /* \"#utility.yul\":4504:4673   */\n      swap3\n      swap2\n      pop\n      pop\n      jump\t// out\n        /* \"#utility.yul\":4679:4769   */\n    tag_79:\n        /* \"#utility.yul\":4713:4720   */\n      0x00\n        /* \"#utility.yul\":4756:4761   */\n      dup2\n        /* \"#utility.yul\":4749:4762   */\n      iszero\n        /* \"#utility.yul\":4742:4763   */\n      iszero\n        /* \"#utility.yul\":4731:4763   */\n      swap1\n      pop\n        /* \"#utility.yul\":4679:4769   */\n      swap2\n      swap1\n      pop\n      jump\t// out\n        /* \"#utility.yul\":4775:4852   */\n    tag_98:\n        /* \"#utility.yul\":4812:4819   */\n      0x00\n        /* \"#utility.yul\":4841:4846   */\n      dup2\n        /* \"#utility.yul\":4830:4846   */\n      swap1\n      pop\n        /* \"#utility.yul\":4775:4852   */\n      swap2\n      swap1\n      pop\n      jump\t// out\n        /* \"#utility.yul\":4858:5012   */\n    tag_56:\n        /* \"#utility.yul\":4942:4948   */\n      dup3\n        /* \"#utility.yul\":4937:4940   */\n      dup2\n        /* \"#utility.yul\":4932:4935   */\n      dup4\n        /* \"#utility.yul\":4919:4949   */\n      calldatacopy\n        /* \"#utility.yul\":5004:5005   */\n      0x00\n        /* \"#utility.yul\":4995:5001   */\n      dup4\n        /* \"#utility.yul\":4990:4993   */\n      dup4\n        /* \"#utility.yul\":4986:5002   */\n      add\n        /* \"#utility.yul\":4979:5006   */\n      mstore\n        /* \"#utility.yul\":4858:5012   */\n      pop\n      pop\n      pop\n      jump\t// out\n        /* \"#utility.yul\":5018:5325   */\n    tag_87:\n        /* \"#utility.yul\":5086:5087   */\n      0x00\n        /* \"#utility.yul\":5096:5209   */\n    tag_125:\n        /* \"#utility.yul\":5110:5116   */\n      dup4\n        /* \"#utility.yul\":5107:5108   */\n      dup2\n        /* \"#utility.yul\":5104:5117   */\n      lt\n        /* \"#utility.yul\":5096:5209   */\n      iszero\n      tag_127\n      jumpi\n        /* \"#utility.yul\":5195:5196   */\n      dup1\n        /* \"#utility.yul\":5190:5193   */\n      dup3\n        /* \"#utility.yul\":5186:5197   */\n      add\n        /* \"#utility.yul\":5180:5198   */\n      mload\n        /* \"#utility.yul\":5176:5177   */\n      dup2\n        /* \"#utility.yul\":5171:5174   */\n      dup5\n        /* \"#utility.yul\":5167:5178   */\n      add\n        /* \"#utility.yul\":5160:5199   */\n      mstore\n        /* \"#utility.yul\":5132:5134   */\n      0x20\n        /* \"#utility.yul\":5129:5130   */\n      dup2\n        /* \"#utility.yul\":5125:5135   */\n      add\n        /* \"#utility.yul\":5120:5135   */\n      swap1\n      pop\n        /* \"#utility.yul\":5096:5209   */\n      jump(tag_125)\n    tag_127:\n        /* \"#utility.yul\":5227:5233   */\n      dup4\n        /* \"#utility.yul\":5224:5225   */\n      dup2\n        /* \"#utility.yul\":5221:5234   */\n      gt\n        /* \"#utility.yul\":5218:5319   */\n      iszero\n      tag_128\n      jumpi\n        /* \"#utility.yul\":5307:5308   */\n      0x00\n        /* \"#utility.yul\":5298:5304   */\n      dup5\n        /* \"#utility.yul\":5293:5296   */\n      dup5\n        /* \"#utility.yul\":5289:5305   */\n      add\n        /* \"#utility.yul\":5282:5309   */\n      mstore\n        /* \"#utility.yul\":5218:5319   */\n    tag_128:\n        /* \"#utility.yul\":5067:5325   */\n      pop\n        /* \"#utility.yul\":5018:5325   */\n      pop\n      pop\n      pop\n      jump\t// out\n        /* \"#utility.yul\":5331:5651   */\n    tag_30:\n        /* \"#utility.yul\":5375:5381   */\n      0x00\n        /* \"#utility.yul\":5412:5413   */\n      0x02\n        /* \"#utility.yul\":5406:5410   */\n      dup3\n        /* \"#utility.yul\":5402:5414   */\n      div\n        /* \"#utility.yul\":5392:5414   */\n      swap1\n      pop\n        /* \"#utility.yul\":5459:5460   */\n      0x01\n        /* \"#utility.yul\":5453:5457   */\n      dup3\n        /* \"#utility.yul\":5449:5461   */\n      and\n        /* \"#utility.yul\":5480:5498   */\n      dup1\n        /* \"#utility.yul\":5470:5551   */\n      tag_130\n      jumpi\n        /* \"#utility.yul\":5536:5540   */\n      0x7f\n        /* \"#utility.yul\":5528:5534   */\n      dup3\n        /* \"#utility.yul\":5524:5541   */\n      and\n        /* \"#utility.yul\":5514:5541   */\n      swap2\n      pop\n        /* \"#utility.yul\":5470:5551   */\n    tag_130:\n        /* \"#utility.yul\":5598:5600   */\n      0x20\n        /* \"#utility.yul\":5590:5596   */\n      dup3\n        /* \"#utility.yul\":5587:5601   */\n      lt\n        /* \"#utility.yul\":5567:5585   */\n      dup2\n        /* \"#utility.yul\":5564:5602   */\n      eq\n        /* \"#utility.yul\":5561:5645   */\n      iszero\n      tag_131\n      jumpi\n        /* \"#utility.yul\":5617:5635   */\n      tag_132\n      tag_133\n      jump\t// in\n    tag_132:\n        /* \"#utility.yul\":5561:5645   */\n    tag_131:\n        /* \"#utility.yul\":5382:5651   */\n      pop\n        /* \"#utility.yul\":5331:5651   */\n      swap2\n      swap1\n      pop\n      jump\t// out\n        /* \"#utility.yul\":5657:5938   */\n    tag_112:\n        /* \"#utility.yul\":5740:5767   */\n      tag_135\n        /* \"#utility.yul\":5762:5766   */\n      dup3\n        /* \"#utility.yul\":5740:5767   */\n      tag_89\n      jump\t// in\n    tag_135:\n        /* \"#utility.yul\":5732:5738   */\n      dup2\n        /* \"#utility.yul\":5728:5768   */\n      add\n        /* \"#utility.yul\":5870:5876   */\n      dup2\n        /* \"#utility.yul\":5858:5868   */\n      dup2\n        /* \"#utility.yul\":5855:5877   */\n      lt\n        /* \"#utility.yul\":5834:5852   */\n      0xffffffffffffffff\n        /* \"#utility.yul\":5822:5832   */\n      dup3\n        /* \"#utility.yul\":5819:5853   */\n      gt\n        /* \"#utility.yul\":5816:5878   */\n      or\n        /* \"#utility.yul\":5813:5901   */\n      iszero\n      tag_136\n      jumpi\n        /* \"#utility.yul\":5881:5899   */\n      tag_137\n      tag_117\n      jump\t// in\n    tag_137:\n        /* \"#utility.yul\":5813:5901   */\n    tag_136:\n        /* \"#utility.yul\":5921:5931   */\n      dup1\n        /* \"#utility.yul\":5917:5919   */\n      0x40\n        /* \"#utility.yul\":5910:5932   */\n      mstore\n        /* \"#utility.yul\":5700:5938   */\n      pop\n        /* \"#utility.yul\":5657:5938   */\n      pop\n      pop\n      jump\t// out\n        /* \"#utility.yul\":5944:6124   */\n    tag_133:\n        /* \"#utility.yul\":5992:6069   */\n      0x4e487b7100000000000000000000000000000000000000000000000000000000\n        /* \"#utility.yul\":5989:5990   */\n      0x00\n        /* \"#utility.yul\":5982:6070   */\n      mstore\n        /* \"#utility.yul\":6089:6093   */\n      0x22\n        /* \"#utility.yul\":6086:6087   */\n      0x04\n        /* \"#utility.yul\":6079:6094   */\n      mstore\n        /* \"#utility.yul\":6113:6117   */\n      0x24\n        /* \"#utility.yul\":6110:6111   */\n      0x00\n        /* \"#utility.yul\":6103:6118   */\n      revert\n        /* \"#utility.yul\":6130:6310   */\n    tag_117:\n        /* \"#utility.yul\":6178:6255   */\n      0x4e487b7100000000000000000000000000000000000000000000000000000000\n        /* \"#utility.yul\":6175:6176   */\n      0x00\n        /* \"#utility.yul\":6168:6256   */\n      mstore\n        /* \"#utility.yul\":6275:6279   */\n      0x41\n        /* \"#utility.yul\":6272:6273   */\n      0x04\n        /* \"#utility.yul\":6265:6280   */\n      mstore\n        /* \"#utility.yul\":6299:6303   */\n      0x24\n        /* \"#utility.yul\":6296:6297   */\n      0x00\n        /* \"#utility.yul\":6289:6304   */\n      revert\n        /* \"#utility.yul\":6316:6433   */\n    tag_61:\n        /* \"#utility.yul\":6425:6426   */\n      0x00\n        /* \"#utility.yul\":6422:6423   */\n      dup1\n        /* \"#utility.yul\":6415:6427   */\n      revert\n        /* \"#utility.yul\":6439:6556   */\n    tag_54:\n        /* \"#utility.yul\":6548:6549   */\n      0x00\n        /* \"#utility.yul\":6545:6546   */\n      dup1\n        /* \"#utility.yul\":6538:6550   */\n      revert\n        /* \"#utility.yul\":6562:6679   */\n    tag_73:\n        /* \"#utility.yul\":6671:6672   */\n      0x00\n        /* \"#utility.yul\":6668:6669   */\n      dup1\n        /* \"#utility.yul\":6661:6673   */\n      revert\n        /* \"#utility.yul\":6685:6802   */\n    tag_70:\n        /* \"#utility.yul\":6794:6795   */\n      0x00\n        /* \"#utility.yul\":6791:6792   */\n      dup1\n        /* \"#utility.yul\":6784:6796   */\n      revert\n        /* \"#utility.yul\":6808:6910   */\n    tag_89:\n        /* \"#utility.yul\":6849:6855   */\n      0x00\n        /* \"#utility.yul\":6900:6902   */\n      0x1f\n        /* \"#utility.yul\":6896:6903   */\n      not\n        /* \"#utility.yul\":6891:6893   */\n      0x1f\n        /* \"#utility.yul\":6884:6889   */\n      dup4\n        /* \"#utility.yul\":6880:6894   */\n      add\n        /* \"#utility.yul\":6876:6904   */\n      and\n        /* \"#utility.yul\":6866:6904   */\n      swap1\n      pop\n        /* \"#utility.yul\":6808:6910   */\n      swap2\n      swap1\n      pop\n      jump\t// out\n        /* \"#utility.yul\":6916:7085   */\n    tag_94:\n        /* \"#utility.yul\":7056:7077   */\n      0x66616c6c6261636b207761732063616c6c656400000000000000000000000000\n        /* \"#utility.yul\":7052:7053   */\n      0x00\n        /* \"#utility.yul\":7044:7050   */\n      dup3\n        /* \"#utility.yul\":7040:7054   */\n      add\n        /* \"#utility.yul\":7033:7078   */\n      mstore\n        /* \"#utility.yul\":6916:7085   */\n      pop\n      jump\t// out\n        /* \"#utility.yul\":7091:7213   */\n    tag_66:\n        /* \"#utility.yul\":7164:7188   */\n      tag_147\n        /* \"#utility.yul\":7182:7187   */\n      dup2\n        /* \"#utility.yul\":7164:7188   */\n      tag_98\n      jump\t// in\n    tag_147:\n        /* \"#utility.yul\":7157:7162   */\n      dup2\n        /* \"#utility.yul\":7154:7189   */\n      eq\n        /* \"#utility.yul\":7144:7207   */\n      tag_148\n      jumpi\n        /* \"#utility.yul\":7203:7204   */\n      0x00\n        /* \"#utility.yul\":7200:7201   */\n      dup1\n        /* \"#utility.yul\":7193:7205   */\n      revert\n        /* \"#utility.yul\":7144:7207   */\n    tag_148:\n        /* \"#utility.yul\":7091:7213   */\n      pop\n      jump\t// out\n\n    auxdata: 0xa2646970667358221220bc4eb4cae3554126f53329ad9151c80a9442da1fa8d305069bb0a67b73c06f6964736f6c63430008070033\n}\n",
				"bytecode": {
					"linkReferences": {},
					"object": "608060405234801561001057600080fd5b5061065d806100206000396000f3fe6080604052600436106100385760003560e01c80630c55699c1461007057806324ccab8f1461009b578063e21f37ce146100cc57610039565b5b7fcf34ef537ac33ee1ac626ca1587a0a7e8e51561e5514f8cb36afa1c5102b3bab604051610066906103fc565b60405180910390a1005b34801561007c57600080fd5b506100856100f7565b604051610092919061041c565b60405180910390f35b6100b560048036038101906100b091906102db565b6100fd565b6040516100c39291906103b1565b60405180910390f35b3480156100d857600080fd5b506100e1610125565b6040516100ee91906103da565b60405180910390f35b60015481565b60008083600090805190602001906101169291906101b3565b50826001819055509250929050565b6000805461013290610501565b80601f016020809104026020016040519081016040528092919081815260200182805461015e90610501565b80156101ab5780601f10610180576101008083540402835291602001916101ab565b820191906000526020600020905b81548152906001019060200180831161018e57829003601f168201915b505050505081565b8280546101bf90610501565b90600052602060002090601f0160209004810192826101e15760008555610228565b82601f106101fa57805160ff1916838001178555610228565b82800160010185558215610228579182015b8281111561022757825182559160200191906001019061020c565b5b5090506102359190610239565b5090565b5b8082111561025257600081600090555060010161023a565b5090565b60006102696102648461045c565b610437565b905082815260208101848484011115610285576102846105c7565b5b6102908482856104bf565b509392505050565b600082601f8301126102ad576102ac6105c2565b5b81356102bd848260208601610256565b91505092915050565b6000813590506102d581610610565b92915050565b600080604083850312156102f2576102f16105d1565b5b600083013567ffffffffffffffff8111156103105761030f6105cc565b5b61031c85828601610298565b925050602061032d858286016102c6565b9150509250929050565b610340816104a9565b82525050565b60006103518261048d565b61035b8185610498565b935061036b8185602086016104ce565b610374816105d6565b840191505092915050565b600061038c601383610498565b9150610397826105e7565b602082019050919050565b6103ab816104b5565b82525050565b60006040820190506103c66000830185610337565b6103d360208301846103a2565b9392505050565b600060208201905081810360008301526103f48184610346565b905092915050565b600060208201905081810360008301526104158161037f565b9050919050565b600060208201905061043160008301846103a2565b92915050565b6000610441610452565b905061044d8282610533565b919050565b6000604051905090565b600067ffffffffffffffff82111561047757610476610593565b5b610480826105d6565b9050602081019050919050565b600081519050919050565b600082825260208201905092915050565b60008115159050919050565b6000819050919050565b82818337600083830152505050565b60005b838110156104ec5780820151818401526020810190506104d1565b838111156104fb576000848401525b50505050565b6000600282049050600182168061051957607f821691505b6020821081141561052d5761052c610564565b5b50919050565b61053c826105d6565b810181811067ffffffffffffffff8211171561055b5761055a610593565b5b80604052505050565b7f4e487b7100000000000000000000000000000000000000000000000000000000600052602260045260246000fd5b7f4e487b7100000000000000000000000000000000000000000000000000000000600052604160045260246000fd5b600080fd5b600080fd5b600080fd5b600080fd5b6000601f19601f8301169050919050565b7f66616c6c6261636b207761732063616c6c656400000000000000000000000000600082015250565b610619816104b5565b811461062457600080fd5b5056fea2646970667358221220bc4eb4cae3554126f53329ad9151c80a9442da1fa8d305069bb0a67b73c06f6964736f6c63430008070033",
					"opcodes": "PUSH1 0x80 PUSH1 0x40 MSTORE CALLVALUE DUP1 ISZERO PUSH2 0x10 JUMPI PUSH1 0x0 DUP1 REVERT JUMPDEST POP PUSH2 0x65D DUP1 PUSH2 0x20 PUSH1 0x0 CODECOPY PUSH1 0x0 RETURN INVALID PUSH1 0x80 PUSH1 0x40 MSTORE PUSH1 0x4 CALLDATASIZE LT PUSH2 0x38 JUMPI PUSH1 0x0 CALLDATALOAD PUSH1 0xE0 SHR DUP1 PUSH4 0xC55699C EQ PUSH2 0x70 JUMPI DUP1 PUSH4 0x24CCAB8F EQ PUSH2 0x9B JUMPI DUP1 PUSH4 0xE21F37CE EQ PUSH2 0xCC JUMPI PUSH2 0x39 JUMP JUMPDEST JUMPDEST PUSH32 0xCF34EF537AC33EE1AC626CA1587A0A7E8E51561E5514F8CB36AFA1C5102B3BAB PUSH1 0x40 MLOAD PUSH2 0x66 SWAP1 PUSH2 0x3FC JUMP JUMPDEST PUSH1 0x40 MLOAD DUP1 SWAP2 SUB SWAP1 LOG1 STOP JUMPDEST CALLVALUE DUP1 ISZERO PUSH2 0x7C JUMPI PUSH1 0x0 DUP1 REVERT JUMPDEST POP PUSH2 0x85 PUSH2 0xF7 JUMP JUMPDEST PUSH1 0x40 MLOAD PUSH2 0x92 SWAP2 SWAP1 PUSH2 0x41C JUMP JUMPDEST PUSH1 0x40 MLOAD DUP1 SWAP2 SUB SWAP1 RETURN JUMPDEST PUSH2 0xB5 PUSH1 0x4 DUP1 CALLDATASIZE SUB DUP2 ADD SWAP1 PUSH2 0xB0 SWAP2 SWAP1 PUSH2 0x2DB JUMP JUMPDEST PUSH2 0xFD JUMP JUMPDEST PUSH1 0x40 MLOAD PUSH2 0xC3 SWAP3 SWAP2 SWAP1 PUSH2 0x3B1 JUMP JUMPDEST PUSH1 0x40 MLOAD DUP1 SWAP2 SUB SWAP1 RETURN JUMPDEST CALLVALUE DUP1 ISZERO PUSH2 0xD8 JUMPI PUSH1 0x0 DUP1 REVERT JUMPDEST POP PUSH2 0xE1 PUSH2 0x125 JUMP JUMPDEST PUSH1 0x40 MLOAD PUSH2 0xEE SWAP2 SWAP1 PUSH2 0x3DA JUMP JUMPDEST PUSH1 0x40 MLOAD DUP1 SWAP2 SUB SWAP1 RETURN JUMPDEST PUSH1 0x1 SLOAD DUP2 JUMP JUMPDEST PUSH1 0x0 DUP1 DUP4 PUSH1 0x0 SWAP1 DUP1 MLOAD SWAP1 PUSH1 0x20 ADD SWAP1 PUSH2 0x116 SWAP3 SWAP2 SWAP1 PUSH2 0x1B3 JUMP JUMPDEST POP DUP3 PUSH1 0x1 DUP2 SWAP1 SSTORE POP SWAP3 POP SWAP3 SWAP1 POP JUMP JUMPDEST PUSH1 0x0 DUP1 SLOAD PUSH2 0x132 SWAP1 PUSH2 0x501 JUMP JUMPDEST DUP1 PUSH1 0x1F ADD PUSH1 0x20 DUP1 SWAP2 DIV MUL PUSH1 0x20 ADD PUSH1 0x40 MLOAD SWAP1 DUP2 ADD PUSH1 0x40 MSTORE DUP1 SWAP3 SWAP2 SWAP1 DUP2 DUP2 MSTORE PUSH1 0x20 ADD DUP3 DUP1 SLOAD PUSH2 0x15E SWAP1 PUSH2 0x501 JUMP JUMPDEST DUP1 ISZERO PUSH2 0x1AB JUMPI DUP1 PUSH1 0x1F LT PUSH2 0x180 JUMPI PUSH2 0x100 DUP1 DUP4 SLOAD DIV MUL DUP4 MSTORE SWAP2 PUSH1 0x20 ADD SWAP2 PUSH2 0x1AB JUMP JUMPDEST DUP3 ADD SWAP2 SWAP1 PUSH1 0x0 MSTORE PUSH1 0x20 PUSH1 0x0 KECCAK256 SWAP1 JUMPDEST DUP2 SLOAD DUP2 MSTORE SWAP1 PUSH1 0x1 ADD SWAP1 PUSH1 0x20 ADD DUP1 DUP4 GT PUSH2 0x18E JUMPI DUP3 SWAP1 SUB PUSH1 0x1F AND DUP3 ADD SWAP2 JUMPDEST POP POP POP POP POP DUP2 JUMP JUMPDEST DUP3 DUP1 SLOAD PUSH2 0x1BF SWAP1 PUSH2 0x501 JUMP JUMPDEST SWAP1 PUSH1 0x0 MSTORE PUSH1 0x20 PUSH1 0x0 KECCAK256 SWAP1 PUSH1 0x1F ADD PUSH1 0x20 SWAP1 DIV DUP2 ADD SWAP3 DUP3 PUSH2 0x1E1 JUMPI PUSH1 0x0 DUP6 SSTORE PUSH2 0x228 JUMP JUMPDEST DUP3 PUSH1 0x1F LT PUSH2 0x1FA JUMPI DUP1 MLOAD PUSH1 0xFF NOT AND DUP4 DUP1 ADD OR DUP6 SSTORE PUSH2 0x228 JUMP JUMPDEST DUP3 DUP1 ADD PUSH1 0x1 ADD DUP6 SSTORE DUP3 ISZERO PUSH2 0x228 JUMPI SWAP2 DUP3 ADD JUMPDEST DUP3 DUP2 GT ISZERO PUSH2 0x227 JUMPI DUP3 MLOAD DUP3 SSTORE SWAP2 PUSH1 0x20 ADD SWAP2 SWAP1 PUSH1 0x1 ADD SWAP1 PUSH2 0x20C JUMP JUMPDEST JUMPDEST POP SWAP1 POP PUSH2 0x235 SWAP2 SWAP1 PUSH2 0x239 JUMP JUMPDEST POP SWAP1 JUMP JUMPDEST JUMPDEST DUP1 DUP3 GT ISZERO PUSH2 0x252 JUMPI PUSH1 0x0 DUP2 PUSH1 0x0 SWAP1 SSTORE POP PUSH1 0x1 ADD PUSH2 0x23A JUMP JUMPDEST POP SWAP1 JUMP JUMPDEST PUSH1 0x0 PUSH2 0x269 PUSH2 0x264 DUP5 PUSH2 0x45C JUMP JUMPDEST PUSH2 0x437 JUMP JUMPDEST SWAP1 POP DUP3 DUP2 MSTORE PUSH1 0x20 DUP2 ADD DUP5 DUP5 DUP5 ADD GT ISZERO PUSH2 0x285 JUMPI PUSH2 0x284 PUSH2 0x5C7 JUMP JUMPDEST JUMPDEST PUSH2 0x290 DUP5 DUP3 DUP6 PUSH2 0x4BF JUMP JUMPDEST POP SWAP4 SWAP3 POP POP POP JUMP JUMPDEST PUSH1 0x0 DUP3 PUSH1 0x1F DUP4 ADD SLT PUSH2 0x2AD JUMPI PUSH2 0x2AC PUSH2 0x5C2 JUMP JUMPDEST JUMPDEST DUP2 CALLDATALOAD PUSH2 0x2BD DUP5 DUP3 PUSH1 0x20 DUP7 ADD PUSH2 0x256 JUMP JUMPDEST SWAP2 POP POP SWAP3 SWAP2 POP POP JUMP JUMPDEST PUSH1 0x0 DUP2 CALLDATALOAD SWAP1 POP PUSH2 0x2D5 DUP2 PUSH2 0x610 JUMP JUMPDEST SWAP3 SWAP2 POP POP JUMP JUMPDEST PUSH1 0x0 DUP1 PUSH1 0x40 DUP4 DUP6 SUB SLT ISZERO PUSH2 0x2F2 JUMPI PUSH2 0x2F1 PUSH2 0x5D1 JUMP JUMPDEST JUMPDEST PUSH1 0x0 DUP4 ADD CALLDATALOAD PUSH8 0xFFFFFFFFFFFFFFFF DUP2 GT ISZERO PUSH2 0x310 JUMPI PUSH2 0x30F PUSH2 0x5CC JUMP JUMPDEST JUMPDEST PUSH2 0x31C DUP6 DUP3 DUP7 ADD PUSH2 0x298 JUMP JUMPDEST SWAP3 POP POP PUSH1 0x20 PUSH2 0x32D DUP6 DUP3 DUP7 ADD PUSH2 0x2C6 JUMP JUMPDEST SWAP2 POP POP SWAP3 POP SWAP3 SWAP1 POP JUMP JUMPDEST PUSH2 0x340 DUP2 PUSH2 0x4A9 JUMP JUMPDEST DUP3 MSTORE POP POP JUMP JUMPDEST PUSH1 0x0 PUSH2 0x351 DUP3 PUSH2 0x48D JUMP JUMPDEST PUSH2 0x35B DUP2 DUP6 PUSH2 0x498 JUMP JUMPDEST SWAP4 POP PUSH2 0x36B DUP2 DUP6 PUSH1 0x20 DUP7 ADD PUSH2 0x4CE JUMP JUMPDEST PUSH2 0x374 DUP2 PUSH2 0x5D6 JUMP JUMPDEST DUP5 ADD SWAP2 POP POP SWAP3 SWAP2 POP POP JUMP JUMPDEST PUSH1 0x0 PUSH2 0x38C PUSH1 0x13 DUP4 PUSH2 0x498 JUMP JUMPDEST SWAP2 POP PUSH2 0x397 DUP3 PUSH2 0x5E7 JUMP JUMPDEST PUSH1 0x20 DUP3 ADD SWAP1 POP SWAP2 SWAP1 POP JUMP JUMPDEST PUSH2 0x3AB DUP2 PUSH2 0x4B5 JUMP JUMPDEST DUP3 MSTORE POP POP JUMP JUMPDEST PUSH1 0x0 PUSH1 0x40 DUP3 ADD SWAP1 POP PUSH2 0x3C6 PUSH1 0x0 DUP4 ADD DUP6 PUSH2 0x337 JUMP JUMPDEST PUSH2 0x3D3 PUSH1 0x20 DUP4 ADD DUP5 PUSH2 0x3A2 JUMP JUMPDEST SWAP4 SWAP3 POP POP POP JUMP JUMPDEST PUSH1 0x0 PUSH1 0x20 DUP3 ADD SWAP1 POP DUP2 DUP2 SUB PUSH1 0x0 DUP4 ADD MSTORE PUSH2 0x3F4 DUP2 DUP5 PUSH2 0x346 JUMP JUMPDEST SWAP1 POP SWAP3 SWAP2 POP POP JUMP JUMPDEST PUSH1 0x0 PUSH1 0x20 DUP3 ADD SWAP1 POP DUP2 DUP2 SUB PUSH1 0x0 DUP4 ADD MSTORE PUSH2 0x415 DUP2 PUSH2 0x37F JUMP JUMPDEST SWAP1 POP SWAP2 SWAP1 POP JUMP JUMPDEST PUSH1 0x0 PUSH1 0x20 DUP3 ADD SWAP1 POP PUSH2 0x431 PUSH1 0x0 DUP4 ADD DUP5 PUSH2 0x3A2 JUMP JUMPDEST SWAP3 SWAP2 POP POP JUMP JUMPDEST PUSH1 0x0 PUSH2 0x441 PUSH2 0x452 JUMP JUMPDEST SWAP1 POP PUSH2 0x44D DUP3 DUP3 PUSH2 0x533 JUMP JUMPDEST SWAP2 SWAP1 POP JUMP JUMPDEST PUSH1 0x0 PUSH1 0x40 MLOAD SWAP1 POP SWAP1 JUMP JUMPDEST PUSH1 0x0 PUSH8 0xFFFFFFFFFFFFFFFF DUP3 GT ISZERO PUSH2 0x477 JUMPI PUSH2 0x476 PUSH2 0x593 JUMP JUMPDEST JUMPDEST PUSH2 0x480 DUP3 PUSH2 0x5D6 JUMP JUMPDEST SWAP1 POP PUSH1 0x20 DUP2 ADD SWAP1 POP SWAP2 SWAP1 POP JUMP JUMPDEST PUSH1 0x0 DUP2 MLOAD SWAP1 POP SWAP2 SWAP1 POP JUMP JUMPDEST PUSH1 0x0 DUP3 DUP3 MSTORE PUSH1 0x20 DUP3 ADD SWAP1 POP SWAP3 SWAP2 POP POP JUMP JUMPDEST PUSH1 0x0 DUP2 ISZERO ISZERO SWAP1 POP SWAP2 SWAP1 POP JUMP JUMPDEST PUSH1 0x0 DUP2 SWAP1 POP SWAP2 SWAP1 POP JUMP JUMPDEST DUP3 DUP2 DUP4 CALLDATACOPY PUSH1 0x0 DUP4 DUP4 ADD MSTORE POP POP POP JUMP JUMPDEST PUSH1 0x0 JUMPDEST DUP4 DUP2 LT ISZERO PUSH2 0x4EC JUMPI DUP1 DUP3 ADD MLOAD DUP2 DUP5 ADD MSTORE PUSH1 0x20 DUP2 ADD SWAP1 POP PUSH2 0x4D1 JUMP JUMPDEST DUP4 DUP2 GT ISZERO PUSH2 0x4FB JUMPI PUSH1 0x0 DUP5 DUP5 ADD MSTORE JUMPDEST POP POP POP POP JUMP JUMPDEST PUSH1 0x0 PUSH1 0x2 DUP3 DIV SWAP1 POP PUSH1 0x1 DUP3 AND DUP1 PUSH2 0x519 JUMPI PUSH1 0x7F DUP3 AND SWAP2 POP JUMPDEST PUSH1 0x20 DUP3 LT DUP2 EQ ISZERO PUSH2 0x52D JUMPI PUSH2 0x52C PUSH2 0x564 JUMP JUMPDEST JUMPDEST POP SWAP2 SWAP1 POP JUMP JUMPDEST PUSH2 0x53C DUP3 PUSH2 0x5D6 JUMP JUMPDEST DUP2 ADD DUP2 DUP2 LT PUSH8 0xFFFFFFFFFFFFFFFF DUP3 GT OR ISZERO PUSH2 0x55B JUMPI PUSH2 0x55A PUSH2 0x593 JUMP JUMPDEST JUMPDEST DUP1 PUSH1 0x40 MSTORE POP POP POP JUMP JUMPDEST PUSH32 0x4E487B7100000000000000000000000000000000000000000000000000000000 PUSH1 0x0 MSTORE PUSH1 0x22 PUSH1 0x4 MSTORE PUSH1 0x24 PUSH1 0x0 REVERT JUMPDEST PUSH32 0x4E487B7100000000000000000000000000000000000000000000000000000000 PUSH1 0x0 MSTORE PUSH1 0x41 PUSH1 0x4 MSTORE PUSH1 0x24 PUSH1 0x0 REVERT JUMPDEST PUSH1 0x0 DUP1 REVERT JUMPDEST PUSH1 0x0 DUP1 REVERT JUMPDEST PUSH1 0x0 DUP1 REVERT JUMPDEST PUSH1 0x0 DUP1 REVERT JUMPDEST PUSH1 0x0 PUSH1 0x1F NOT PUSH1 0x1F DUP4 ADD AND SWAP1 POP SWAP2 SWAP1 POP JUMP JUMPDEST PUSH32 0x66616C6C6261636B207761732063616C6C656400000000000000000000000000 PUSH1 0x0 DUP3 ADD MSTORE POP JUMP JUMPDEST PUSH2 0x619 DUP2 PUSH2 0x4B5 JUMP JUMPDEST DUP2 EQ PUSH2 0x624 JUMPI PUSH1 0x0 DUP1 REVERT JUMPDEST POP JUMP INVALID LOG2 PUSH5 0x6970667358 0x22 SLT KECCAK256 0xBC 0x4E 0xB4 0xCA 0xE3 SSTORE COINBASE 0x26 CREATE2 CALLER 0x29 0xAD SWAP2 MLOAD 0xC8 EXP SWAP5 TIMESTAMP 0xDA 0x1F 0xA8 0xD3 SDIV MOD SWAP12 0xB0 0xA6 PUSH28 0x73C06F6964736F6C6343000807003300000000000000000000000000 "
				},
				"gasEstimates": {
					"creation": {
						"codeDepositCost": "325800",
						"executionCost": "362",
						"totalCost": "326162"
					},
					"external": {
						"": "1931",
						"foo(string,uint256)": "infinite",
						"message()": "infinite",
						"x()": "2407"
					}
				},
				"methodIdentifiers": {
					"foo(string,uint256)": "24ccab8f",
					"message()": "e21f37ce",
					"x()": "0c55699c"
				}
			},
			"storageLayout": {
				"storage": [
					{
						"astId": 3,
						"contract": "42_Call.sol:TestCall",
						"label": "message",
						"offset": 0,
						"slot": "0",
						"type": "t_string_storage"
					},
					{
						"astId": 5,
						"contract": "42_Call.sol:TestCall",
						"label": "x",
						"offset": 0,
						"slot": "1",
						"type": "t_uint256"
					}
				],
				"types": {
					"t_string_storage": {
						"encoding": "bytes",
						"label": "string",
						"numberOfBytes": "32"
					},
					"t_uint256": {
						"encoding": "inplace",
						"label": "uint256",
						"numberOfBytes": "32"
					}
				}
			},
			"userdoc": {
				"kind": "user",
				"methods": {},
				"version": 1
			}
		}
	}
}